:020000040800F2
:100000008806002029020008850300087D030008F7
:1000100081030008E3020008090600080000000050
:100020000000000000000000000000009104000833
:10003000E7020008000000008703000881050008AF
:10004000430200084302000843020008430200087C
:10005000430200084302000843020008430200086C
:10006000430200084302000843020008430200085C
:10007000430200084302000843020008430200084C
:10008000430200084302000843020008430200083C
:10009000430200084302000843020008430200082C
:1000A000430200084302000843020008430200081C
:1000B000430200084302000843020008430200080C
:1000C00043020008430200084302000843020008FC
:1000D00043020008430200084302000843020008EC
:1000E00043020008430200084302000843020008DC
:1000F00043020008430200084302000843020008CC
:1001000043020008430200084302000843020008BB
:1001100043020008430200084302000843020008AB
:10012000430200084302000843020008430200089B
:10013000430200084302000843020008430200088B
:10014000430200084302000843020008430200087B
:10015000430200084302000843020008430200086B
:10016000430200084302000843020008430200085B
:10017000430200084302000843020008430200084B
:10018000430200084302000800F002F800F03CF8C7
:100190000AA090E8000C82448344AAF10107DA45E2
:1001A00001D100F031F8AFF2090EBAE80F0013F0F8
:1001B000010F18BFFB1A43F0010318477006000037
:1001C00090060000103A24BF78C878C1FAD85207C8
:1001D00024BF30C830C144BF04680C6070470000C1
:1001E0000023002400250026103A28BF78C1FBD840
:1001F000520728BF30C148BF0B6070471FB500F0E1
:100200000FFB1FBD10B510BD00F031F81146FFF710
:10021000F5FF00F0CDFA00F04FF803B4FFF7F2FF5E
:1002200003BC00F057F80000094880470948004720
:10023000FEE7FEE7FEE7FEE7FEE7FEE7FEE7FEE796
:10024000FEE7FEE704480549054A064B70470000F3
:100250008905000889010008880000208806002020
:10026000880200208802002070477047704775465A
:1002700000F02CF8AE4605006946534620F0070012
:10028000854618B020B5FFF7DDFFBDE820404FF0F0
:1002900000064FF000074FF000084FF0000B21F070
:1002A0000701AC46ACE8C009ACE8C009ACE8C0093D
:1002B000ACE8C0098D46704710B50446AFF3008026
:1002C0002046BDE81040FFF7A8BF00000048704777
:1002D0002400002001491820ABBEFEE726000200E2
:1002E000704700BFFEE77047F0B50A4600210023C3
:1002F000002400BF3DE0012505FA01F3156805EA79
:1003000003049C4234D105684F000326BE40B54328
:10031000056015794E00B5400668354305601579CE
:10032000012D02D01579022D16D185684F000326C4
:10033000BE40B543856055794E00B540866835436B
:100340008560456801268E40B543456045689679CD
:100350008E40B6B235434560C5684F000326BE40A7
:10036000B543C560D5794E00B540C6683543C56014
:10037000491C1029BFD3F0BD0183704700BFFEE7C1
:1003800000BFFEE77047704729B1064A1268024372
:10039000044B1A6004E0034A12688243014B1A605E
:1003A0007047000030380240F0B5002100220024E0
:1003B000022500260223324F3F6807F00C0121B1CD
:1003C000042905D0082937D105E02E4F076036E013
:1003D0002D4F076033E02A4F3F1F3F68C7F3805619
:1003E000274F3F1F3F6807F03F036EB1264FB7FB13
:1003F000F3F7DFF88CC0ACF1040CDCF800C0CCF3F0
:10040000881C07FB0CF40CE01E4FB7FBF3F7DFF87A
:1004100070C0ACF1040CDCF800C0CCF3881C07FB06
:100420000CF4174F3F1F3F68C7F301477F1C7D0047
:10043000B4FBF5F7076002E0124F076000BF00BF92
:100440000F4F3F6807F0F0010909104F7A5C076809
:10045000D74047600A4F3F6807F4E051890A0B4FC5
:100460007A5C4768D7408760054F3F6807F4604172
:10047000490B064F7A5C4768D740C760F0BD000063
:10048000083802400024F40000127A000000002026
:10049000704700000CB500200190009034480068BF
:1004A00040F480303249086000BF3148006800F4F1
:1004B000003000900198401C0190009818B90198F4
:1004C000B0F5A04FF1D12A48006800F4003010B117
:1004D0000120009001E0002000900098012846D102
:1004E00023484030006840F0805021494031086086
:1004F0002048006840F440401E4908601C4808300D
:1005000000681B49083108600846006840F4004054
:1005100008600846006840F4A05008601648091FAB
:100520000860081F006840F08070091F086000BF65
:100530000F48006800F000700028F9D040F2057004
:100540000E4908600A480830006820F00300084996
:10055000083108600846006840F00200086000BFEB
:1005600003480830006800F00C000828F8D10CBDE2
:10057000003802400070004008544007003C024030
:1005800010B500F035F810BD10B51548006840F4FE
:100590007000134908601348006840F001001149D9
:1005A000086000200F49083108600E4800680E49B5
:1005B00008400C4908600D48091D0860081F0068C4
:1005C00020F48020091F0860002006490C310860D3
:1005D000FFF760FF4FF0006001498039086010BDEF
:1005E00088ED00E000380240FFFFF6FE10300024E6
:1005F0000448006820B103480068401E01490860B3
:10060000704700001000002000BFFEE770B51548DD
:10061000FFF7CAFE1348406842F21072B0FBF2F1D5
:10062000481EB0F1807F00D31BE0481E4FF0E0224F
:10063000506150170F22002807DA13071D0E0A4BCE
:1006400000F00F04241F1D5503E013071C0E074B79
:100650001C5400BF00204FF0E02290610720106181
:1006600000BF70BD1400002018ED00E000E400E0C1
:10067000002112E000224FF0E0231A611D4A5A6166
:1006800000229A6101221A6100BF4FF0E022126934
:1006900002F48032002AF8D0491C4FF42F7290FBEC
:1006A000F2F28A42E6DC4FF42F7190FBF1F201FB8B
:1006B0001201F1B100214FF0E02211614FF42F71CE
:1006C00090FBF1F201FB120140F64122514301225D
:1006D000C2EBC1014FF0E022516100219161012183
:1006E000116100BF4FF0E021096901F48031002958
:1006F000F8D07047DF4DE0001CB501211120FFF755
:1007000043FE0120009000208DF804008DF80700C2
:1007100069460548FFF7E8FD1C200090694603483C
:10072000FFF7E2FD1CBD0000000002400010024087
:100730001CB501213020FFF727FE4FF4C060009068
:1007400001208DF804008DF806008DF807008DF863
:10075000050069461448FFF7C7FD4FF4C0400090FC
:1007600069461248FFF7C0FD4FF4807000900020EA
:100770008DF8060069460C48FFF7B6FD4FF400718E
:100780000948FFF7F9FD4FF480610748FFF7F4FDD2
:100790004FF400510548FFF7EFFD4FF48041034847
:1007A000FFF7EAFD1CBD00000014024000100240EB
:1007B000FFF72CFFFFF7BCFFFFF79EFF28E00120AB
:1007C000144908604FF47A70FFF752FF0020124975
:1007D000C1F8A4024FF47A70FFF74AFF0F4800688F
:1007E00020B900200B49091D086003E001200949D8
:1007F000091D08600948001D0068012804D1002077
:100800000649AC31086003E001200449AC310860BE
:10081000D5E70000A48242420080424208024242E0
:100820004FF04070E1EE100A704700004C080008DD
:100830000000002014000000C40100086008000847
:100840001400002074060000E00100080000000011
:100850000102030401020304060708090000000066
:040000050800018965
:00000001FF
