:020000040800F2
:1000000078090010D1670008F9050008FB05000811
:10001000FF050008030600080706000800000000AE
:100020000000000000000000000000000B060008B7
:100030000D060008000000000F0600081106000869
:10004000EB670008EB670008EB670008EB67000848
:10005000EB670008EB67000805640008EB67000821
:100060004F6400082B64000873640008EB67000805
:10007000EB670008EB670008EB670008EB67000818
:10008000EB670008EB670008EB670008EB67000808
:10009000EB670008EB670008EB670008EB670008F8
:1000A000EB670008EB670008EB670008EB670008E8
:1000B000EB67000831620008ED950008EB67000867
:1000C000EB670008EB670008EB670008EB670008C8
:1000D000EB67000847670008EB670008EB6700085C
:1000E000EB670008EB670008EB670008EB670008A8
:1000F000EB670008EB670008EB670008EB67000898
:10010000EB670008EB670008EB670008EB67000887
:10011000EB670008EB670008EB670008EB67000877
:10012000EB670008EB670008EB670008EB67000867
:10013000EB670008EB670008EB670008EB67000857
:10014000EB670008EB670008EB670008EB67000847
:10015000EB670008EB670008EB670008EB67000837
:10016000EB670008EB670008EB670008EB67000827
:10017000EB670008EB67000871560008EB670008A2
:10018000EB670008EB67000800F002F800F06DF87C
:100190000AA090E8000C82448344AAF10107DA45E2
:1001A00001D100F062F8AFF2090EBAE80F0013F0C7
:1001B000010F18BFFB1A43F001031847E8C4000001
:1001C00018C500000A444FF0000C10F8013B13F072
:1001D000070408BF10F8014B1D1108BF10F8015BA0
:1001E000641E05D010F8016B641E01F8016BF9D193
:1001F00013F0080F1EBF10F8014BAD1C0C1B09D1EA
:100200006D1E58BF01F801CBFAD505E014F8016B5B
:1002100001F8016B6D1EF9D59142D6D370470000ED
:100220000023002400250026103A28BF78C1FBD8FF
:10023000520728BF30C148BF0B607047642909F0DE
:10024000A787752909F0A487782909F0DD87632934
:100250000AF0318173290AF03681002070471FB5FA
:100260000AF0DCFA1FBD10B510BD0AF05FF91146A7
:10027000FFF7F5FF00F008F80AF07DF903B4FFF787
:10028000F2FF03BC06F000FA1CB54FF4A06006F0C4
:10029000BFFAA82006F076F94FF4E13006F001FA33
:1002A0004FF4E1312A2005F055FF00F0BBFA01F0D0
:1002B000DDF905F05BF906F0EEF842F2CF01C72058
:1002C00005F08AFFA6484168542088471F20A549A9
:1002D0000880A5A010210B46C822CDE900103221CC
:1002E0001E2005F010F9A5A010210B46C822CDE96B
:1002F000001046211E2005F006F918E0A2A01021EA
:100300000B46F022CDE900105A211E2005F0FBF823
:10031000C82006F099F94FF6FF70AA23EF225A2160
:1003200000901E2004F055FEC82006F08DF905F05F
:10033000E7FA0028E2D197A010210B46C822CDE9A8
:1003400000105A211E2005F0DEF895A010210B4662
:10035000C822CDE900106E211E2005F0D4F893A02C
:1003600010210B46C822CDE9001082211E2005F085
:10037000CAF890A010210B46C822CDE900109621A2
:100380001E2005F0C0F805F04EFB4FF4C8731A4666
:1003900019464FF4167005F01DFDC821084605F0FA
:1003A000D5FC05F0AEF94FF48063DA0044F6206125
:1003B000824805F073F905F02FFAD0E010200323EE
:1003C00000907F486E210268642004F0E4FF002062
:1003D0007C4908804FF496718C2000F08DFA00F073
:1003E0006EFA002475E000256FE0C72D0CD175482A
:1003F0000088401C7349088004F22D1081B28C20C3
:1004000000F07AFA00F05BFA04EBC40000EB041091
:100410006A4901EB001030F81500C01244F68B4118
:1004200010FB01F104EBC40000EB0410634A02EB83
:10043000001030F81500C0F3451049F2456200FB8A
:10044000021004EBC40101EB04115C4A02EB011140
:1004500011F8151001F01F0140F2D31211FB02F147
:1004600000EB0110001458490880084600885449E0
:100470000968884224DB4FF6FF70544908800A2C33
:1004800021DDBE2C1FDA0A2D1DDDBE2D1BDA5048E2
:100490000078844201DD4E490C704E480078844259
:1004A00001DA4C490C704C480078854201DD4A491C
:1004B0000D704A480078854205DA48490D7002E01F
:1004C000002042490880681C85B2C82D8DDB601C65
:1004D00084B2C82C87DB3E480078414908703D480B
:1004E0000078404908703C4800783F4908703B4814
:1004F00000783E490870002035490870BE20354913
:100500000870002034490870BE203449087034490E
:100510000978344A1278881800EBD071C1F347018A
:10052000334A117030490978304A1278881800EB44
:10053000D071C1F347012F4A11701020032300909E
:100540002B4802788221642004F025FF1020032329
:100550000090284802789621642004F01CFF2DE7C3
:100560003C010010540000104578706C6F72657289
:100570002053544D33324634000000004F5632367B
:1005800034302054455354004F56323634302045D1
:10059000525200004F5632363430204F4B0000008C
:1005A00067726179626173653A0000005820504FAC
:1005B00053493A005920504F53493A000000002057
:1005C0000000001006000010040000108000006C05
:1005D00008000010100000100900001011000010A9
:1005E0000A0000100B0000100C0000100D0000109D
:1005F0000E0000100F000010704700BFFEE700BFA4
:10060000FEE700BFFEE700BFFEE770477047704798
:10061000704700000CB500200190009076480068FB
:1006200040F480307449086000BF7348006800F4EB
:10063000003000900198401C0190009818B9019872
:10064000B0F5A04FF1D16C48006800F4003010B153
:100650000120009001E0002000900098012846D180
:1006600065484030006840F0805063494031086080
:100670006248006840F44040604908605E480830C5
:1006800000685D49083108600846006840F4004091
:1006900008600846006840F4A05008605848091FE8
:1006A0000860081F006840F08070091F086000BFE4
:1006B0005148006800F000700028F9D040F2057041
:1006C000504908604C480830006820F003004A494F
:1006D000083108600846006840F00200086000BF6A
:1006E00045480830006800F00C000828F8D10CBD1F
:1006F00010B54548006840F47000434908603E4822
:10070000006840F001003C49086000203A49083187
:100710000860394800683D490840374908603C484E
:10072000091D0860081F006820F48020091F086068
:10073000002031490C310860FFF76CFF4FF000607A
:1007400031498039086010BD70B5002000220223B5
:1007500000240221284D08352D6805F00C0020B139
:10076000042806D0082834D107E02A4D2A4E3560E7
:1007700033E02A4D284E35602FE01F4D2D1D2D688A
:10078000C5F380541C4D2D1D2D6805F03F0154B15B
:10079000224DB5FBF1F5184E361D3668C6F38816A6
:1007A00005FB06F209E01B4DB5FBF1F5124E361DB7
:1007B0003668C6F3881605FB06F20F4D2D1D2D6811
:1007C000C5F301456D1C6B00B2FBF3F5124E3560AD
:1007D00003E0104D104E356000BF00BF064D0835D8
:1007E0002D68C5F303150E4E705D0B4D2D68C54089
:1007F000094E356070BD00000038024000700040B6
:1008000008544007003C024088ED00E0FFFFF6FE80
:10081000103000240024F4004000001000127A0080
:10082000440000101CB50121202007F003F94FF40B
:10083000C060009001208DF8040000208DF80600B3
:1008400003208DF8050001208DF807006946044853
:1008500006F09AF94FF4C061014806F011FA1CBD88
:100860000014024001B5BDF800000090BDF8000082
:10087000FE49088008BD01B5BDF800000090BDF834
:100880000000FA49891C088008BD08B5F748801C9B
:1008900000880090BDF8000008BDF44A10804FF0B9
:1008A000D842A2F88010704710B504462046FFF7E2
:1008B000D9FF052005F080FEFFF7E7FF10BDEC48EB
:1008C0000089EA4908807047E849891C0880704718
:1008D00030B5014601F01F04C1F34513CA0AE50211
:1008E00005EB43151544A8B230BD00BF011EA0F1B1
:1008F0000102D0B2FAD1704730B504460D46DC484B
:10090000808849F24131884205D0D948808845F233
:100910001031884214D1D6494889FFF7A3FF20122D
:10092000FFF7A9FFE0B2FFF7A6FFD1498889FFF7DB
:1009300099FF2812FFF79FFFE8B2FFF79CFFABE09B
:10094000CB48808846F6040188421DD1C84880798A
:10095000012804D1C6480088401E001B84B2C44947
:100960004889FFF77FFF2012FFF785FFE0B2FFF70E
:1009700082FFBF498889FFF775FF2812FFF77BFFC9
:10098000E8B2FFF778FF87E0B948808841F6631145
:10099000884247D1B6488079A8B9B5480088401E3A
:1009A000001B84B2B2494889FFF75CFF0020FFF7C3
:1009B00062FF0020FFF75FFF2012FFF75CFFE0B24D
:1009C000FFF759FF16E0AA494889FFF74BFF2012AD
:1009D000FFF751FFE0B2FFF74EFFA5490988491E16
:1009E000C1F30F20FFF747FFA1490978491EC8B29C
:1009F000FFF741FF9E498889FFF734FF2812FFF770
:100A00003AFFE8B2FFF737FF99494988491EC1F319
:100A10000F20FFF730FF96498978491EC8B2FFF7CB
:100A20002AFF39E09248808845F21051884220D14F
:100A30008F494889FFF716FF2012FFF71CFF8C49EA
:100A40004989491C88B2FFF70DFFE0B2FFF713FF99
:100A500087498889FFF706FF2812FFF70CFF8449B2
:100A60008989491C88B2FFF7FDFEE8B2FFF703FF52
:100A700012E07F488079012804D17D480088401E1B
:100A8000001B84B27A4948892146FFF706FF78495E
:100A900088892946FFF701FF30BD2DE9F041054661
:100AA0000E4600240027A04671480088A84203DDB6
:100AB0006F484088B04202DC0020BDE8F08131463A
:100AC0002846FFF719FF6A48808849F24131884279
:100AD00011D06748808846F6040188420BD06448EC
:100AE000808845F21031884205D06148808841F6FF
:100AF0006311884203D12E20FFF7B4FE0DE05C485D
:100B0000808845F21051884204D14FF43850FFF7E5
:100B1000A9FE02E02220FFF7A5FE5548808849F291
:100B20002031884202D10220FFF7DFFEFFF7ADFE41
:100B300004464F48808841F66311884201D120461F
:100B4000BBE70220FFF7D1FEFFF79FFE04464848AF
:100B5000808849F2413188420BD04548808845F26F
:100B60001031884205D04248808845F210518842B1
:100B70000AD10220FFF7B9FEFFF787FE8046E7B2F1
:100B80004FF6FF7000EA07273948808849F225317F
:100B9000884216D03648808844F23551884210D0B9
:100BA00033488088091F88420BD0314880884BF237
:100BB0000551884205D02E4880884CF20551884264
:100BC00001D1204679E72A48808849F2413188429C
:100BD0000BD02748808845F21031884205D0244840
:100BE000808845F21051884207D1E012C002B91244
:100BF00040EA411040EAE8205FE72046FFF768FE40
:100C00005BE72DE9F04104460D4600260027B0467B
:100C100017480088A04203DD15484088A84202DC3E
:100C20000020BDE8F08129462046FFF765FE4FF41D
:100C30003850FFF717FEFFF728FE06460220FFF7A1
:100C400054FEFFF722FE06460948808845F21051FF
:100C500088420AD10220FFF748FEFFF716FE8046C1
:100C6000F7B24FF6FF7000EA072703E07E00006C42
:100C700030020010FE48808845F21051884207D1AA
:100C8000F012C002B91240EA411040EAE820C8E779
:100C900000BFC6E700B5F648808849F24131884276
:100CA00011D0F348808846F6040188420BD0F04802
:100CB000808845F21031884205D0ED48808841F6A1
:100CC0006311884203D12920FFF7CCFD0FE0E848EB
:100CD000808845F21051884204D14FF42450FFF728
:100CE000C1FD04E040F273110720FFF7D6FD00BDFF
:100CF00000B5DF48808849F24131884211D0DC4894
:100D0000808846F6040188420BD0D948808845F295
:100D10001031884205D0D648808841F66311884258
:100D200003D12820FFF79EFD0EE0D148808845F2D0
:100D30001051884204D14FF42050FFF793FD03E097
:100D400000210720FFF7A9FD00BDF0B505460024EE
:100D50000027C748807901280BD1C548808846F60E
:100D60000401884205D0C248808841F66311884258
:100D700008D1BF488079F0B9BD48808841F6631139
:100D8000884218D1082D15D2DFE805F00406080ABC
:100D90000C0E101206250DE007250BE0042509E0D6
:100DA000052507E0012505E0002503E0032501E016
:100DB000022500BF00BFAE48808849F24131884219
:100DC00017D0AB48808846F60401884211D0A84865
:100DD000808845F2103188420BD0A548808845F2C2
:100DE0001051884205D0A248808841F6631188429C
:100DF0007ED1082D1CD2DFE805F00406090C0F1285
:100E0000151800BF14E044F0800411E044F04004E1
:100E10000EE044F0C0040BE044F0200408E044F08D
:100E2000600405E044F0A00402E044F0E00400BFE8
:100E300000BF8F48808845F21051884202D14FF49C
:100E4000585700E036278A48808845F2103188429A
:100E50000DD08748808845F21051884207D08448D9
:100E6000808841F66311884201D044F0080480482C
:100E7000808846F60401884201D144F002042146EC
:100E80003846FFF70AFD7A48808841F663118842A8
:100E90001DD004F0200068B1754800887449498865
:100EA000884214DA724806884088714908800846EA
:100EB00046800CE06E4800886D494988884206DD0E
:100EC0006B48068840886A4908800846468068481A
:100ED000808845F21051884254D165494889FFF70E
:100EE000C1FC0020FFF7C7FC61494989491C00E0AB
:100EF00077E088B2FFF7B6FC0020FFF7BCFC5C4946
:100F00004989891C88B2FFF7ADFC59490988491EF7
:100F1000C1F30F20FFF7AFFC55494989C91C88B2BE
:100F2000FFF7A0FC52490978491EC8B2FFF7A3FC9D
:100F30004F498889FFF796FC0020FFF79CFC4C493D
:100F40008989491C88B2FFF78DFC0020FFF793FCCC
:100F500047498989891C88B2FFF784FC444949883C
:100F6000491EC1F30F20FFF786FC41498989C91C3E
:100F700088B2FFF777FC3E498978491EC8B2FFF76F
:100F80007AFC55E03A494889FFF76CFC0020FFF7EE
:100F900072FC0020FFF76FFC35490988491EC1F338
:100FA0000F20FFF768FC32490978491EC8B2FFF7E5
:100FB00062FC2F498889FFF755FC0020FFF75BFC96
:100FC0000020FFF758FC2A494988491EC1F30F2029
:100FD000FFF751FC26498978491EC8B2FFF74BFC40
:100FE00026E0082D1CD2DFE805F004070A0D0F12D9
:100FF000151844F0300413E044F0100410E044F0FD
:1010000020040DE000BF0BE044F0380408E044F099
:10101000280405E044F0180402E044F0080400BF8E
:1010200000BF032744F4805421463846FFF735FCBF
:10103000F0BD30B504460D4629462046FFF75CFC5E
:10104000FFF73DFC0B4800880B49088030BD70B5A8
:1010500004460D4616460648808849F241318842CA
:1010600005D00348808845F2103188421BD105E045
:1010700030020010540000108000006CFE494889C6
:10108000FFF7F0FB2012FFF7F6FBE0B2FFF7F3FBF0
:10109000F9498889FFF7E6FB2812FFF7ECFBE8B275
:1010A000FFF7E9FB8CE0F448808845F21051884254
:1010B00020D1F1494889FFF7D5FB2012FFF7DBFB70
:1010C000ED494989491C88B2FFF7CCFBE0B2FFF734
:1010D000D2FBE9498889FFF7C5FB2812FFF7CBFB54
:1010E000E5498989491C88B2FFF7BCFBE8B2FFF7E4
:1010F000C2FB65E0E048808841F66311884228D150
:10110000DD48807920B9DC480088401E001B84B28D
:10111000D9494889FFF7A6FB2012FFF7ACFBE0B2E4
:10112000FFF7A9FB2012FFF7A6FBE0B2FFF7A3FB36
:10113000D1498889FFF796FB2812FFF79CFBE8B29C
:10114000FFF799FB2812FFF796FBE8B2FFF793FB36
:1011500036E0C948808846F6040188421DD1C64859
:101160008079012804D1C4480088401E001B84B245
:10117000C1494889FFF776FB2012FFF77CFBE0B2FC
:10118000FFF779FBBC498889FFF76CFB2812FFF752
:1011900072FBE8B2FFF76FFB12E0B74880790128D5
:1011A00004D1B5480088401E001B84B2B24948896A
:1011B0002146FFF772FBB04988892946FFF76DFB8E
:1011C000AD480089AD4908804FF0D840A0F8806054
:1011D00070BD70B52DED048B0446BE20FFF742FBB9
:1011E0000520FFF748FB204609F007FA41EC190BF0
:1011F0009FEDA30B53EC102B09F012FA41EC180BE6
:1012000009F0CEF985B22846FFF735FB0120FFF73C
:1012100032FBFF20FFF72FFB0020FFF72CFB002005
:10122000FFF729FBBDEC048B70BD10B50446002C04
:1012300066D191498871F02008804FF4A0704880F1
:101240000846808849F2413188420BD08A4880881C
:1012500046F60401884205D08748808845F210315F
:1012600088421AD12C20844908812A2048812B20C9
:1012700088810846808846F60401884205D07E4869
:10128000808845F21031884206D14FF4A0707A4927
:1012900008804FF4F0704880A1E07748808845F2DC
:1012A0001051884210D14FF43050734908814FF4E7
:1012B000285048814FF42C5088814FF4F0700880FA
:1012C0004FF4487048808AE06B48808841F663118B
:1012D00088420DD12C20684908812B2048812A2082
:1012E00088814FF4F07008804FF44870488076E0B1
:1012F00022206149088120204881212088816EE0D8
:1013000001205D4988714FF4A0700880F02048806A
:101310000846808849F24131884205D05648808885
:1013200045F21031884207D12C20534908812A20E8
:1013300048812B2088813FE04F48808846F6040191
:10134000884207D12C204C4908812B2048812A2033
:10135000888131E04848808845F21051884210D198
:101360004FF43050444908814FF4285048814FF4DD
:101370002C5088814FF4487008804FF4F0704880FA
:101380001AE03D48808841F6631188420DD12C2037
:10139000394908812A2048812B2088814FF44870E0
:1013A00008804FF4F070488006E02220324908811E
:1013B00021204881202088812F48808846F604011A
:1013C000884205D02C48808845F21031884206D1E9
:1013D0004FF4F070284908804FF4A0704880002036
:1013E000FFF7B3FC10BD2DE9F04F86B004460D4663
:1013F0009046994604EB0800401E86B205EB0900B2
:10140000401E87B21C48808849F24131884215D07D
:101410001948808845F2103188420FD016488088DC
:1014200046F60401884209D01348807901282FD15B
:101430001148808841F66311884229D10E494889B4
:10144000FFF710FA2012FFF716FAE0B2FFF713FACF
:101450003012FFF710FAF0B2FFF70DFA064988894B
:10146000FFF700FA2812FFF706FAE8B2FFF703FACF
:101470003812FFF700FA07E0300200107E00006C1F
:101480006666666666660440F8B2FFF7F4F9B8E08F
:10149000FE48808841F66311884234D1FB480088B9
:1014A000A0EB0800001B84B205EB0900401E1FFAE8
:1014B00080F9F6494889FFF7D5F92012FFF7DBF9E3
:1014C000E0B2FFF7D8F904EB0801491EC1F30F2081
:1014D000FFF7D1F904EB0801491EC8B2FFF7CBF9B9
:1014E000EA498889FFF7BEF92812FFF7C4F9E8B284
:1014F000FFF7C1F94FEA2920FFF7BDF909F0FF0016
:10150000FFF7B9F97DE0E148808845F21051884243
:1015100044D1DE494889FFF7A5F92012FFF7ABF95E
:10152000DA494989491C88B2FFF79CF9E0B2FFF714
:10153000A2F9D6494989891C88B2FFF793F930127C
:10154000FFF799F9D1494989C91C88B2FFF78AF98F
:10155000F0B2FFF790F9CD498889FFF783F9281297
:10156000FFF789F9C9498989491C88B2FFF77AF9D7
:10157000E8B2FFF780F9C5498989891C88B2FFF76D
:1015800071F93812FFF777F9C0498989C91C88B207
:10159000FFF768F9F8B2FFF76EF932E0BB488079DF
:1015A00001280ED1AA46BB46B8480088801B401EC1
:1015B00080B20190B5480088001B401E80B20090A8
:1015C00003E0A246B34601950097502005905120B4
:1015D0000490522003905320029051460598FFF743
:1015E0005CF959460498FFF758F901990398FFF7F9
:1015F00054F900990298FFF750F929462046FFF761
:101600007BF906B0BDE8F08F70B5044600269F4810
:101610000588408845439D48808846F604018842F5
:1016200016D19A488079012812D1002097498871F3
:101630002A2048812B20888100210846FFF75CF989
:101640000120924988712B2048812A20888103E05B
:1016500000210846FFF750F9FFF731F9002602E0B4
:101660008B480480761CAE42FAD370BD00B5A1B0A1
:101670000020209001217A2006F0DCF901210846A3
:1016800006F010FA4FF400401E9001208DF87C0007
:1016900000208DF87E0002208DF87D0001208DF85D
:1016A0007F001EA97B4805F06FFA4CF233701E9044
:1016B00002208DF87C0000208DF87E0003208DF83C
:1016C0007D0001208DF87F001EA9734805F05CFAAB
:1016D0004FF680701E9002208DF87C0000208DF85F
:1016E0007E0003208DF87D0001208DF87F001EA96B
:1016F0006A4805F049FA4FF480501E9002208DF898
:101700007C0000208DF87E0003208DF87D000120F4
:101710008DF87F001EA9624805F036FA4FF480501C
:101720001E9002208DF87C0000208DF87E000320A2
:101730008DF87D0001208DF87F001EA9594805F025
:1017400023FA0C220021544805F0A9FA0C220121A9
:10175000514805F0A4FA0C2204214F4805F09FFAE5
:101760000C2205214C4805F09AFA0C2208214A481F
:1017700005F095FA0C220921474805F090FA0C2251
:101780000A21454805F08BFA0C220E21424805F04B
:1017900086FA0C220F21404805F081FA0C2207211D
:1017A0003E4805F07CFA0C2208213C4805F077FA07
:1017B0000C220921394805F072FA0C220A21374817
:1017C00005F06DFA0C220B21344805F068FA0C2262
:1017D0001146324805F063FA0C220D212F4805F01E
:1017E0005EFA0C220E212D4805F059FA0C220F2129
:1017F0002A4805F054FA0C221146294805F04FFA00
:101800000C221146274805F04AFA0F2008900020C4
:1018100009903C200A9000200B900C900D900E90A7
:1018200009200190002002900820039000200490DD
:1018300005900690079006200F90002010901190C0
:10184000102012900020139015901490169017906D
:101850004FF480501890002019904FF480401A9057
:1018600000201B9008A81C9001A81D900FA805F04F
:101870006AFA0121062005F0F1FA322004F0E4FEB4
:1018800001210020FFF709F832200DE0300200109E
:101890008000006C00040240000C02400010024076
:1018A000001402400018024004F0CEFE0020FEF7B3
:1018B000FBFFFE49888008468088FF280ADB08462F
:1018C00080884FF6FF71884204D0F8488088B0F5D0
:1018D000134F7CD1D320FEF7C5FFFEF7D6FFF349A7
:1018E0008880FEF7D2FFF1498880FEF7CEFFEF49EE
:1018F0008880084680884FF6FF7101EA0020EB4996
:101900008880FEF7C2FFE94989880843E749888053
:101910000846808849F24131884258D0BF20FEF7FE
:10192000A1FFFEF7B2FFE1498880FEF7AEFFDF4975
:101930008880FEF7AAFFDD498880FEF7A6FFDB4915
:101940008880084680884FF6FF7101EA0020D74959
:101950008880FEF79AFFD54989880843D349888053
:101960000846808846F6040188427AD0D420FEF7E3
:1019700079FFFEF78AFFCD498880FEF786FFCB49C5
:101980008880FEF782FFC9498880084680884FF624
:10199000FF7101EA0020C5498880FEF776FFC34940
:1019A00089880843C14988800846808845F21031FB
:1019B000884256D04FF45A40FEF754FFFEF765FFB9
:1019C000BA4988804FF45B40FEF74CFF00E048E0E6
:1019D000FEF75BFFB5498880084680884FF6FF71A7
:1019E00001EA0020B14988804FF45C40FEF73AFFDD
:1019F000FEF74BFFAD4989880843AC49888008460B
:101A00008088B0F5004F02D145F210508880A74879
:101A1000808845F21051884223D0A120FEF722FF92
:101A2000FEF733FFA1498880FEF72FFF9F4988808A
:101A3000084680884FF6FF7101EA00209B498880A4
:101A4000FEF723FF9949898808439849888008460A
:101A5000808845F26171884203D141F66310934951
:101A600088809248808849F24131884211D08F485D
:101A7000808845F2103188420BD08C48808845F22E
:101A80001051884205D08948808841F66311884208
:101A90001DD18748006820F00F004FF02041C1F8A9
:101AA0001C010846D0F81C0120F47060C1F81C012C
:101AB0000846D0F81C0140F00300C1F81C0108469C
:101AC000D0F81C0140F40070C1F81C0128E07748F0
:101AD000808846F60401884205D0744880884CF21C
:101AE000055188421CD17248006820F00F004FF069
:101AF0002041C1F81C010846D0F81C0120F4706098
:101B0000C1F81C010846D0F81C0140F00A00C1F8D9
:101B10001C010846D0F81C0140F44060C1F81C01CB
:101B20006248818863A008F0D7FA6048808849F24B
:101B3000413188427ED1CF20FEF794FE0020FEF78F
:101B40009AFEC120FEF797FE3020FEF794FEED20AE
:101B5000FEF788FE6420FEF78EFE0320FEF78BFE64
:101B60001220FEF788FE8120FEF785FEE820FEF7B2
:101B700079FE8520FEF77FFE1020FEF77CFE7A209E
:101B8000FEF779FECB20FEF76DFE3920FEF773FEDF
:101B90002C20FEF770FE0020FEF76DFE3420FEF7CD
:101BA0006AFE0220FEF767FEF720FEF75BFE2020AC
:101BB000FEF761FEEA20FEF755FE0020FEF75BFE11
:101BC0000020FEF758FEC020FEF74CFE1B20FEF75B
:101BD00052FEC120FEF746FE0120FEF74CFEC52056
:101BE000FEF740FE3020FEF746FE3020FEF743FEB3
:101BF000C720FEF737FEB720FEF73DFE3620FEF782
:101C000031FE4820FEF737FE3A20FEF72BFE552026
:101C1000FEF731FEB120FEF725FE0020FEF72BFE79
:101C20001A20FEF728FEB620FEF71CFE0A20FEF75B
:101C300022FE00E0A4E0A220FEF71DFEF220FEF747
:101C400011FE0020FEF717FE2620FEF70BFE0120F6
:101C5000FEF711FEE020FEF705FE0F20FEF70BFE5B
:101C60002A20FEF708FE2820FEF705FE0820FEF7D2
:101C700002FE0E20FEF7FFFD0820FEF7FCFD5420BB
:101C8000FEF7F9FDA920FEF7F6FD4320FEF7F3FD70
:101C90000A20FEF7F0FD0F20FEF7EDFD0020FEF715
:101CA000EAFD0020FEF7E7FD00200BE03002001007
:101CB0001C0100A0204C43442049443A25780D0AD9
:101CC00000000000FEF7D7FD0020FEF7D4FDE12064
:101CD000FEF7C8FD0020FEF7CEFD1520FEF7CBFD78
:101CE0001720FEF7C8FD0720FEF7C5FD1120FEF7FF
:101CF000C2FD0620FEF7BFFD2B20FEF7BCFD5620DF
:101D0000FEF7B9FD3C20FEF7B6FD0520FEF7B3FD5A
:101D10001020FEF7B0FD0F20FEF7ADFD3F20FEF7CF
:101D2000AAFD3F20FEF7A7FD0F20FEF7A4FD2B2004
:101D3000FEF798FD0020FEF79EFD0020FEF79BFDBC
:101D40000120FEF798FD3F20FEF795FD2A20FEF7C3
:101D500089FD0020FEF78FFD0020FEF78CFD00209E
:101D6000FEF789FDEF20FEF786FD1120FEF77AFDD4
:101D7000782004F069FC2920FEF774FD03F01DB9FA
:101D8000FE48808846F6040188427CD11120FEF787
:101D900069FD142004F058FCD020FEF763FD0720F5
:101DA000FEF769FD4220FEF766FD1D20FEF763FD8C
:101DB000D120FEF757FD0020FEF75DFD1A20FEF74B
:101DC0005AFD0920FEF757FDD220FEF74BFD0120FA
:101DD000FEF751FD2220FEF74EFDC020FEF742FD2A
:101DE0001020FEF748FD3B20FEF745FD0020FEF7E2
:101DF00042FD0220FEF73FFD1120FEF73CFDC5200D
:101E0000FEF730FD0320FEF736FDC820FEF72AFD61
:101E10000020FEF730FD2520FEF72DFD2120FEF7E6
:101E20002AFD0520FEF727FD0020FEF724FD0A20ED
:101E3000FEF721FD6520FEF71EFD2520FEF71BFDA8
:101E40007720FEF718FD5020FEF715FD0F20FEF756
:101E500012FD0020FEF70FFDF820FEF703FD012024
:101E6000FEF709FDFE20FEF7FDFC0020FEF703FD56
:101E70000220FEF700FD2020FEF7F4FC3620FEF7DE
:101E8000F1FC082000E02CE0FEF7F5FC3A20FEF71C
:101E9000E9FC5520FEF7EFFC2B20FEF7E3FC0020C9
:101EA000FEF7E9FC0020FEF7E6FC0120FEF7E3FC6C
:101EB0003F20FEF7E0FC2A20FEF7D4FC0020FEF7CE
:101EC000DAFC0020FEF7D7FC0120FEF7D4FCDF206F
:101ED000FEF7D1FC782004F0B7FB2920FEF7C2FC06
:101EE0004CE7A648808845F21031884240F07C8754
:101EF000ED20FEF7B7FC0120FEF7BDFCFE20FEF74B
:101F0000BAFCEE20FEF7AEFCDE20FEF7B4FC21208A
:101F1000FEF7B1FCF120FEF7A5FC0120FEF7ABFCBB
:101F2000DF20FEF79FFC1020FEF7A5FCC420FEF783
:101F300099FC8F20FEF79FFCC620FEF793FC002043
:101F4000FEF799FCE220FEF796FCE220FEF793FCF8
:101F5000E220FEF790FCBF20FEF784FCAA20FEF7EB
:101F60008AFCB020FEF77EFC0D20FEF784FC0020EA
:101F7000FEF781FC0D20FEF77EFC0020FEF77BFCC7
:101F80001120FEF778FC0020FEF775FC1920FEF703
:101F900072FC0020FEF76FFC2120FEF76CFC002095
:101FA000FEF769FC2D20FEF766FC0020FEF763FCBF
:101FB0003D20FEF760FC0020FEF75DFC5D20FEF793
:101FC0005AFC0020FEF757FC5D20FEF754FC002071
:101FD000FEF751FCB120FEF745FC8020FEF74BFCDC
:101FE0000020FEF748FC8B20FEF745FC0020FEF7A2
:101FF00042FC9620FEF73FFC0020FEF73CFCB2209E
:10200000FEF730FC0020FEF736FC0020FEF733FC24
:102010000220FEF730FC0020FEF72DFC0320FEF727
:102020002AFC0020FEF727FCB320FEF71BFC002053
:10203000FEF721FC0020FEF71EFC0020FEF71BFC33
:102040000020FEF718FC0020FEF715FC0020FEF72C
:1020500012FC0020FEF70FFC0020FEF70CFC002015
:10206000FEF709FC0020FEF706FC0020FEF703FC4B
:102070000020FEF700FC0020FEF7FDFB0020FEF72D
:10208000FAFB0020FEF7F7FB0020FEF7F4FB002030
:10209000FEF7F1FB0020FEF7EEFB0020FEF7EBFB66
:1020A0000020FEF7E8FB0020FEF7E5FB0020FEF72E
:1020B000E2FB0020FEF7DFFB0020FEF7DCFBB42094
:1020C000FEF7D0FB8B20FEF7D6FB0020FEF7D3FBFC
:1020D0009620FEF7D0FB0020FEF7CDFBA120FEF7F7
:1020E000CAFB0020FEF7C7FBB520FEF7BBFB0220B2
:1020F000FEF7C1FB0020FEF7BEFB0320FEF7BBFB93
:102100000020FEF7B8FB0420FEF7B5FB0020FEF729
:10211000B2FBB620FEF7A6FB0020FEF7ACFB0020CA
:10212000FEF7A9FBB720FEF79DFB0020FEF7A3FBFF
:102130000020FEF7A0FB3F20FEF79DFB0020FEF7EE
:102140009AFB5E20FEF797FB0020FEF794FB6420CD
:10215000FEF791FB0020FEF78EFB8C20FEF78BFB39
:102160000020FEF788FBAC20FEF785FB0020FEF781
:1021700082FBDC20FEF77FFB002001E03002001034
:10218000FEF779FB7020FEF776FB0020FEF773FB6D
:102190009020FEF770FB0020FEF76DFBEB20FEF7B2
:1021A0006AFB0020FEF767FBDC20FEF764FB0020E3
:1021B000FEF761FBB820FEF755FB0020FEF75BFB46
:1021C0000020FEF758FB0020FEF755FB0020FEF72D
:1021D00052FB0020FEF74FFB0020FEF74CFB0020D7
:1021E000FEF749FB0020FEF746FBBA20FEF73AFB5C
:1021F0002420FEF740FB0020FEF73DFB0020FEF709
:102200003AFB0020FEF737FBC120FEF72BFB202016
:10221000FEF731FB0020FEF72EFB5420FEF72BFBD0
:102220000020FEF728FBFF20FEF725FB0020FEF72D
:1022300022FBC220FEF716FB0A20FEF71CFB002043
:10224000FEF719FB0420FEF716FB0020FEF713FB38
:10225000C320FEF707FB3C20FEF70DFB0020FEF736
:102260000AFB3A20FEF707FB0020FEF704FB3920AB
:10227000FEF701FB0020FEF7FEFA3720FEF7FBFA1F
:102280000020FEF7F8FA3C20FEF7F5FA0020FEF7F2
:10229000F2FA3620FEF7EFFA0020FEF7ECFA3220D1
:1022A000FEF7E9FA0020FEF7E6FA2F20FEF7E3FA40
:1022B0000020FEF7E0FA2C20FEF7DDFA0020FEF702
:1022C000DAFA2920FEF7D7FA0020FEF7D4FA262002
:1022D000FEF7D1FA0020FEF7CEFA2420FEF7CBFA63
:1022E0000020FEF7C8FA2420FEF7C5FA0020FEF70A
:1022F000C2FA2320FEF7BFFA0020FEF7BCFA3C200A
:10230000FEF7B9FA0020FEF7B6FA3620FEF7B3FA68
:102310000020FEF7B0FA3220FEF7ADFA0020FEF7FB
:10232000AAFA2F20FEF7A7FA0020FEF7A4FA2C2025
:10233000FEF7A1FA0020FEF79EFA2920FEF79BFA8D
:102340000020FEF798FA2620FEF795FA0020FEF707
:1023500092FA2420FEF78FFA0020FEF78CFA242050
:10236000FEF789FA0020FEF786FA2320FEF783FAAB
:102370000020FEF780FAC420FEF774FA6220FEF710
:102380007AFA0020FEF777FA0520FEF774FA0020AB
:10239000FEF771FA8420FEF76EFA0020FEF76BFA62
:1023A000F020FEF768FA0020FEF765FA1820FEF725
:1023B00062FA0020FEF75FFAA420FEF75CFA002024
:1023C000FEF759FA1820FEF756FA0020FEF753FAE6
:1023D0005020FEF750FA0020FEF74DFA0C20FEF7D1
:1023E0004AFA0020FEF747FA1720FEF744FA0020C9
:1023F000FEF741FA9520FEF73EFA0020FEF73BFA81
:10240000F320FEF738FA0020FEF735FAE620FEF753
:1024100032FA0020FEF72FFAC520FEF723FA322009
:10242000FEF729FA0020FEF726FA4420FEF723FAE9
:102430000020FEF720FA6520FEF71DFA0020FEF7C7
:102440001AFA7620FEF717FA0020FEF714FA882011
:10245000FEF711FA0020FEF70EFAC620FEF702FA88
:102460002020FEF708FA0020FEF705FA1720FEF7F5
:1024700002FA0020FEF7FFF90120FEF7FCF9002028
:10248000FEF7F9F9C720FEF7EDF90020FEF7F3F9A2
:102490000020FEF7F0F90020FEF7EDF90020FEF72E
:1024A000EAF9C820FEF7DEF90020FEF7E4F9002083
:1024B000FEF7E1F90020FEF7DEF90020FEF7DBF978
:1024C000C920FEF7CFF90020FEF7D5F90020FEF76E
:1024D000D2F90020FEF7CFF90020FEF7CCF900205A
:1024E000FEF7C9F90020FEF7C6F90020FEF7C3F990
:1024F0000020FEF7C0F90020FEF7BDF90020FEF72E
:10250000BAF90020FEF7B7F90020FEF7B4F9002071
:10251000FEF7B1F90020FEF7AEF90020FEF7ABF9A7
:102520000020FEF7A8F9E020FEF79CF91620FEF740
:10253000A2F90020FEF79FF91C20FEF79CF900206D
:10254000FEF799F92120FEF796F90020FEF793F99E
:102550003620FEF790F90020FEF78DF94620FEF7B1
:102560008AF90020FEF787F95220FEF784F900204F
:10257000FEF781F96420FEF77EF90020FEF77BF973
:102580007A20FEF778F90020FEF775F98B20FEF728
:1025900072F90020FEF76FF99920FEF76CF9002020
:1025A000FEF769F9A820FEF766F90020FEF763F947
:1025B000B920FEF760F90020FEF75DF9C420FEF7B0
:1025C0005AF90020FEF757F9CA20FEF754F9002007
:1025D000FEF751F9D220FEF74EF90020FEF74BF935
:1025E000D920FEF748F90020FEF745F9E020FEF774
:1025F00042F90020FEF73FF9F320FEF73CF90020F6
:10260000FEF739F9E120FEF72DF91620FEF733F930
:102610000020FEF730F91C20FEF72DF90020FEF710
:102620002AF92220FEF727F90020FEF724F93620A8
:10263000FEF721F90020FEF71EF94520FEF71BF9F1
:102640000020FEF718F95220FEF715F90020FEF7DA
:1026500012F96420FEF70FF90020FEF70CF97A203A
:10266000FEF709F90020FEF706F98B20FEF703F9C3
:102670000020FEF700F99920FEF7FDF80020FEF794
:10268000FAF8A820FEF7F7F80020FEF7F4F8B920D2
:10269000FEF7F1F80020FEF7EEF8C420FEF7EBF8A5
:1026A0000020FEF7E8F8CA20FEF7E5F80020FEF764
:1026B000E2F8D220FEF7DFF80020FEF7DCF8D820A1
:1026C000FEF7D9F80020FEF7D6F8E020FEF7D3F8A1
:1026D0000020FEF7D0F8F320FEF7CDF80020FEF73B
:1026E000CAF8E220FEF7BEF80520FEF7C4F8002085
:1026F000FEF7C1F80B20FEF7BEF80020FEF7BBF88E
:102700001B20FEF7B8F80020FEF7B5F83420FEF7DE
:10271000B2F80020FEF7AFF84420FEF7ACF8002036
:10272000FEF7A9F84F20FEF7A6F80020FEF7A3F861
:102730006120FEF7A0F80020FEF79DF87920FEF753
:102740009AF80020FEF797F88820FEF794F800200A
:10275000FEF791F89720FEF78EF80020FEF78BF831
:10276000A620FEF788F80020FEF785F8B720FEF7D0
:1027700082F80020FEF77FF8C220FEF77CF80020E8
:10278000FEF779F8C720FEF776F80020FEF773F819
:10279000D120FEF770F80020FEF76DF8D620FEF786
:1027A0006AF80020FEF767F8DD20FEF764F80020E5
:1027B000FEF761F8F320FEF75EF80020FEF75BF805
:1027C000E320FEF74FF80520FEF755F80020FEF74E
:1027D00052F80A20FEF74FF80020FEF74CF81C20B4
:1027E000FEF749F80020FEF746F83320FEF743F8DD
:1027F0000020FEF740F84420FEF73DF80020FEF7E9
:102800003AF85020FEF737F80020FEF734F862203F
:10281000FEF731F80020FEF72EF87820FEF72BF8AF
:102820000020FEF728F88820FEF725F80020FEF7A4
:1028300022F89720FEF71FF80020FEF71CF8A620CC
:10284000FEF719F80020FEF716F8B720FEF713F888
:102850000020FEF710F8C220FEF70DF80020FEF76A
:102860000AF8C720FEF707F80020FEF704F8D12089
:10287000FEF701F80020FDF7FEFFD520FDF7FBFF76
:102880000020FDF7F8FFDD20FDF7F5FF0020FDF744
:10289000F2FFF320FDF7EFFF0020FDF7ECFFE4204F
:1028A000FDF7E0FF0120FDF7E6FF0020FDF7E3FF65
:1028B0000120FDF7E0FF0020FDF7DDFF0220FDF71E
:1028C000DAFF0020FDF7D7FF2A20FDF7D4FF002014
:1028D000FDF7D1FF3C20FDF7CEFF0020FDF7CBFF39
:1028E0004B20FDF7C8FF0020FDF7C5FF5D20FDF779
:1028F000C2FF0020FDF7BFFF7420FDF7BCFF0020E2
:10290000FDF7B9FF8420FDF7B6FF0020FDF7B3FF08
:102910009320FDF7B0FF0020FDF7ADFFA220FDF7EB
:10292000AAFF0020FDF7A7FFB320FDF7A4FF0020BA
:10293000FDF7A1FFBE20FDF79EFF0020FDF79BFFE6
:10294000C420FDF798FF0020FDF795FFCD20FDF78F
:1029500092FF0020FDF78FFFD320FDF78CFF0020B2
:10296000FDF789FFDD20FDF786FF0020FDF783FFDF
:10297000F320FDF780FF0020FDF77DFFE520FDF748
:1029800071FF0020FDF777FF0020FDF774FF0020A6
:10299000FDF771FF0020FDF76EFF0220FDF76BFFD2
:1029A0000020FDF768FF2920FDF765FF0020FDF7F7
:1029B00062FF3C20FDF75FFF0020FDF75CFF4B202E
:1029C000FDF759FF0020FDF756FF5D20FDF753FF8F
:1029D0000020FDF750FF7420FDF74DFF0020FDF7AC
:1029E0004AFF8420FDF747FF0020FDF744FF9320B6
:1029F000FDF741FF0020FDF73EFFA220FDF73BFF62
:102A00000020FDF738FFB320FDF735FF0020FDF76C
:102A100032FFBE20FDF72FFF0020FDF72CFFC42062
:102A2000FDF729FF0020FDF726FFCD20FDF723FF4E
:102A30000020FDF720FFD320FDF71DFF0020FDF74C
:102A40001AFFDC20FDF717FF0020FDF714FFF3202D
:102A5000FDF711FF0020FDF70EFFE620FDF702FF56
:102A60001120FDF708FF0020FDF705FF3420FDF7DA
:102A700002FF0020FDF7FFFE5620FDF7FCFE0020C0
:102A8000FDF7F9FE7620FDF7F6FE0020FDF7F3FED8
:102A90007720FDF7F0FE0020FDF7EDFE6620FDF744
:102AA000EAFE0020FDF7E7FE8820FDF7E4FE0020A7
:102AB000FDF7E1FE9920FDF7DEFE0020FDF7DBFECD
:102AC000BB20FDF7D8FE0020FDF7D5FE9920FDF7CD
:102AD000D2FE0020FDF7CFFE6620FDF7CCFE0020E1
:102AE000FDF7C9FE5520FDF7C6FE0020FDF7C3FE29
:102AF0005520FDF7C0FE0020FDF7BDFE4520FDF787
:102B0000BAFE0020FDF7B7FE4320FDF7B4FE00201B
:102B1000FDF7B1FE4420FDF7AEFE0020FDF7ABFE51
:102B2000E720FDF79FFE3220FDF7A5FE0020FDF710
:102B3000A2FE5520FDF79FFE0020FDF79CFE7620AB
:102B4000FDF799FE0020FDF796FE6620FDF793FE47
:102B50000020FDF790FE6720FDF78DFE0020FDF7B9
:102B60008AFE6720FDF787FE0020FDF784FE8720A0
:102B7000FDF781FE0020FDF77EFE9920FDF77BFE2C
:102B80000020FDF778FEBB20FDF775FE0020FDF765
:102B900072FE9920FDF76FFE0020FDF76CFE772096
:102BA000FDF769FE0020FDF766FE4420FDF763FE99
:102BB0000020FDF760FE5620FDF75DFE0020FDF7CA
:102BC0005AFE2320FDF757FE0020FDF754FE332068
:102BD000FDF751FE0020FDF74EFE4520FDF74BFEB0
:102BE0000020FDF748FEE820FDF73CFE0020FDF741
:102BF00042FE0020FDF73FFE9920FDF73CFE00203D
:102C0000FDF739FE8720FDF736FE0020FDF733FE85
:102C10008820FDF730FE0020FDF72DFE7720FDF720
:102C20002AFE0020FDF727FE6620FDF724FE002087
:102C3000FDF721FE8820FDF71EFE0020FDF71BFE9C
:102C4000AA20FDF718FE0020FDF715FEBB20FDF7BA
:102C500012FE0020FDF70FFE9920FDF70CFE00206C
:102C6000FDF709FE6620FDF706FE0020FDF703FED6
:102C70005520FDF700FE0020FDF7FDFD5520FDF776
:102C8000FAFD0020FDF7F7FD4420FDF7F4FD0020DC
:102C9000FDF7F1FD4420FDF7EEFD0020FDF7EBFD13
:102CA0005520FDF7E8FD0020FDF7E5FDE920FDF7E3
:102CB000D9FDAA20FDF7DFFD0020FDF7DCFD002097
:102CC000FDF7D9FD0020FDF7D6FD0020FDF7CAFD78
:102CD000AA20FDF7D0FDCF20FDF7C4FD0020FDF7B1
:102CE000CAFD0020FDF7C7FD0020FDF7C4FD002050
:102CF000FDF7C1FD0020FDF7BEFD0020FDF7BBFD87
:102D00000020FDF7B8FD0020FDF7B5FD0020FDF720
:102D1000B2FD0020FDF7AFFD0020FDF7ACFD002067
:102D2000FDF7A9FD0020FDF7A6FD0020FDF7A3FD9E
:102D30000020FDF7A0FD0020FDF79DFD0020FDF720
:102D40009AFDF020FDF78EFD0020FDF794FD502048
:102D5000FDF791FD0020FDF78EFD0020FDF78BFDB6
:102D60000020FDF788FDF320FDF77CFD0020FDF736
:102D700082FDF920FDF776FD0620FDF77CFD102091
:102D8000FDF779FD2920FDF776FD0020FDF773FDA5
:102D90003A20FDF767FD5520FDF76DFD1120FDF789
:102DA00061FD642003F050FC2920FDF75BFD352018
:102DB000FDF758FD0020FDF75EFD5120FDF752FDA7
:102DC000FF20FDF758FD5320FDF74CFD2C20FDF7AB
:102DD00052FD5520FDF746FD8220FDF74CFD2C20CD
:102DE000FDF740FD02F0E9B8FE48808845F2105139
:102DF00088427DD155214FF47040FDF74EFDAA2148
:102E00004FF20100FDF749FD52214FF20200FDF79C
:102E100044FD08214FF20300FDF73FFD01214FF271
:102E20000400FDF73AFD0D214FF43040FDF735FD6C
:102E30000D214BF20100FDF730FD0D214BF2020098
:102E4000FDF72BFD34214FF43640FDF726FD3421EC
:102E50004BF20160FDF721FD34214BF20260FDF7DA
:102E60001CFD0D214FF43140FDF717FD0D214BF2F4
:102E70000110FDF712FD0D214BF20210FDF70DFDC3
:102E800034214FF43740FDF708FD34214BF2017037
:102E9000FDF703FD34214BF20270FDF7FEFC00212B
:102EA0004FF43240FDF7F9FC00214BF20120FDF711
:102EB000F4FC00214BF20220FDF7EFFC24214FF43B
:102EC0003840FDF7EAFC24214BF60100FDF7E5FC54
:102ED00024214BF60200FDF7E0FC01214FF43F40B6
:102EE000FDF7DBFC0F214FF43340FDF7D6FC00E08B
:102EF000FDE30F214BF20130FDF7CFFC0F214BF228
:102F00000230FDF7CAFC34214FF43940FDF7C5FC0F
:102F100034214BF60110FDF7C0FC34214BF60210B2
:102F2000FDF7BBFC08214FF43540FDF7B6FC082146
:102F30004BF20150FDF7B1FC08214BF20250FDF7B6
:102F4000ACFC03214FF44240FDF7A7FC24214FF4D1
:102F50003A40FDF7A2FC24214BF60120FDF79DFC31
:102F600024214BF60220FDF798FC00214FF43C4051
:102F7000FDF793FC78214BF60140FDF78EFC002114
:102F80004BF60240FDF789FC00214FF43D40FDF770
:102F900084FC78214BF60150FDF77FFC00214BF6B5
:102FA0000250FDF77AFC00214FF43E40FDF775FC1E
:102FB00064214BF60160FDF770FC00214FF4514095
:102FC000FDF76BFC33214DF20110FDF766FC00218B
:102FD0004DF20210FDF761FC34214DF20310FDF7B4
:102FE0005CFC00214DF20410FDF757FC3A214DF234
:102FF0000510FDF752FC00214DF20610FDF74DFCC7
:103000004A214DF20710FDF748FC00214DF208104F
:10301000FDF743FC5C214DF20910FDF73EFC002159
:103020004DF20A10FDF739FC81214DF20B10FDF72E
:1030300034FC00214DF20C10FDF72FFCA6214DF2BF
:103040000D10FDF72AFC00214DF20E10FDF725FCB6
:10305000E5214DF20F10FDF720FC01214DF210107B
:10306000FDF71BFC13214DF21110FDF716FC012199
:103070004DF21210FDF711FC54214DF21310FDF723
:103080000CFC01214DF21410FDF707FC82214DF2DA
:103090001510FDF702FC01214DF21610FDF7FDFBA6
:1030A000CA214DF21710FDF7F8FB02214DF218105E
:1030B000FDF7F3FB00214DF21910FDF7EEFB0221A5
:1030C0004DF21A10FDF7E9FB01214DF21B10FDF73F
:1030D000E4FB02214DF21C10FDF7DFFB34214DF221
:1030E0001D10FDF7DAFB02214DF21E10FDF7D5FB96
:1030F00067214DF21F10FDF7D0FB02214DF2201089
:10310000FDF7CBFB84214DF22110FDF7C6FB022118
:103110004DF22210FDF7C1FBA4214DF22310FDF763
:10312000BCFB02214DF22410FDF7B7FBB7214DF295
:103130002510FDF7B2FB02214DF22610FDF7ADFB85
:10314000CF214DF22710FDF7A8FB02214DF22810E8
:10315000FDF7A3FBDE214DF22910FDF79EFB0221B6
:103160004DF22A10FDF799FBF2214DF22B10FDF7DD
:1031700094FB02214DF22C10FDF78FFBFE214DF246
:103180002D10FDF78AFB03214DF22E10FDF785FB74
:1031900010214DF22F10FDF780FB03214DF230106E
:1031A000FDF77BFB33214DF23110FDF776FB032158
:1031B0004DF23210FDF771FB6D214DF23310FDF72A
:1031C0006CFB00214FF45240FDF767FB33214DF2B9
:1031D0000120FDF762FB00214DF20220FDF75DFBAF
:1031E000342101E0300200104DF20320FDF755FBC1
:1031F00000214DF20420FDF750FB3A214DF205204D
:10320000FDF74BFB00214DF20620FDF746FB4A215E
:103210004DF20720FDF741FB00214DF20820FDF79C
:103220003CFB5C214DF20920FDF737FB00214DF2FC
:103230000A20FDF732FB81214DF20B20FDF72DFB1B
:1032400000214DF20C20FDF728FBA6214DF20D20A8
:10325000FDF723FB00214DF20E20FDF71EFBE521BB
:103260004DF20F20FDF719FB01214DF21020FDF763
:1032700014FB13214DF21120FDF70FFB01214DF23C
:103280001220FDF70AFB54214DF21320FDF705FB38
:1032900001214DF21420FDF700FB82214DF2152093
:1032A000FDF7FBFA01214DF21620FDF7F6FACA21CF
:1032B0004DF21720FDF7F1FA02214DF21820FDF72B
:1032C000ECFA00214DF21920FDF7E7FA02214DF248
:1032D0001A20FDF7E2FA01214DF21B20FDF7DDFA7D
:1032E00002214DF21C20FDF7D8FA34214DF21D20A9
:1032F000FDF7D3FA02214DF21E20FDF7CEFA672129
:103300004DF21F20FDF7C9FA02214DF22020FDF7F2
:10331000C4FA84214DF22120FDF7BFFA02214DF2BB
:103320002220FDF7BAFAA4214DF22320FDF7B5FAC9
:1033300002214DF22420FDF7B0FAB7214DF22520ED
:10334000FDF7ABFA02214DF22620FDF7A6FACF21B8
:103350004DF22720FDF7A1FA02214DF22820FDF7BA
:103360009CFADE214DF22920FDF797FA02214DF259
:103370002A20FDF792FAF2214DF22B20FDF78DFA6B
:1033800002214DF22C20FDF788FAFE214DF22D206E
:10339000FDF783FA03214DF22E20FDF77EFA10216E
:1033A0004DF22F20FDF779FA03214DF23020FDF781
:1033B00074FA33214DF23120FDF76FFA03214DF2FB
:1033C0003220FDF76AFA6D214DF23320FDF765FAE0
:1033D00000214FF45340FDF760FA33214DF20130E4
:1033E000FDF75BFA00214DF20230FDF756FA342169
:1033F0004DF20330FDF751FA00214DF20430FDF794
:103400004CFA3A214DF20530FDF747FA00214DF212
:103410000630FDF742FA4A214DF20730FDF73DFA3A
:1034200000214DF20830FDF738FA5C214DF20930E9
:10343000FDF733FA00214DF20A30FDF72EFA812113
:103440004DF20B30FDF729FA00214DF20C30FDF75B
:1034500024FAA6214DF20D30FDF71FFA00214DF29E
:103460000E30FDF71AFAE5214DF20F30FDF715FA8F
:1034700001214DF21030FDF710FA13214DF21130F9
:10348000FDF70BFA01214DF21230FDF706FA542137
:103490004DF21330FDF701FA01214DF21430FDF722
:1034A000FCF982214DF21530FDF7F7F901214DF2BB
:1034B0001630FDF7F2F9CA214DF21730FDF7EDF99C
:1034C00002214DF21830FDF7E8F900214DF21930D4
:1034D000FDF7E3F902214DF21A30FDF7DEF9012183
:1034E0004DF21B30FDF7D9F902214DF21C30FDF7EA
:1034F000D4F934214DF21D30FDF7CFF902214DF200
:103500001E30FDF7CAF967214DF21F30FDF7C5F9EE
:1035100002214DF22030FDF7C0F984214DF2213017
:10352000FDF7BBF902214DF22230FDF7B6F9A421D7
:103530004DF22330FDF7B1F902214DF22430FDF7B1
:10354000ACF9B7214DF22530FDF7A7F902214DF274
:103550002630FDF7A2F9CF214DF22730FDF79DF976
:1035600002214DF22830FDF798F9DE214DF2293085
:10357000FDF793F902214DF22A30FDF78EF9F22181
:103580004DF22B30FDF789F902214DF22C30FDF779
:1035900084F9FE214DF22D30FDF77FF903214DF224
:1035A0002E30FDF77AF910214DF22F30FDF775F925
:1035B00003214DF23030FDF770F933214DF23130F7
:1035C000FDF76BF903214DF23230FDF766F96D21FD
:1035D0004DF23330FDF761F900214FF45440FDF70F
:1035E0005CF933214DF20140FDF757F900214DF20E
:1035F0000240FDF752F934214DF20340FDF74DF939
:1036000000214DF20440FDF748F93A214DF2054002
:10361000FDF743F900214DF20640FDF73EF94A213E
:103620004DF20740FDF739F900214DF20840FDF752
:1036300034F95C214DF20940FDF72FF900214DF2DC
:103640000A40FDF72AF981214DF20B40FDF725F9DB
:1036500000214DF20C40FDF720F9A6214DF20D405E
:10366000FDF71BF900214DF20E40FDF716F9E5219B
:103670004DF20F40FDF711F901214DF21040FDF719
:103680000CF913214DF21140FDF707F901214DF21C
:103690001240FDF702F954214DF21340FDF7FDF8F9
:1036A00001214DF21440FDF7F8F882214DF215404A
:1036B000FDF7F3F801214DF21640FDF7EEF8CA21AF
:1036C0004DF21740FDF7E9F802214DF21840FDF7E1
:1036D000E4F800214DF21940FDF7DFF802214DF228
:1036E0001A40FDF7DAF801214DF21B4000E006E335
:1036F000FDF7D3F802214DF21C40FDF7CEF834213E
:103700004DF21D40FDF7C9F802214DF21E40FDF7B4
:10371000C4F867214DF21F40FDF7BFF802214DF2BA
:103720002040FDF7BAF884214DF22140FDF7B5F8AD
:1037300002214DF22240FDF7B0F8A4214DF22340C2
:10374000FDF7ABF802214DF22440FDF7A6F8B721B2
:103750004DF22540FDF7A1F802214DF22640FDF77C
:103760009CF8CF214DF22740FDF797F802214DF24A
:103770002840FDF792F8DE214DF22940FDF78DF843
:1037800002214DF22A40FDF788F8F2214DF22B403C
:10379000FDF783F802214DF22C40FDF77EF8FE2163
:1037A0004DF22D40FDF779F803214DF22E40FDF743
:1037B00074F810214DF22F40FDF76FF803214DF200
:1037C0003040FDF76AF833214DF23140FDF765F8DE
:1037D00003214DF23240FDF760F86D214DF2334088
:1037E000FDF75BF800214FF45540FDF756F8332103
:1037F0004DF20150FDF751F800214DF20250FDF756
:103800004CF834214DF20350FDF747F800214DF2FA
:103810000450FDF742F83A214DF20550FDF73DF80E
:1038200000214DF20650FDF738F84A214DF20750BD
:10383000FDF733F800214DF20850FDF72EF85C211A
:103840004DF20950FDF729F800214DF20A50FDF71D
:1038500024F881214DF20B50FDF71FF800214DF2A5
:103860000C50FDF71AF8A6214DF20D50FDF715F892
:1038700000214DF20E50FDF710F8E5214DF20F50EA
:10388000FDF70BF801214DF21050FDF706F813215A
:103890004DF21150FDF701F801214DF21250FCF7E5
:1038A000FCFF54214DF21350FCF7F7FF01214DF2BC
:1038B0001450FCF7F2FF82214DF21550FCF7EDFF9A
:1038C00001214DF21650FCF7E8FFCA214DF21750C6
:1038D000FCF7E3FF02214DF21850FCF7DEFF002158
:1038E0004DF21950FCF7D9FF02214DF21A50FCF7A6
:1038F000D4FF01214DF21B50FCF7CFFF02214DF206
:103900001C50FCF7CAFF34214DF21D50FCF7C5FFD7
:1039100002214DF21E50FCF7C0FF67214DF21F50EF
:10392000FCF7BBFF02214DF22050FCF7B6FF8421CB
:103930004DF22150FCF7B1FF02214DF22250FCF76D
:10394000ACFFA4214DF22350FCF7A7FF02214DF25A
:103950002450FCF7A2FFB7214DF22550FCF79DFF44
:1039600002214DF22650FCF798FFCF214DF227504F
:10397000FCF793FF02214DF22850FCF78EFFDE2169
:103980004DF22950FCF789FF02214DF22A50FCF735
:1039900084FFF2214DF22B50FCF77FFF02214DF204
:1039A0002C50FCF77AFFFE214DF22D50FCF775FFED
:1039B00003214DF22E50FCF770FF10214DF22F50D5
:1039C000FCF76BFF03214DF23050FCF766FF33210B
:1039D0004DF23150FCF761FF03214DF23250FCF7FC
:1039E0005CFF6D214DF23350FCF757FF00214FF47F
:1039F0005640FCF752FF33214DF20160FCF74DFFBA
:103A000000214DF20260FCF748FF34214DF20360C3
:103A1000FCF743FF00214DF20460FCF73EFF3A2122
:103A20004DF20560FCF739FF00214DF20660FCF70E
:103A300034FF4A214DF20760FCF72FFF00214DF2C1
:103A40000860FCF72AFF5C214DF20960FCF725FFB6
:103A500000214DF20A60FCF720FF81214DF20B603E
:103A6000FCF71BFF00214DF20C60FCF716FFA621AE
:103A70004DF20D60FCF711FF00214DF20E60FCF7D6
:103A80000CFFE5214DF20F60FCF707FF01214DF21D
:103A90001060FCF702FF13214DF21160FCF7FDFEF0
:103AA00001214DF21260FCF7F8FE54214DF2136033
:103AB000FCF7F3FE01214DF21460FCF7EEFE8221CB
:103AC0004DF21560FCF7E9FE01214DF21660FCF79E
:103AD000E4FECA214DF21760FCF7DFFE02214DF231
:103AE0001860FCF7DAFE00214DF21960FCF7D5FEF4
:103AF00002214DF21A60FCF7D0FE01214DF21B604D
:103B0000FCF7CBFE02214DF21C60FCF7C6FE34210F
:103B10004DF21D60FCF7C1FE02214DF21E60FCF764
:103B2000BCFE67214DF21F60FCF7B7FE02214DF28B
:103B30002060FCF7B2FE84214DF22160FCF7ADFE5F
:103B400002214DF22260FCF7A8FEA4214DF2236071
:103B5000FCF7A3FE02214DF22460FCF79EFEB72184
:103B60004DF22560FCF799FE02214DF22660FCF72C
:103B700094FECF214DF22760FCF78FFE02214DF21B
:103B80002860FCF78AFEDE214DF22960FCF785FEF5
:103B900002214DF22A60FCF780FEF2214DF22B60EB
:103BA000FCF77BFE02214DF22C60FCF776FEFE2135
:103BB0004DF22D60FCF771FE03214DF22E60FCF7F3
:103BC0006CFE10214DF22F60FCF767FE03214DF2D1
:103BD0003060FCF762FE33214DF23160FCF75DFE90
:103BE00003214DF23260FCF758FE6D214DF2336037
:103BF000FCF753FE55214FF47040FCF74EFEAA210E
:103C00004FF20100FCF749FE52214FF20200FCF78F
:103C100044FE08214FF20300FCF73FFE00214FF263
:103C20000400FCF73AFECC214FF43140FCF735FE9E
:103C300000214BF20110FCF730FE05214FF4364015
:103C4000FCF72BFE70214FF43740FCF726FE702165
:103C50004BF20170FCF721FE01214FF43840FCF7D4
:103C60001CFE03214BF60100FCF717FE03214BF667
:103C70000200FCF712FE03214BF60300FCF70DFED9
:103C800002214FF43C40FCF708FE00214BF60140B6
:103C9000FCF703FE00214BF60240FCF7FEFDD021AD
:103CA0004FF44940FCF7F9FD02214CF60110FCF7F6
:103CB000F4FD50214CF60210FCF7EFFD50214CF6BC
:103CC0000310FCF7EAFD50214CF60410FCF7E5FD6B
:103CD00000214FF45450FCF7E0FD55214FF468509B
:103CE000FCF7DBFD4FF48850FCF7BCFD782002F0B8
:103CF00063FC4FF42450FCF7B5FD01F05EB9FE48BB
:103D0000808849F2253188427ED147F6F001E520CE
:103D1000FCF7C3FD4FF480710120FCF7BEFD4FF4AA
:103D2000E0610220FCF7B9FD41F230010320FCF70D
:103D3000B4FD00210420FCF7B0FD40F20221082070
:103D4000FCF7ABFD00210920FCF7A7FD00210A20AC
:103D5000FCF7A3FD00210C20FCF79FFD00210D20A6
:103D6000FCF79BFD00210F20FCF797FD00211020A0
:103D7000FCF793FD07211120FCF78FFD0021122095
:103D8000FCF78BFD00211320FCF787FD00210720A5
:103D9000FCF783FD41F290611020FCF77EFD40F2BC
:103DA00027211120FCF779FD9D211220FCF775FDDC
:103DB0004FF4C8511320FCF770FD25212920FCF792
:103DC0006CFD0D212B20FCF768FD07213020FCF74E
:103DD00064FD40F203313120FCF75FFD0321322006
:103DE000FCF75BFD40F206213520FCF756FD08216B
:103DF0003620FCF752FD40F206413720FCF74DFD1E
:103E00004FF44171382000E057E0FCF746FD0721F0
:103E10003920FCF742FD40F202613C20FCF73DFDF9
:103E200008213D20FCF739FD00215020FCF735FD2D
:103E3000EF215120FCF731FD00215220FCF72DFD30
:103E400040F23F115320FCF728FD4FF4274160203A
:103E5000FCF723FD01216120FCF71FFD00216A20F2
:103E6000FCF71BFD00218020FCF717FD00218120BD
:103E7000FCF713FD00218220FCF70FFD00218320B9
:103E8000FCF70BFD00218420FCF707FD00218520B5
:103E9000FCF703FD10219020FCF7FFFC4FF4C061FC
:103EA0009220FCF7FAFC40F233110720FCF7F5FCF6
:103EB00022210020FCF7F1FC1FE78F48808849F29F
:103EC000283188427ED141F28F01EC20FCF7E5FCDD
:103ED00041F23421EF20FCF7E0FC4FF48071012027
:103EE000FCF7DBFC4FF4E0610220FCF7D6FC41F26A
:103EF00030010320FCF7D1FC00210420FCF7CDFCAD
:103F000040F202210820FCF7C8FC00210920FCF740
:103F1000C4FC00210A20FCF7C0FC01210C20FCF7A6
:103F2000BCFC00210D20FCF7B8FC00210F20FCF7A1
:103F3000B4FC00211020FCF7B0FC07211120FCF795
:103F4000ACFC00211220FCF7A8FC00211320FCF798
:103F5000A4FC01210720FCF7A0FC322002F074FB36
:103F600041F290411020FCF798FC40F227211120EB
:103F7000FCF793FC322002F067FB8A211220FCF749
:103F80008CFC322002F060FB4FF4D0511320FCF780
:103F900084FC06212920FCF780FC0D212B20FCF756
:103FA0007CFC322002F050FB00212020FCF775FC45
:103FB00000212120FCF771FC322002F045FB00219A
:103FC000302000E074E0FCF768FC40F2046131202E
:103FD000FCF763FC40F205313220FCF75EFC002167
:103FE0003520FCF75AFC40F609413620FCF755FC19
:103FF0004FF401713720FCF750FC40F201313820BA
:10400000FCF74BFC40F207713920FCF746FC00211D
:104010003C20FCF742FC40F60A213D20FCF73DFC29
:10402000322002F011FB00215020FCF736FCEF217A
:104030005120FCF732FC00215220FCF72EFC40F20C
:104040003F115320FCF729FC4FF427416020FCF777
:1040500024FC01216120FCF720FC00216A20FCF7F0
:104060001CFC00218020FCF718FC00218120FCF7BB
:1040700014FC00218220FCF710FC00218320FCF7B7
:104080000CFC00218420FCF708FC00218520FCF7B3
:1040900004FC10219020FCF700FC4FF4C06192203A
:1040A000FCF7FBFB40F233110720FCF7F6FB24E69C
:1040B0001148808849F2203188427DD1002108468C
:1040C000FCF7EBFB4FF480710120FCF7E6FB4FF4AB
:1040D000E0610220FCF7E1FB41F230010320FCF734
:1040E000DCFB00210420FCF7D8FB40F20221082071
:1040F000FCF7D3FB002101E0300200100920FCF79F
:10410000CCFB00210A20FCF7C8FB01210C20FCF7A6
:10411000C4FB00210D20FCF7C0FB00210F20FCF7A1
:10412000BCFB322002F090FA40F201110720FCF7AC
:10413000B4FB322002F088FA4FF486511020FCF7CD
:10414000ACFB07211120FCF7A8FB4FF4887112206B
:10415000FCF7A3FB4FF430611320FCF79EFB00211A
:104160002920FCF79AFB44F210012B20FCF795FB69
:1041700000215020FCF791FBEF215120FCF78DFB33
:1041800000215220FCF789FB40F23F115320FCF73D
:1041900084FB4FF41C516020FCF77FFB0121612060
:1041A000FCF77BFB00216A20FCF777FB00218020D5
:1041B000FCF773FB002100E031E08120FCF76DFB90
:1041C00000218220FCF769FB00218320FCF765FBBE
:1041D00000218420FCF761FB00218520FCF75DFBBA
:1041E00010219020FCF759FB00219220FCF755FB91
:1041F00001219320FCF751FB4FF488719520FCF7C7
:104200004CFB00219720FCF748FB00219820FCF78D
:1042100044FB40F273110720FCF73FFB6DE5FE48BD
:10422000808849F2313188427DD141F21401E72082
:10423000FCF733FB4FF480710120FCF72EFB4FF4A9
:1042400000710220FCF729FB41F238010320FCF742
:1042500024FB40F202210820FCF71FFB002109206B
:10426000FCF71BFB00210A20FCF717FB00210C20A8
:10427000FCF713FB00210D20FCF70FFB00210F20A2
:10428000FCF70BFB00211020FCF707FB0721112096
:10429000FCF703FB00211220FCF7FFFA002113209A
:1042A000FCF7FBFAC82002F0CFF941F29061102030
:1042B000FCF7F3FA40F227211120FCF7EEFA322046
:1042C00002F0C2F90C211220FCF7E7FA322002F0CA
:1042D000BBF94FF400611320FCF7DFFA112129200C
:1042E000FCF7DBFA0B212B20FCF7D7FA322002F087
:1042F000ABF900212020FCF7D0FA40F23F11212039
:10430000FCF7CBFA00213020FCF7C7FA4FF4837199
:104310003120FCF7C2FA00213220FCF7BEFA4FF43C
:104320000171352000E064E0FCF7B7FA41F20A6160
:104330003620FCF7B2FA40F207713720FCF7ADFAED
:104340004FF483713820FCF7A8FA40F20771392046
:10435000FCF7A3FA40F202413C20FCF79EFA40F63B
:104360000F413D20FCF799FA00215020FCF795FA07
:10437000EF215120FCF791FA00215220FCF78DFA31
:1043800040F23F115320FCF788FA4FF41C51602093
:10439000FCF783FA01216120FCF77FFA00216A20F3
:1043A000FCF77BFA00218020FCF777FA00218120BE
:1043B000FCF773FA00218220FCF76FFA00218320BA
:1043C000FCF76BFA00218420FCF767FA00218520B6
:1043D000FCF763FA10219020FCF75FFA4FF4C061FC
:1043E0009220FCF75AFA40F233110720FCF755FAF5
:1043F00083E48948808845F2084188427ED14FF4A1
:1044000080710120FCF749FA4FF4E0610220FCF7CB
:1044100044FA41F230010320FCF73FFA0021042066
:10442000FCF73BFA40F207210820FCF736FA00219E
:104430000920FCF732FA00210A20FCF72EFA0021AD
:104440000C20FCF72AFA00210D20FCF726FA0021A7
:104450000F20FCF722FA142002F0F6F841F2B061C6
:104460001020FCF71AFA01211120FCF716FA01219D
:104470001720FCF712FA4FF49C711220FCF70DFA8A
:104480004FF400611320FCF708FA09212920FCF7FA
:1044900004FA09212A20FCF700FA0021A420FCF7E5
:1044A000FCF900215020FCF7F8F9EF215120FCF72E
:1044B000F4F900215220FCF7F0F940F23F115320AB
:1044C000FCF7EBF94FF41C516020FCF7E6F90121F1
:1044D0006120FCF7E2F900216A20FCF7DEF90021F7
:1044E0008020FCF7DAF900218120FCF7D6F90021C1
:1044F0008220FCF7D2F90021832000E023E0FCF7C2
:10450000CCF900218420FCF7C8F900218520FCF7B4
:10451000C4F913219020FCF7C0F900219220FCF788
:10452000BCF903219320FCF7B8F94FF4887195206A
:10453000FCF7B3F940F273110720FCF7AEF9322013
:1045400002F082F8B8E43448808841F2055188428C
:104550007ED100210720FCF7A0F9322002F074F888
:104560004FF48E711220FCF798F90121A420FCF77A
:1045700094F90F210820FCF790F908210A20FCF794
:104580008CF908210D20FCF788F940F207713020E2
:10459000FCF783F907213120FCF77FF940F2036132
:1045A0003220FCF77AF94FF4E0613320FCF775F91B
:1045B00040F202213420FCF770F902213520FCF78B
:1045C0006CF941F60F713620FCF767F940F207717C
:1045D0003720FCF762F900213820FCF75EF9002152
:1045E0003920FCF75AF940F207713A20FCF755F9E7
:1045F00000213B20FCF751F907213C20FCF74DF945
:1046000000213D20FCF749F9322002F01DF801217C
:104610000720FCF742F901E03002001001211720C9
:10462000FCF73BF9322002F00FF84FF4BD51102097
:10463000FCF733F940F217211120FCF72EF94FF463
:104640008F711220FCF729F94FF47061132000E0FC
:1046500097E0FCF722F900212A20FCF71EF90A2135
:104660002920FCF71AF94FF49F711220FCF715F975
:1046700000215020FCF711F9EF215120FCF70DF932
:1046800000215220FCF709F940F23F115320FCF7BA
:1046900004F94FF41C516020FCF7FFF80121612060
:1046A000FCF7FBF800216A20FCF7F7F800218020D6
:1046B000FCF7F3F800218120FCF7EFF800218220BD
:1046C000FCF7EBF800218320FCF7E7F800218420B9
:1046D000FCF7E3F800218520FCF7DFF81321902098
:1046E000FCF7DBF84FF440719220FCF7D6F8052177
:1046F0009320FCF7D2F800219520FCF7CEF800219A
:104700009720FCF7CAF800219820FCF7C6F84FF470
:1047100080710120FCF7C1F84FF4E0610220FCF742
:10472000BCF841F238010320FCF7B7F8002104205F
:10473000FCF7B3F800210C20FCF7AFF800210F20A4
:10474000FCF7ABF800212020FCF7A7F8002121207E
:10475000FCF7A3F821210720FCF79FF8142001F0B3
:1047600073FF61210720FCF798F8142001F06CFF1B
:1047700040F273110720FCF790F8142001F064FF59
:1047800095E4FE4880884BF2055188427ED1002195
:104790000846FCF782F800210846FCF77EF8002165
:1047A0000846FCF77AF800210846FCF776F8012164
:1047B000A420FCF772F8142001F046FF4FF41C51BE
:1047C0006020FCF76AF840F202210820FCF765F847
:1047D0004FF405713020FCF760F843F21571312079
:1047E000FCF75BF840F204613220FCF756F840F623
:1047F00016613320FCF751F842F211213420FCF706
:104800004CF84FF4A8513520FCF747F848F207510F
:104810003620FCF742F841F207413720FCF73DF81B
:1048200041F203413820FCF738F820213920FCF709
:1048300034F81A219020FCF730F800211020FCF702
:104840002CF807211120FCF728F800211220FCF792
:1048500024F800211320FCF720F8142001F0F4FEC6
:104860004FF4E6611020FCF718F840F237111120E0
:10487000FCF713F8142001F0E7FE4FF4DC7112206E
:10488000FCF70BF8142001F0DFFE00E083E04FF4AA
:1048900070611320FCF701F880212A20FBF7FDFF4F
:1048A00048212920FBF7F9FF142001F0CDFE4FF439
:1048B00080710120FBF7F1FF4FF4E0610220FBF76C
:1048C000ECFF41F238010320FBF7E7FF40F2022141
:1048D0000820FBF7E2FF00210A20FBF7DEFF0021A2
:1048E0000C20FBF7DAFF00210D20FBF7D6FF30216B
:1048F0000E20FBF7D2FF00215020FBF7CEFFEF2167
:104900005120FBF7CAFF00215220FBF7C6FF40F2FF
:104910003F115320FBF7C1FF4FF41C516020FBF700
:10492000BCFF01216120FBF7B8FF00216A20FBF7E3
:10493000B4FF11219020FBF7B0FF4FF4C06192202B
:10494000FBF7ABFF40F202419320FBF7A6FF0221E9
:104950009420FBF7A2FF142001F076FE012107202E
:10496000FBF79BFF142001F06FFE61210720FBF78E
:1049700094FF40F273110720FBF78FFF00212020E6
:10498000FBF78BFF00212120FBF787FF222100206E
:10499000FBF783FF11E3794880884CF20551884288
:1049A0007ED100210846FBF778FF00210846FBF77F
:1049B00074FF142001F048FE00210846FBF76DFF4C
:1049C00000210846FBF769FF00210846FBF765FF59
:1049D00000210846FBF761FF0121A420FBF75DFFE2
:1049E000142001F031FE4FF41C516020FBF755FFFD
:1049F00040F606010820FBF750FF40F2037130201B
:104A0000FBF74BFF01213120FBF747FF0421322048
:104A1000FBF743FF4FF481713320FBF73EFF4FF468
:104A200040713420FBF739FF40F203113520FBF7CA
:104A300034FF1F213620FBF730FF40F2037137208F
:104A4000FBF72BFF01213820FBF727FF042139203A
:104A5000FBF723FF15219020FBF71FFF4FF4826126
:104A60001020FBF71AFF40F247211120FBF715FF3A
:104A70004FF4DE711220FBF710FF4FF4606113203A
:104A8000FBF70BFF782001F0DFFD4FF48071012070
:104A9000FBF703FF4FF400710220FBF7FEFE00E07E
:104AA00050E041F230010320FBF7F7FE08210A2015
:104AB000FBF7F3FE00210C20FBF7EFFE20210E2078
:104AC000FBF7EBFE00210F20FBF7E7FE0021202083
:104AD000FBF7E3FE00212120FBF7DFFE3D212A202A
:104AE000FBF7DBFE142001F0AFFD2D212920FBF7A1
:104AF000D4FE00215020FBF7D0FE4DF2EF015120F3
:104B0000FBF7CBFE00215220FBF7C7FE40F23F111E
:104B10005320FBF7C2FE00216120FBF7BEFE0021FF
:104B20006A20FBF7BAFE4FF440719220FBF7B5FE06
:104B300005219320FBF7B1FE4FF480710720FBF7AE
:104B4000ACFE3AE20D48808844F2315188427CD173
:104B500001210020FBF7A1FE0A2001F075FD41F2C2
:104B600028611020FBF799FE0E211220FBF795FE1D
:104B700040F639211320FBF790FE01E030020010CF
:104B80000A2001F061FD40211120FBF786FE502133
:104B90001520FBF782FE0A2001F056FD1E2112208F
:104BA000FBF77BFE0A2001F04FFD4FF4B1511020BE
:104BB000FBF773FE42F639211320FBF76EFE0A2045
:104BC00001F042FD4FF480710120FBF766FE4FF4C7
:104BD00040710220FBF761FE41F238010320FBF730
:104BE0005CFE40F202210820FBF757FE08210A2054
:104BF000FBF753FE00213020FBF74FFE40F202414D
:104C00003120FBF74AFE4FF483713220FBF745FE5B
:104C100040F203513320FBF740FE4FF48271342001
:104C2000FBF73BFE40F201313520FBF736FE40F248
:104C300007713620FBF731FE40F205313720FBF7D4
:104C40002CFE4FF40271382000E040E0FBF725FE17
:104C500040F60B713920FBF720FE02214120FBF7C3
:104C60001CFE4FF41C516020FBF717FE0121612050
:104C7000FBF713FE4FF404719020FBF70EFE4FF488
:104C800085719220FBF709FE04219320FBF705FEB6
:104C90004FF48071A020FBF700FE01210720FBF7F5
:104CA000FCFD21210720FBF7F8FD23210720FBF75E
:104CB000F4FD33210720FBF7F0FD40F2331107200C
:104CC000FBF7EBFD0021A020FBF7E7FD75E1F848BD
:104CD000808844F2355188427ED130211520FBF77F
:104CE000DCFD10219A20FBF7D8FD20211120FBF7D5
:104CF000D4FD43F228411020FBF7CFFD0221122002
:104D0000FBF7CBFD41F238011320FBF7C6FD28204D
:104D100001F09AFC12210846FBF7BFFD282001F0A4
:104D200093FC43F220411020FBF7B7FD43F238011A
:104D30001320FBF7B2FD462001F086FC0021302055
:104D4000FBF7ABFD40F202413120FBF7A6FD40F23C
:104D500007313220FBF7A1FD4FF441713320FBF7FF
:104D60009CFD04213420FBF798FD40F201413520E1
:104D7000FBF793FD40F207713620FBF78EFD40F202
:104D800005313720FBF789FD4FF4C2613820FBF76E
:104D900084FD4FF4C2613920FBF77FFD4FF4807131
:104DA0000120FBF77AFD4FF440710220FBF775FDFF
:104DB00041F230010320FBF770FD40F608010820A6
:104DC000FBF76BFD08210A20FBF767FD4FF41C5130
:104DD0006020FBF762FD00E031E001216120FBF77C
:104DE0005CFD4FF49F719020FBF757FD4FF48071ED
:104DF0009220FBF752FD4FF480719320FBF74DFD9D
:104E00004FF44051A020FBF748FD1021A320FBF7F1
:104E100044FD01210720FBF740FD21210720FBF77E
:104E20003CFD23210720FBF738FD33210720FBF74A
:104E300034FD40F233110720FBF72FFDBDE09C4805
:104E4000808841F663118842F8D1E220FBF70AFD21
:104E50001D20FBF710FD0220FBF70DFD0420FBF7E2
:104E60000AFD642001F0A8FBE020FBF7FBFC012019
:104E7000FBF701FD0A2001F0E7FBE020FBF7F2FC65
:104E80000320FBF7F8FC0C2001F0DEFB0120FBF710
:104E9000E9FC0A2001F0D8FBE620FBF7E3FC2F2019
:104EA000FBF7E9FCFF20FBF7E6FCFF20FBF7E3FC48
:104EB000B020FBF7D7FC2020FBF7DDFC0020FBF740
:104EC000DAFC0320FBF7D7FC40F21F30FBF7D3FCE2
:104ED0000120FBF7D0FC40F2DF10FBF7CCFC0020F8
:104EE000FBF7C9FCB420FBF7BDFC0420FBF7C3FCB7
:104EF00040F21F40FBF7BFFC0020FBF7BCFC2E205C
:104F0000FBF7B9FC0020FBF7B6FC0020FBF7B3FC75
:104F10000020FBF7B0FC0020FBF7ADFCB620FBF750
:104F2000A1FC0220FBF7A7FC4FF40370FBF7A3FCE6
:104F30000020FBF7A0FC1720FBF79DFC1520FBF7DA
:104F40009AFC0020FBF797FC0020FBF794FCF02074
:104F5000FBF788FC0320FBF78EFC2920FBF782FC83
:104F6000D020FBF77FFC0020FBF785FCBE20FBF781
:104F700079FC0520FBF77FFCFE20FBF77CFC012081
:104F8000FBF779FC0020FBF776FC0020FBF773FCB5
:104F90000020FBF770FCB820FBF764FC0320FBF754
:104FA0006AFC0120FBF767FCBA20FBF75BFC0120E1
:104FB000FBF761FC6420FCF70CF90020FCF735F9E5
:104FC00001203C4908604FF6FF70FCF71DFB21B043
:104FD00000BD2DE9FC4F05460E4617469846DDF804
:104FE0002C90002001903248808846F604018842C7
:104FF00029D12F488079012825D1AB4635462C4848
:105000000088C01B401E86B2474629480088A0EB96
:105010000B00401E1FFA80F80020254988712A20C5
:1050200048812B20888143463A4631462846CDF8B0
:105030000090FFF7CEFF01201D4988712B20488189
:105040002A2088811DE0781B401C80B201903446E4
:1050500015E021462846FBF74FFCFBF730FC4FF0EC
:10506000000A07E04FF0D840A0F880900AF1010054
:105070001FFA80FA01988245F4DB601C84B2444533
:10508000E7DDBDE8FC8F2DE9F84F07460D46904659
:105090009946DDF828B0A8EB0700401C1FFA80FAFB
:1050A000A9EB0500401C80B20090002419E000002C
:1050B00030020010BC824042281981B23846FBF70A
:1050C0001BFCFBF7FCFB002607E004FB0A603BF837
:1050D0001000F8490880701C86B25645F5DB601C4C
:1050E00084B200988442E7DBBDE8F88F2DE9FF4FDA
:1050F00084B081468A460020039002900698A0EB77
:1051000009050798A0EB0A06CDF80490CDF800A099
:10511000002D01DD012705E00DB9002702E04FF069
:10512000FF376D42002E02DD4FF0010806E016B990
:105130004FF0000802E04FF0FF387642B54201DD43
:105140002C4600E034464FF0000B21E0009A91B26B
:10515000019A90B2FBF76DFF0398284403900298E0
:10516000304402900398A04205DD0398001B039091
:105170000198384401900298A04205DD0298001B76
:1051800002900098404400900BF101001FFA80FB50
:10519000601C8345DADD08B0BDE8F08FF0B5044649
:1051A0000D4616461F462B46324629462046FFF737
:1051B0009DFF3B46224629462046FFF797FF3B4688
:1051C000324639462046FFF791FF3B463246294694
:1051D0003046FFF78BFFF0BD2DE9F04306460F4642
:1051E0009046002445460320A0EB48093CE07A1B8A
:1051F00091B2321990B2FBF71CFF3A1B91B27219AF
:1052000090B2FBF716FF3A1991B2721990B2FBF700
:1052100010FF7A1991B2321990B2FBF70AFF7A198E
:1052200091B2321B90B2FBF704FF3A1991B2721B94
:1052300090B2FBF7FEFE7A1B91B2321B90B2FBF7E5
:10524000F8FE3A1B91B2721B90B2FBF7F2FE641C9F
:10525000B9F1000F03DAA000801D814404E0601B57
:1052600080000A3081446D1EAC42C0DDBDE8F08391
:105270002DE9F84F80460E4617461C46B346204699
:10528000E31704EB5373DB1021464FEAE47C04EB95
:105290005C7C4FEAEC0CA4EBCC0CBCF1000F02D010
:1052A0004FF0010C01E04FF0000C6344224604EB88
:1052B000D27C4FEA6C0C03FB0CF3DBB20093A7F13A
:1052C0002000C7B2002556E00C2C07D107EB4700A1
:1052D000794901EB800010F8059013E0102C05D1FE
:1052E000764800EB071010F805900BE0182C07D15A
:1052F00007EBC700724901EB800010F8059001E050
:10530000BDE8F88F4FF0000A2FE009F0800030B1BF
:105310006C48028831464046FBF799FE07E00A9840
:1053200028B96948028831464046FBF790FE4FEAAB
:1053300049604FEA1069701C86B264484088B042E8
:1053400000DCDDE7A6EB0B00A0420AD15E4608F1C7
:1053500001001FFA80F85D480088404500DCCFE777
:1053600006E00AF1010000F0FF0ABAF1080FCCDBF9
:1053700000BF681CC5B200988542A5DB00BFBFE72F
:1053800010B50246012000E050430B1EA1F10104BC
:10539000E1B2F9D110BD2DE9FF4F81B0074691462A
:1053A0001E460E9D4FF0000A002439E0301B401EBF
:1053B000C1B20A20FFF7E4FFB9FBF0F00A21B0FB0D
:1053C000F1F201FB1208BAF1000F16D1701EA042D3
:1053D00013DDB8F1000F0ED10020AB4605EBDB71F9
:1053E000491001FB0471009088B22B4620220299DB
:1053F000FFF73EFF12E04FF0010A0020AB4605EB3D
:10540000DB71491001FB0471009088B208F1300192
:10541000CAB22B460299FFF72BFF00BF601CC4B233
:10542000B442C3DB05B0BDE8F08F2DE9FF4F82B079
:10543000064692461F46DDE90F48002001900025F0
:105440005CE0781B401EC1B20A20FFF799FFBAFB4F
:10545000F0F00A21B0FBF1F201FB1209019840BB08
:10546000781EA84236DDB9F1000F31D108F0800076
:1054700078B108F00100A34604EBDB71491001FB91
:105480000561009088B2234630220399FFF7F0FEB1
:105490000EE008F00100A34604EBDB71491001FBAC
:1054A0000561009088B2234620220399FFF7E0FEB1
:1054B00022E00FE08000006C26A800089AAC0008EB
:1054C0008AB200085400001056000010300200108C
:1054D0000120019008F00100A34604EBDB714910A4
:1054E00001FB0561009088B209F13001CAB2234680
:1054F0000399FFF7BDFE00BF681CC5B2BD42A0DB2B
:1055000006B0BDE8F08F2DE9F84704460D469046F9
:105510009946DDE9096704F0FF0A08EB04001FFA69
:1055200080F809EB05001FFA80F916E0444502DB1C
:105530005446A81985B24D4500DB14E000200090C8
:105540003A78334629462046FFF792FE304606EB6E
:10555000D07104EB61018CB27F1C38787E2802DCAC
:1055600038782028E2DA00BFBDE8F8871CB50121B1
:10557000112002F05FFA1C20009000208DF804003A
:1055800003208DF8050001208DF807006946354895
:1055900001F0FAFA0120009002208DF80700694618
:1055A000314801F0F1FA1CBD10B5044614B10120D8
:1055B0002E4908702D480078002837D0102129483E
:1055C00001F044FB78B10821264801F03FFB50B1BF
:1055D0000421244801F03AFB28B10121224801F0BE
:1055E00035FB012822D10A2001F02EF800201F49A6
:1055F000087010211B4801F029FB08B9012010BDDB
:105600000821184801F022FB08B90220F7E704211D
:10561000144801F01BFB08B90320F0E701211248F0
:1056200001F014FB01281BD10420E8E710210D48EC
:1056300001F00CFB012813D108210A4801F006FBF8
:1056400001280DD10421074801F000FB012807D1F2
:105650000121054801F0FAFA10B901200349087048
:105660000020CCE70010024000000240580000106B
:1056700010B5012001F0F1F901280ED101F0F9F97E
:105680009648006808B9012000E0002093490860AE
:1056900093480078401C9249087010BDF0B58FB057
:1056A00004460D4616461F460121880502F0C2F940
:1056B0008C4801F011FE00BF8A4801F036FF002837
:1056C000FAD14FF0007000908748019002940020BA
:1056D00003900495059006974FF480500790089624
:1056E0000011099040020A9004200B9003200C90B6
:1056F00000200D900E9069467A4801F08FFE0FB0A1
:10570000F0BD0EB50121172002F094F901210846E1
:1057100002F0A1F95020019002208DF8080000202D
:105720008DF80A0003208DF8090001208DF80B0088
:1057300001A96E4801F028FAC020019001A96C4827
:1057400001F022FA4FF43C60019001A9694801F090
:105750001BFA6020019001A9674801F015FA0D229B
:105760000421624801F09BFA0D2206215F4801F0F6
:1057700096FA0D2207215E4801F091FA0D220621CA
:105780005C4801F08CFA0D2207215A4801F087FA93
:105790000D220821574801F082FA0D2209215548AF
:1057A00001F07DFA0D220B21524801F078FA0D220A
:1057B00006214F4801F073FA0D2205214E4801F0F1
:1057C0006EFA0D2206214C4801F069FA01F090F8BA
:1057D00000204A49088048818881088120208880EB
:1057E00000204880C880084601F08EF80121084654
:1057F00001F00AF9012001F0E6F84E208DF80000D2
:1058000000208DF801008DF8020001208DF80300C2
:10581000684601F002F80EBD10B500210846FBF7FE
:105820006BF8FBF74CF801212E4801F031FE012006
:1058300001F0D8F810BD10B5002001F0D3F800BF7A
:1058400029482838006800F001000028F8D100211C
:10585000244801F01DFE10BD2DE9F04106460F461B
:1058600014461D46FFF7E7FF4FF6FF70FBF7CCFE2F
:105870002B46224639463046FBF7B5FD29462046E1
:1058800000F064FA00210846FBF736F8FBF717F83A
:105890000121144801F0FCFD012001F0A3F8BDE84E
:1058A000F08170B504460E46154601F021F800203F
:1058B0001249088048818881B00108816001888090
:1058C00000204880E801C880084601F01DF801204A
:1058D00001F088F8012001F076F870BDA8824242FC
:1058E00059000010286402402800055000000240C2
:1058F0000004024000080240001002403E02001076
:105900007CB500250121402002F094F84FF40240BC
:10591000009001208DF8040000208DF80600022080
:105920008DF8050001208DF807006946F94801F05F
:105930002BF90020F84908600A2000F085FE0020BD
:10594000F649C1F8BC020A2000F07EFE0120F249AF
:105950001831086000F0C4FA0121FF2000F0AEFB0E
:105960008021122000F0AAFB322000F06DFE1C20E6
:1059700000F0C3FB04464FF6FF7000EA04241D202C
:1059800000F0BBFB044347F6A270844205D02146D9
:10599000E3A004F0A1FB01207CBD0A2000F0ADFBD8
:1059A00004464FF6FF7000EA04240B2000F0A5FB2C
:1059B000044342F24260844203D02146DBA004F05B
:1059C0008BFB00250AE0DC4A02EB45025178DA4AFB
:1059D00012F8150000F072FB681C85B2B22DF2D3EC
:1059E0000020D9E710B5002400BF0AE0D34A02EB3B
:1059F00044025178D14A12F8140000F05FFB601C99
:105A000084B2082CF2D300240AE0CD4A02EB44020F
:105A10005178CB4A12F8140000F050FB601C84B29D
:105A2000072CF2D310BD10B5002400BF0AE0C54A10
:105A300002EB44025178C34A12F8140000F03EFB16
:105A4000601C84B20E2CF2D310BD70B50546BE4862
:105A500000EBC506002409E0012202EB4402B15C20
:105A600016F8140000F02AFB601CC4B2042CF3DB0F
:105A700070BD2DE9F04104465E254126542734B11E
:105A8000022C0ED0032C10D0042C16D111E00021D2
:105A9000FF2000F013FB1021C72000F00FFBBDE832
:105AA000F081652541264F2707E0522541266627CC
:105AB00003E042253F26712700BF00BF0021FF20E1
:105AC00000F0FCFA4021C72000F0F8FA2946CC206B
:105AD00000F0F4FA3146CD2000F0F0FA3946CE203D
