:020000040800F2
:10000000600400209D010008C9040008C104000824
:10001000C504000811020008230A000800000000BF
:10002000000000000000000000000000850600083D
:10003000150200080000000059050008B507000877
:10004000B7010008B7010008B7010008B7010008B0
:10005000B7010008B701000819020008B70100083D
:100060005902000899020008D9020008B7010008E7
:10007000B7010008B7010008B7010008B701000880
:10008000B7010008B7010008B7010008B701000870
:10009000B7010008B7010008B7010008B701000860
:1000A000B7010008B7010008B7010008B701000850
:1000B000B7010008B7010008B7010008B701000840
:1000C000B7010008B7010008B7010008B701000830
:1000D000B701000821080008B7010008B7010008AF
:1000E000B7010008B7010008B7010008B701000810
:1000F000B7010008B7010008B7010008B701000800
:10010000B7010008B7010008B7010008B7010008EF
:10011000B7010008B7010008B7010008B7010008DF
:10012000B7010008B7010008B7010008B7010008CF
:10013000B7010008B7010008B7010008B7010008BF
:10014000B7010008B7010008B7010008B7010008AF
:10015000B7010008B7010008B7010008B70100089F
:10016000B7010008B7010008B7010008B70100088F
:10017000B7010008B7010008B7010008B70100087F
:10018000B7010008B7010008DFF80CD000F02EF826
:1001900000480047491000086004002006488047D6
:1001A00006480047FEE7FEE7FEE7FEE7FEE7FEE75C
:1001B000FEE7FEE7FEE7FEE7B90700088901000851
:1001C00030B50B46014600202022012409E021FA27
:1001D00002F59D4205D303FA02F5491B04FA02F524
:1001E0002844151EA2F10102F1DC30BD064C074D7A
:1001F00006E0E06840F0010394E8070098471034F7
:10020000AC42F6D3FFF7C4FFB4130008D4130008C0
:1002100000BFFEE77047000010B5012000F082F833
:10022000012814D10A48006828B90120084908604B
:100230000849086008E006480068012804D1002049
:100240000349086003490860012000F065F810BD0B
:100250002C0000201C00002010B5042000F062F8E3
:10026000012814D10A48006828B90120084908600B
:100270000849086008E006480068012804D1002009
:100280000349086003490860042000F045F810BDE8
:10029000300000202000002010B5082000F042F8B7
:1002A000012814D10A48006828B9012008490860CB
:1002B0000849086008E006480068012804D10020C9
:1002C0000349086003490860082000F025F810BDC4
:1002D000340000202400002010B5102000F022F887
:1002E000012811D10A48006828B90120084908608E
:1002F0000849086008E006480068012804D1002089
:100300000349086003490860102000F005F810BD9B
:1003100038000020280000200149086070470000D4
:10032000143C014001460020034A12680A400AB109
:10033000012000E000207047143C014000212349C7
:100340008279002A3AD00A46126803689A430B461B
:100350001A600A1D126803689A430B1D1A6002791D
:1003600011440A6803681A430A60184A083212687E
:1003700003689A43154B08331A601A1D1268036804
:100380009A43124B0C331A604279102A0ED11A1F6D
:10039000126803681A430D4B08331A601A1D12685D
:1003A00003681A43094B0C331A600DE00749427980
:1003B00011440A6803681A430A6005E0027911448F
:1003C0000A6803689A430A6070470000003C0140D5
:1003D000F0B50A4600210023002400BF3DE00125BE
:1003E00005FA01F3156805EA03049C4234D1056857
:1003F0004F000326BE40B543056015794E00B54059
:100400000668354305601579012D02D01579022D56
:1004100016D185684F000326BE40B54385605579E7
:100420004E00B540866835438560456801268E409C
:10043000B5434560456896798E40B6B23543456010
:10044000C5684F000326BE40B543C560D5794E0050
:10045000B540C6683543C560491C1029BFD3F0BDFF
:10046000F0B5002300244D07ED0E02FA05F3CE107F
:1004700000F1200555F826504E07F70E0F26BE4016
:10048000B543CF1000F1200646F82750CE1000F1FA
:10049000200555F8265045EA0304CE1000F120054A
:1004A00045F82640F0BD0246002013690B400BB111
:1004B000012000E0002070474183704701837047AE
:1004C00000BFFEE700BFFEE77047000070B50021E7
:1004D00000230F22C4781CB3174C246804F4E06492
:1004E000C4F5E064C4F30721C1F10404E3B20A4196
:1004F00044789C40E1B28478144021430C07210EDB
:100500000E4C05786155047804F01F050124AC40B9
:1005100005786D11AD0005F1E025C5F8004109E051
:10052000047804F01F050124AC40054D06787611CF
:1005300045F8264070BD00000CED00E000E400E04E
:1005400080E100E002490143024A11607047000067
:100550000000FA050CED00E07047000029B1064AE2
:1005600012680243044B1A6004E0034A1268824393
:10057000014B1A60704700003038024029B1064A2A
:1005800012680243044B1A6004E0034A1268824373
:10059000014B1A607047000044380240F0B500215A
:1005A00000220024022500260223324F3F6807F074
:1005B0000C0121B1042905D0082937D105E02E4FBF
:1005C000076036E02D4F076033E02A4F3F1F3F683A
:1005D000C7F38056274F3F1F3F6807F03F036EB1B8
:1005E000264FB7FBF3F7DFF88CC0ACF1040CDCF856
:1005F00000C0CCF3881C07FB0CF40CE01E4FB7FBCB
:10060000F3F7DFF870C0ACF1040CDCF800C0CCF3F9
:10061000881C07FB0CF4174F3F1F3F68C7F30147C7
:100620007F1C7D00B4FBF5F7076002E0124F076006
:1006300000BF00BF0F4F3F6807F0F0010909104FDE
:100640007A5C0768D74047600A4F3F6807F4E0517B
:10065000890A0B4F7A5C4768D7408760054F3F682F
:1006600007F46041490B064F7A5C4768D740C76082
:10067000F0BD0000083802400024F40000127A00A7
:100680003C0000207047000030B500228B071C0F93
:100690000F2303FA04F20B4B8C1053F824309343CE
:1006A000084C8D1044F8253023468C1053F8243024
:1006B0008C07240F00FA04F42343024C8D1044F8F5
:1006C000253030BD083801400CB500200190009065
:1006D0003448006840F480303249086000BF314837
:1006E000006800F4003000900198401C01900098D0
:1006F00018B90198B0F5A04FF1D12A48006800F46C
:10070000003010B10120009001E00020009000981E
:10071000012846D123484030006840F080502149EC
:10072000403108602048006840F440401E4908609D
:100730001C48083000681B490831086008460068FA
:1007400040F4004008600846006840F4A05008608B
:100750001648091F0860081F006840F08070091FD4
:10076000086000BF0F48006800F000700028F9D052
:1007700040F205700E4908600A480830006820F011
:1007800003000849083108600846006840F002008C
:10079000086000BF03480830006800F00C0008281B
:1007A000F8D10CBD003802400070004008544007EA
:1007B000003C02407047000010B51548006840F446
:1007C0007000134908601348006840F001001149A7
:1007D000086000200F49083108600E4800680E4983
:1007E00008400C4908600D48091D0860081F006892
:1007F00020F48020091F0860002006490C310860A1
:10080000FFF762FF4FF0006001498039086010BDBA
:1008100088ED00E000380240FFFFF6FE10300024B3
:1008200010B540F22551084800F038F8012809D1E8
:10083000054800F0EDF8044640F22551024800F06A
:1008400005F800BF10BD00000010014010B50022E7
:10085000002340F66A14A14200D100BF0A1201240D
:100860009440A3B2DC43048010BD21B1828942F4DC
:100870000052828104E082894DF6FF731A40828122
:10088000704702460020B1F5007F00D100BF1388F9
:100890000B400BB1012000E00020704770B502460C
:1008A000002400230025002040F66A16B14200D142
:1008B00000BFC1F3421501F01F03012606FA03F33E
:1008C000012D02D19689334006E0022D02D1168A0D
:1008D000334001E0968A33400C12012606FA04F4F4
:1008E0001688344013B10CB1012000E0002070BD27
:1008F000F0B50346002400260025002040F66A17C4
:10090000B94200D100BF1846C1F3421401F01F06DE
:10091000012707FA06F5012C01D10C3004E0022C66
:1009200001D1103000E014301AB107682F4307607E
:1009300002E00768AF430760F0BD00002DE9FF4704
:1009400005460E460024A14600BFA046B08900B16E
:1009500000BF2C8A24F44054F08804432C82AC89D4
:1009600041F20C608443B08831890843718908439F
:100970000443AC81AC8A24F44074B0890443AC8253
:100980006846FFF70BFE2048854202D01F4885428B
:1009900002D1DDF80C9001E0DDF80890A88900F4A0
:1009A000004040B109EBC90000EB09103168490073
:1009B000B0FBF1F707E009EBC90000EB0910316863
:1009C0008900B0FBF1F76420B7FBF0F004012009C7
:1009D000642101FB1078A88900F4004040B1322066
:1009E00000EBC800B0FBF1F000F00700044308E0A2
:1009F000322000EB08106421B0FBF1F000F00F0092
:100A000004432C81BDE8FF87001001400014014021
:100A100001468888C0F308007047C1F3080282804D
:100A2000704700BFFEE700000FB4054B10B503A9E7
:100A3000044A029800F018F810BC5DF814FB00009E
:100A4000E90E00084C00002002E008C8121F08C18F
:100A5000002AFAD170477047002001E001C1121F3F
:100A6000002AFBD1704700002DE9FF4F89B09B465B
:100A70000446002506E025280BD05A460B999047DE
:100A8000641C6D1C20780028F5D10DB02846BDE807
:100A9000F08F0027B8460122474900E0074314F8C9
:100AA000013F203B02FA03F00842F7D120782E28BC
:100AB00019D114F8010F47F004072A280ED06FF05F
:100AC0002F022078A0F1300109290CD808EB880109
:100AD00002EB410100EB0108641CF2E70A98641C78
:100AE00050F8048B0A9020780028CED0642808D0D3
:100AF000692806D075281ED05A460B9990476D1C60
:100B000058E00A994FF00A0901C90A91002802DA4F
:100B100040422D2102E0390504D52B218DF820100B
:100B2000012103E0F90704D02021F7E78A4608AE47
:100B30000DE00021FAE70A994FF00A0901C90A916C
:100B4000F7E74946FFF73CFB303106F8011D002866
:100B5000F7D1ADEB060000F12009780701D44FF082
:100B60000108C84502DDA8EB090000E0002080462E
:100B7000002706E008A85A46C05D0B9990476D1CF7
:100B80007F1C5745F6DB04E030205A460B9990470E
:100B90006D1CB8F10001A8F10108F5DC05E016F8BC
:100BA000010B5A460B9990476D1CB9F10001A9F150
:100BB0000109F4DC641C65E70928010010B5012077
:100BC00009490871002088714FF480700860012085
:100BD000C871032048710548FFF7FAFB4FF4807194
:100BE0000248FFF769FC10BD00000020001402401D
:100BF00000B5034603E04FF47A7000F005F8181EC4
:100C0000A3F10103F7D100BD00214FF0E0221161F3
:100C1000C0EBC00101EB41010122C2EBC1014FF069
:100C2000E0225161002191610521116100BF4FF067
:100C3000E021096901F480310029F8D000214FF04A
:100C4000E0221161704700001CB500200090019067
:100C5000684600F0E5F870B99DF8020000280ADD4A
:100C60009DF80200322806DA9DF803209DF8021054
:100C700036A0FFF7D9FE9DF80000142865DD9DF829
:100C800000005A2861DA9DF801209DF8001033A079
:100C9000FFF7CAFE9DF800003C2805DA4FF400710A
:100CA0003248FFF709FC50E09DF800003C284CDD7D
:100CB0004FF400712D48FFF7FFFB4FF480612B4884
:100CC000FFF7FAFB9DF8000046280EDD4FF4007197
:100CD0002648FFF7F1FB4FF480612448FFF7ECFB57
:100CE0004FF400512248FFF7E7FB9DF80000502821
:100CF0002BDD4FF400711D48FFF7DEFB4FF48061E0
:100D00001A48FFF7D9FB4FF400511948FFF7D4FBFD
:100D10004FF480411648FFF7CFFB4FF4FA70FFF70E
:100D200067FF4FF400711148FFF7C8FB4FF4806173
:100D30000E48FFF7C3FB4FF400510D48FFF7BEFB11
:100D40004FF480410A48FFF7B9FB1CBD74656D7014
:100D50003D25642E25640D0A0000000068756D694C
:100D60003D25642E25640D0A000000000014024099
:100D70000010024010B54FF40070064908600020D2
:100D80000871032048710020C8710348FFF720FB59
:100D900010BD0000000000200018024010B54FF404
:100DA0000070074908600120087100208871032045
:100DB00048710120C8710348FFF70AFB10BD00000D
:100DC000000000200018024070B50025002400BF7C
:100DD0001FE000BF4FF400711048FFF764FB0028CC
:100DE000F8D02820FFF710FF4FF400710B48FFF7F1
:100DF0005AFB68B1C4F10701012088402843C5B2FD
:100E000000BF4FF400710548FFF74DFB0028F8D1F3
:100E1000641C082CDDD3284670BD00000018024079
:100E200070B504460025002600BF00F01DF801281B
:100E3000FBD0002503E0FFF7C7FF60556D1C052DB3
:100E4000F9D36420FFF7E0FE207861780844A178A8
:100E50000844E1780844C6B22079B04201D00120AC
:100E600070BD0020FCE7000010B50024FFF796FFDE
:100E70004FF400711B48FFF71FFB1420FFF7B8FE6B
:100E80004FF400711748FFF719FB1E20FFF7BCFE57
:100E9000FFF770FF00BF0AE04FF400711148FFF741
:100EA00002FB00B906E0641C0120FFF7ADFEB4F5BB
:100EB0007A7FF1D300BFB4F57A7F01D3012010BD52
:100EC00000BF4FF400710748FFF7EDFA0028F8D093
:100ED00000BF4FF400710348FFF7E5FA0028F8D18E
:100EE00000BFECE70018024070B504460D46A1B201
:100EF0000548FFF792FD00BF80210348FFF7C1FCC2
:100F00000028F9D0204670BD0010014010B5002126
:100F10000846FFF7B9FB02210420FFF7B5FB0321C8
:100F20000420FFF7B1FB04210846FFF7ADFB0120C9
:100F30001D4908600020087108204871012088714F
:100F40000846FFF7FBF91C20174908600846FFF721
:100F5000F5F90620154908700020487001208870B6
:100F6000C8700846FFF7B2FA082010490870002040
:100F70004870022088700846FFF7A8FA09200B493C
:100F8000087000204870032088700846FFF79EFA1A
:100F90000A2006490870002048700320887008461F
:100FA000FFF794FA10BD0000080000201000002098
:100FB00010B500200849087101200860C8718871C7
:100FC000022048710548FFF703FA1C200249086017
:100FD0000348FFF7FDF910BD0000002000000240AB
:100FE0000010024010B501201449087188714FF4B7
:100FF000C06008600020C871022048711048FFF7E7
:10100000E7F94FF4C0400D4908600E48FFF7E0F9DA
:101010004FF400710A48FFF751FA4FF48061084815
:10102000FFF74CFA4FF400510648FFF747FA4FF428
:1010300080410448FFF742FA10BD00000000002084
:10104000001402400010024001212020FFF786FA20
:1010500001211020FFF782FA01210846FFF77EFAEE
:1010600001210220FFF77AFA01214020FFF776FAEA
:1010700001218803FFF782FA01211020FFF77EFA91
:101080004FF4A060FFF75EFAFFF7ACFFFFF790FFA9
:10109000FFF794FDFFF73AFF4FF4E13000F038F925
:1010A00000F0FEF826A000F01DF948E0284800688E
:1010B00001282BD127480068012840D12648006824
:1010C000012802D100F050F839E0244800680128D6
:1010D00002D1FFF7B9FD32E04FF480712048FFF7ED
:1010E000EBF94FF400711E48FFF7E8F94FF4806107
:1010F0001B48FFF7E3F94FF400511A48FFF7DEF9F8
:101100004FF480411748FFF7D9F918E04FF4807188
:101110001348FFF7D1F94FF400711148FFF7CEF9EA
:101120004FF480610E48FFF7C9F94FF400510D48A4
:10113000FFF7C4F94FF480410A48FFF7BFF9B5E75C
:101140006172636F62616C656E6F0D0A0000000072
:101150002800002024000020200000201C00002087
:10116000001402400010024010B500F071F804466F
:10117000142C61D3B4F57A6F5ED221462FA0FFF70D
:1011800053FC142C12D3322C10D24FF480712F4800
:10119000FFF794F96420FFF72BFD4FF480712B4883
:1011A000FFF78AF96420FFF723FD45E0322C15D3C1
:1011B000B4F5FA7F12D24FF480712448FFF77EF91C
:1011C0004FF49670FFF714FD4FF480711F48FFF73E
:1011D00073F94FF49670FFF70BFD2DE0B4F5FA7F2D
:1011E00015D3B4F57A7F12D24FF480711748FFF708
:1011F00065F94FF4FA70FFF7FBFC4FF48071134868
:10120000FFF75AF94FF4FA70FFF7F2FC14E0B4F567
:101210007A7F11D34FF480710C48FFF74FF94FF4E8
:101220007A70FFF7E5FC4FF480710848FFF744F946
:101230004FF47A70FFF7DCFC002410BD646973740E
:10124000616E63653D25646D6D0D0A0000140240FA
:1012500010B5002440211048FFF730F91420FFF7A3
:10126000D3FC40210C48FFF727F900BF40210B4871
:10127000FFF719F90028F9D003E00820FFF7C4FCB4
:10128000641C40210548FFF70EF90028F5D16408D9
:1012900004EB440010BD00000004024000100240B6
:1012A00010B540200C4908600120087100208871A9
:1012B000032048710020C8710848FFF789F84020D2
:1012C00005490860002008710548FFF781F84021B2
:1012D0000248FFF7F1F810BD0000002000040240B2
:1012E0000010024010B504460BE014F8011B07483B
:1012F000FFF793FB00BF80210448FFF7C2FA0028E4
:10130000F9D014B120780028EFD110BD00100140B1
:1013100010B50446072209212148FFF7A1F807224A
:101320000A211F48FFF79CF84FF4C0601D49086070
:10133000022008714871002088710120C871184886
:10134000FFF746F818480460002017498880C880D5
:10135000088188810C2048811448FFF7EFFA0121A9
:101360001248FFF782FA012240F225510F48FFF799
:10137000BFFA25200E4908700320487088700120AC
:10138000C8700846FFF7A2F801210848FFF76DFA78
:10139000012240F225510548FFF7AAFA10BD0000CE
:1013A000000002400000002050000020001001401A
:1013B00010000020D413000800000020500000009E
:1013C000480A0008241400085000002010040000FF
:1013D000580A0008000000000000000000000000A3
:1013E00000000000000000000000000000000000FD
:1013F00000000000000000000000000000000000ED
:1014000000000000000000000000000000000000DC
:10141000000000000102030401020304060708099A
:0414200000000000C8
:040000050800018965
:00000001FF
