:020000040800F2
:100000009007002031020008DD050008D505000832
:10001000D9050008F5040008230B000800000000C3
:100020000000000000000000000000009907000828
:10003000F9040008000000006D06000889080008A7
:100040004B0200084B0200084B0200084B0200085C
:100050004B0200084B0200084B0200084B0200084C
:100060004B0200084B0200084B0200084B0200083C
:100070004B0200084B0200084B0200084B0200082C
:100080004B0200084B0200084B0200084B0200081C
:100090004B0200084B0200084B0200084B0200080C
:1000A0004B0200084B0200084B0200084B020008FC
:1000B0004B0200084B0200084B0200084B020008EC
:1000C0004B0200084B0200084B0200084B020008DC
:1000D0004B020008110900084B0200084B020008FF
:1000E0004B0200084B0200084B0200084B020008BC
:1000F0004B0200084B0200084B0200084B020008AC
:100100004B0200084B0200084B0200084B0200089B
:100110004B0200084B0200084B0200084B0200088B
:100120004B0200084B0200084B0200084B0200087B
:100130004B0200084B0200084B0200084B0200086B
:100140004B0200084B0200084B0200084B0200085B
:100150004B0200084B0200084B0200084B0200084B
:100160004B0200084B0200084B0200084B0200083B
:100170004B0200084B0200084B0200084B0200082B
:100180004B0200084B02000800F002F800F041F8B2
:100190000AA090E8000C82448344AAF10107DA45E2
:1001A00001D100F036F8AFF2090EBAE80F0013F0F3
:1001B000010F18BFFB1A43F0010318473C0C000065
:1001C0005C0C0000103A24BF78C878C1FAD85207F6
:1001D00024BF30C830C144BF04680C6070470000C1
:1001E0000023002400250026103A28BF78C1FBD840
:1001F000520728BF30C148BF0B607047732900F019
:10020000EC80002070471FB500F0F0FD1FBD10B559
:1002100010BD00F03DF91146FFF7F5FF00F022FD9B
:1002200000F05BF903B4FFF7F2FF03BC00F07BFCC6
:100230000948804709480047FEE7FEE7FEE7FEE77A
:10024000FEE7FEE7FEE7FEE7FEE7FEE704480549B6
:10025000054A064B70470000910800088901000814
:1002600090010020900700209003002090030020C0
:10027000704700000FB4044910B503AA029800F0BB
:10028000B1F810BC5DF814FB180000202DE9F04116
:100290000E460446002020622046E168884730B3BD
:1002A000252805D0D4E901219047206A401CF2E7B7
:1002B000E168204600278847050018D0A5F14100D5
:1002C000192802D820354FF40067324629462046C7
:1002D0002760FFF793FF40B1012804D0F61D26F0F8
:1002E00007060836D8E7361DD6E72846DAE7206A3B
:1002F000BDE8F08170B50C460546012A05D0287886
:10030000800600D5EA69002302E0012305E05B1CBA
:10031000934202D2E05C0028F9D1A869E618C01A1D
:10032000A861286A184428622846AFF3008004E0D8
:10033000D5E9012114F8010B9047B442F8D32846BF
:10034000AFF3008070BD30B505460B462A4613F862
:10035000014B12F8010B08B1A042F8D01CB10028E3
:1003600002D06D1CF1E7284630BD4FF00002042991
:10037000C0F0128010F0030C00F04880CCF1040CA7
:10038000BCF1020F18BF00F8012BA8BF20F8022B08
:10039000A1EB0C0100F03AB85FEAC17C24BF00F881
:1003A000012B00F8012B48BF00F8012B7047704764
:1003B00070477047704710B5436913B1AFF30080C1
:1003C00001E0FFF797FF012010BD127800F1240132
:1003D0000A7000224A700122EDE711684FF0FF32E7
:1003E000E9E70000074B70B50D467B4400F039F893
:1003F0000446284600F048F810B14FF0FF3070BDB9
:10040000204670BDA30700004FF0000200B5134660
:1004100094469646203922BFA0E80C50A0E80C5024
:10042000B1F12001BFF4F7AF090728BFA0E80C50D5
:1004300048BF0CC05DF804EB890028BF40F8042BCE
:1004400008BF704748BF20F8022B11F0804F18BF3B
:1004500000F8012B7047000001694A1C026108780E
:10046000704700B58FB0CDE90131002105910549F4
:100470007944CDE9031011466846FFF707FF0FB036
:1004800000BD0000E5FFFFFF007B00F0800070472B
:10049000754600F02BF8AE4605006946534620F03D
:1004A0000700854618B020B5FFF7D0FEBDE8204014
:1004B0004FF000064FF000074FF000084FF0000B20
:1004C00021F00701AC46ACE8C009ACE8C009ACE8D3
:1004D000C009ACE8C0098D46704710B50446AFF3BB
:1004E00000802046BDE81040FFF79CBE00487047E2
:1004F0002C01002000BFFEE77047F0B50A4600213E
:100500000023002400BF3DE0012505FA01F3156832
:1005100005EA03049C4234D105684F000326BE401F
:10052000B543056015794E00B54006683543056052
:100530001579012D02D01579022D16D185684F004D
:100540000326BE40B543856055794E00B5408668A8
:1005500035438560456801268E40B5434560456852
:1005600096798E40B6B235434560C5684F00032684
:10057000BE40B543C560D5794E00B540C668354329
:10058000C560491C1029BFD3F0BDF0B5002300247D
:100590004D07ED0E02FA05F3CE1000F1200555F8D7
:1005A00026504E07F70E0F26BE40B543CF1000F180
:1005B000200646F82750CE1000F1200555F82650A9
:1005C00045EA0304CE1000F1200545F82640F0BDB1
:1005D0000183704700BFFEE700BFFEE770470000E1
:1005E00070B5002100230F22C4781CB3174C246877
:1005F00004F4E064C4F5E064C4F30721C1F1040429
:10060000E3B20A4144789C40E1B28478144021432B
:100610000C07210E0E4C05786155047804F01F0577
:100620000124AC4005786D11AD0005F1E025C5F859
:10063000004109E0047804F01F050124AC40054D99
:100640000678761145F8264070BD00000CED00E0FC
:1006500000E400E080E100E002490143024A116049
:10066000704700000000FA050CED00E07047000044
:1006700029B1064A12680243044B1A6004E0034A97
:1006800012688243014B1A60704700003038024004
:1006900029B1064A12680243044B1A6004E0034A77
:1006A00012688243014B1A607047000044380240D0
:1006B000F0B5002100220024022500260223324F3B
:1006C0003F6807F00C0121B1042905D0082937D172
:1006D00005E02E4F076036E02D4F076033E02A4FCC
:1006E0003F1F3F68C7F38056274F3F1F3F6807F003
:1006F0003F036EB1264FB7FBF3F7DFF88CC0ACF1C8
:10070000040CDCF800C0CCF3881C07FB0CF40CE0F4
:100710001E4FB7FBF3F7DFF870C0ACF1040CDCF848
:1007200000C0CCF3881C07FB0CF4174F3F1F3F6839
:10073000C7F301477F1C7D00B4FBF5F7076002E0BB
:10074000124F076000BF00BF0F4F3F6807F0F00176
:100750000909104F7A5C0768D74047600A4F3F6825
:1007600007F4E051890A0B4F7A5C4768D7408760ED
:10077000054F3F6807F46041490B064F7A5C4768B4
:10078000D740C760F0BD0000083802400024F400E4
:1007900000127A0003000020704700000CB5002012
:1007A000019000903448006840F48030324908607D
:1007B00000BF3148006800F4003000900198401CF0
:1007C0000190009818B90198B0F5A04FF1D12A48CE
:1007D000006800F4003010B10120009001E000201A
:1007E00000900098012846D123484030006840F02E
:1007F00080502149403108602048006840F4404062
:100800001E4908601C48083000681B490831086010
:100810000846006840F4004008600846006840F45C
:10082000A05008601648091F0860081F006840F0C3
:100830008070091F086000BF0F48006800F000705A
:100840000028F9D040F205700E4908600A480830C7
:10085000006820F003000849083108600846006875
:1008600040F00200086000BF03480830006800F054
:100870000C000828F8D10CBD003802400070004080
:1008800008544007003C024010B500F035F810BD98
:1008900010B51548006840F470001349086013480B
:1008A000006840F001001149086000200F4908313C
:1008B00008600E4800680E4908400C4908600D4861
:1008C000091D0860081F006820F48020091F0860C7
:1008D000002006490C310860FFF760FF4FF0006010
:1008E00001498039086010BD88ED00E00038024001
:1008F000FFFFF6FE103000240448006820B10348D2
:100900000068401E01490860704700001400002084
:1009100010B540F22551184800F044F850B317487C
:10092000007838BB144800F0F7F8154908700846FD
:1009300000781449144A1278885413480078401CEF
:10094000114908700846007802280CDB0846007838
:10095000801E0C49085C0D2805D10B480078401E0C
:10096000085C0A2803D008480078FF2802D101203B
:100970000249087010BD0000001001400200002074
:10098000000000201C0000200100002021B182890D
:1009900042F40052828104E082894DF6FF731A40CE
:1009A0008281704770B50246002400230025002094
:1009B00040F66A16B14200D100BFC1F3421501F002
:1009C0001F03012606FA03F3012D02D19689334055
:1009D00006E0022D02D1168A334001E0968A3340A8
:1009E0000C12012606FA04F41688344013B10CB137
:1009F000012000E0002070BDF0B503460024002671
:100A00000025002040F66A17B94200D100BF184601
:100A1000C1F3421401F01F06012707FA06F5012C65
:100A200001D10C3004E0022C01D1103000E0143070
:100A30001AB107682F43076002E00768AF430760F9
:100A4000F0BD00002DE9FF4705460E460024A146F3
:100A500000BFA046B08900B100BF2C8A24F44054E6
:100A6000F08804432C82AC8941F20C608443B08846
:100A700031890843718908430443AC81AC8A24F46A
:100A80004074B0890443AC826846FFF711FE2048E9
:100A9000854202D01F48854202D1DDF80C9001E06A
:100AA000DDF80890A88900F4004040B109EBC900C6
:100AB00000EB091031684900B0FBF1F707E009EBE2
:100AC000C90000EB091031688900B0FBF1F7642020
:100AD000B7FBF0F004012009642101FB1078A8891C
:100AE00000F4004040B1322000EBC800B0FBF1F050
:100AF00000F00700044308E0322000EB08106421F6
:100B0000B0FBF1F000F00F0004432C81BDE8FF873B
:100B1000001001400014014001468888C0F308001D
:100B2000704700BFFEE700BF7047000070B5154872
:100B3000FFF7BEFD1348406842F21072B0FBF2F1BD
:100B4000481EB0F1807F00D31BE0481E4FF0E0222A
:100B5000506150170F22002807DA13071D0E0A4BA9
:100B600000F00F04241F1D5503E013071C0E074B54
:100B70001C5400BF00204FF0E0229061072010615C
:100B800000BF70BD1C01002018ED00E000E400E093
:100B900000BF054A128802F04002002AF9D0C2B212
:100BA000014B9A8070470000001001401CB50121E4
:100BB0001120FFF75DFD0120009000208DF804005A
:100BC0008DF8070069460548FFF797FC1C20009048
:100BD00069460348FFF791FC1CBD0000000002407D
:100BE000001002401CB501213020FFF741FD4FF4F9
:100BF000C060009001208DF804008DF806008DF88B
:100C0000070002208DF8050069461448FFF775FCBF
:100C10004FF4C040009069461148FFF76EFC4FF456
:100C20008070009000208DF8060069460B48FFF7A1
:100C300064FC4FF400710948FFF7CAFC4FF480616F
:100C40000648FFF7C5FC4FF400510548FFF7C0FC0C
:100C50004FF480410248FFF7BBFC1CBD001402406A
:100C600000100240FFF762FF4FF4A060FFF7F4FCB2
:100C7000FFF7B8FFFFF79AFF00F058F81CA0FFF746
:100C8000F9FA33E01C48007801282FD11B4800787E
:100C900000282BD019491AA0FFF7ECFA1AA117481F
:100CA000FFF751FB18B100201949086014E019A1A1
:100CB0001248FFF748FB18B10120154908600BE006
:100CC00016A10E48FFF73FFB30B11148006880F0D5
:100CD00001001449C1F8A4024FF480710748FFF7DE
:100CE00044FB00201049087003490870CAE700005F
:100CF00053746172740D0A00020000201C00002071
:100D0000726563763A2573006C6564306F6E00001F
:100D1000A48242426C6564306F6666006C65643024
:100D20006F627600008042420100002000B587B06B
:100D300001210846FFF79CFC01211020FFF7A8FCC9
:100D400007220A212748FFF720FC0722092125480E
:100D5000FFF71BFC02208DF8040003208DF805002E
:100D600000208DF8060001208DF807004002009059
:100D700069461C48FFF7C1FB01208DF80600800280
:100D8000009069461748FFF7B8FB4FF4E130039035
:100D90000020ADF81000ADF81200ADF81400ADF869
:100DA00018000C20ADF8160003A90F48FFF74AFE03
:100DB00025208DF8080000208DF809008DF80A0024
:100DC00001208DF80B0002A8FFF70AFC012240F277
:100DD00025510548FFF710FE01210348FFF7D6FD16
:100DE00007B000BD00000240001001404FF040700D
:100DF000E1EE100A70470000180E00080000002005
:100E00001C000000C4010008340E00081C00002073
:100E100074070000E001000800000000000000016D
:100E20000203040102030406070809000000000091
:040E300000000000BE
:040000050800018965
:00000001FF
