:020000040800F2
:1000000048080020390200081B0C0008130C0008E7
:10001000170C0008550600086712000800000000D1
:10002000000000000000000000000000D50D0008E6
:10003000A709000800000000A90C0008050F00082F
:10004000530200085302000853020008530200083C
:100050005302000853020008A909000853020008CF
:10006000D9090008090A00083D0A000853020008DF
:10007000530200085302000853020008530200080C
:1000800053020008530200085302000853020008FC
:1000900053020008530200085302000853020008EC
:1000A00053020008750F00085302000853020008AD
:1000B000A90F000853020008530200085302000869
:1000C00053020008530200085302000853020008BC
:1000D00053020008451000085302000853020008AC
:1000E000530200085302000853020008530200089C
:1000F000530200085302000853020008530200088C
:100100005302000853020008D50F000853020008EC
:10011000530200085302000853020008530200086B
:10012000BD060008530200085302000853020008ED
:10013000530200085302000853020008530200084B
:10014000530200085302000853020008530200083B
:10015000F5060008530200082D07000853020008A6
:10016000530200085302000853020008530200081B
:10017000530200085302000853020008530200080B
:10018000530200085302000800F002F800F044F89F
:100190000AA090E8000C82448344AAF10107DA45E2
:1001A00001D100F039F8AFF2090EBAE80F0013F0F0
:1001B000010F18BFFB1A43F0010318473C1A000057
:1001C0005C1A0000103A24BF78C878C1FAD85207E8
:1001D00024BF30C830C144BF04680C6070470000C1
:1001E0000023002400250026103A28BF78C1FBD840
:1001F000520728BF30C148BF0B607047642900F028
:10020000A780732900F0C181002070471FB501F05D
:10021000EDFC1FBD10B510BD00F0EAF91146FFF767
:10022000F5FF01F08BFB00F008FA03B4FFF7F2FFD3
:1002300003BC01F01AF8000009488047094800474C
:10024000FEE7FEE7FEE7FEE7FEE7FEE7FEE7FEE786
:10025000FEE7FEE704480549054A064B70470000E3
:100260000D0F0008890100084802002048080020FE
:100270004804002048040020704700000FB40449DF
:1002800010B503AA029800F085F910BC5DF814FBC4
:10029000800000202DE9F0410E4604460020206237
:1002A0002046E168884730B3252805D0D4E90121EC
:1002B0009047206A401CF2E7E16820460027884703
:1002C000050018D0A5F14100192802D820354FF4B7
:1002D00000673246294620462760FFF78FFF40B16E
:1002E000012804D0F61D26F007060836D8E7361D8B
:1002F000D6E72846DAE7206ABDE8F08170B50C46FB
:100300000546012A05D02878800600D5EA69002331
:1003100002E0012305E05B1C934202D2E05C00286E
:10032000F9D1A869E618C01AA861286A1844286299
:100330002846AFF3008004E0D5E9012114F8010B51
:100340009047B442F8D32846AFF3008070BD000058
:100350002DE9F0410646002410687529314616A59E
:1003600010D0AFF30080002802DA404213A507E066
:1003700031688A0701D512A502E0490704D511A505
:10038000012401E0AFF3008000210A2206F12407D6
:1003900009E0B0FBF2FCB0FBF2F302FB1C003030D2
:1003A00078541846491C0028F3D123462A46304683
:1003B000BDE8F04100F07EB8000000002D00000014
:1003C0002B0000002000000040EA010370B59B07ED
:1003D0002ED14FF00136042A2AD308C810C99D1B1C
:1003E0009D43121F15EAC61517D0D8B2E1B2401AC4
:1003F00050EA056110D198B2A1B2401A50EA054105
:100400000AD123F07F4024F07F41401A50EA0521B1
:1004100002D1180EA0EB146070BDA342DBD018BA55
:1004200021BA884201D9012070BD4FF0FF3070BD64
:100430000AB9002070BD10F8013B11F8014B63B1FF
:10044000A3420AD1521E08D010F8013B11F8014B0B
:100450001BB1A34201D1521EEDD1181B70BD4FF04C
:10046000000200B5134694469646203922BFA0E804
:100470000C50A0E80C50B1F12001BFF4F7AF090710
:1004800028BFA0E80C5048BF0CC05DF804EB890001
:1004900028BF40F8042B08BF704748BF20F8022B44
:1004A00011F0804F18BF00F8012B7047704770475C
:1004B000704770472DE9F0470D469946924604462D
:1004C00000F124080168880604D5E06921F01001D4
:1004D000216000E00120A84201DD471B00E0002769
:1004E000A1697A1902EB0900081AA0612078C006F8
:1004F00002D42046AFF30080002608E0D4E90121B1
:100500001AF806009047206A401C761C20624E456F
:10051000F4DB2078C0060AD52046AFF3008006E061
:10052000D4E9012130209047206A401C2062381E07
:10053000A7F10107F4DC07E0D4E9012118F8050070
:100540009047206A401C2062281EA5F10105F3DCBB
:100550002046AFF300802078000602D50220BDE8D7
:10056000F0870120FBE710B5436913B1AFF30080BA
:1005700001E0FFF7C3FE012010BD127800F1240155
:100580000A7000224A700122EDE711684FF0FF3235
:10059000E9E70000074B70B50D467B4400F011F809
:1005A0000446284600F020F810B14FF0FF3070BD2F
:1005B000204670BDBB11000001694A1C0261087829
:1005C000704700B58FB0CDE9013100210591054993
:1005D0007944CDE9031011466846FFF75BFE0FB082
:1005E00000BD0000E5FFFFFF007B00F080007047CA
:1005F000754600F02BF8AE4605006946534620F0DC
:100600000700854618B020B5FFF724FEBDE820405E
:100610004FF000064FF000074FF000084FF0000BBE
:1006200021F00701AC46ACE8C009ACE8C009ACE871
:10063000C009ACE8C0098D46704710B50446AFF359
:1006400000802046BDE81040FFF7EFBD004870472E
:10065000E801002000BFFEE710B542F210740D491A
:100660000D4800F0E3F801210B4800F0F9F800E034
:10067000641E094800F0FFF8012801D0002CF7DCC7
:100680001CB906A0FFF7FAFD02E008A0FFF7F6FD8F
:1006900010BD00002080001010640240444D412035
:1006A00044495341424C450D0A000000444D41204D
:1006B000454E41424C450D0A0000000010B5074967
:1006C000074800F0E3F8012806D106A0FFF7D6FDA1
:1006D0000249034800F0AAF810BD00002080001075
:1006E00010640240444D415F49545F5443494630D1
:1006F000200D0A0010B50749074800F0C7F8012887
:1007000006D106A0FFF7BAFD0249034800F08EF8B3
:1007100010BD00000088002088640240444D415F05
:1007200049545F5443494635200D0A0010B5074926
:10073000074800F0ABF8012806D106A0FFF79EFDA0
:100740000249034800F072F810BD00000080002844
:10075000B8640240444D415F49545F5443494637B1
:10076000200D0A0010B542F210740D490D4800F03A
:100770005DF801210B4800F073F800E0641E0948A1
:1007800000F079F8012801D0002CF7DC1CB906A094
:10079000FFF774FD02E008A0FFF770FD10BD000038
:1007A0000088002088640240444D41204449534160
:1007B000424C450D0A000000444D4120454E414247
:1007C0004C450D0A0000000010B542F210740D49AE
:1007D0000D4800F02BF801210B4800F041F800E033
:1007E000641E094800F047F8012801D0002CF7DC0E
:1007F0001CB906A0FFF742FD02E008A0FFF73EFD8E
:1008000010BD000000800028B8640240444D412023
:1008100044495341424C450D0A000000444D4120DB
:10082000454E41424C450D0A000000000246094B6E
:100830009A4201D2084801E00648103801F00053FE
:100840001BB1064B0B40C36002E0044B0B408360BE
:100850007047000010640240006002407D0F7D0F71
:1008600021B1026842F00102026003E0026822F056
:10087000010202607047014600200A6802F001028E
:100880000AB1012000E000207047000070B5024668
:10089000002000240025124EB24201D2114B01E08B
:1008A0000F4B103B104E0E4036B11E2606EAD124E7
:1008B000166806EA040502E0566906F0800501F0B4
:1008C00000560EB15C6800E01C68084E344004EA33
:1008D000010616B10DB1012000E0002070BD00003E
:1008E00010640240006002403C0F3C0F7D0F7D0F02
:1008F00010B501F080034BB122B1436943F080038E
:10090000436103E0436923F08003436180290BD0F6
:100910002AB1036801F01E042343036004E0036866
:1009200001F01E04A343036010BD000010B50022B7
:100930000268134B1A40CC680B6823434C6923436D
:100940008C692343CC6923430C6A23434C6A2343B9
:100950008C6A23434C6B23438C6B23431A43026002
:10096000426922F00702D1E90B3423431A43426162
:100970000B6943604B6883608B68C36010BD0000E7
:100980003F801CF00021016041608160C160016115
:1009900041618161C161016241628162C162016341
:1009A000416381637047704710B500F0E3FE01209A
:1009B00000F06CF8012809D10548006880F00100BA
:1009C0000449C1F8A002012000F05AF810BD00004F
:1009D000A08242420080424210B500F0CBFE0420CB
:1009E00000F054F8012809D10548006880F00100A2
:1009F0000449C1F8A802042000F042F810BD00002C
:100A0000A88242420080424210B500F0B3FE08487E
:100A1000006800F0080048B10648006880F0010056
:100A20000549C1F8B40208200149086010BD000062
:100A3000143C0140B40242420000424210B514206E
:100A400000F048FC00BF0C4800680028FBD01420D0
:100A500000F040FC102000F019F801280AD10648E7
:100A6000A830006880F001000449C1F8B8021020E5
:100A700000F006F810BD00001002424200004242A1
:100A80000149086070470000143C01400146002005
:100A9000034A12680A400AB1012000E000207047B2
:100AA000143C0140002123498279002A3AD00A46A9
:100AB000126803689A430B461A600A1D126803689D
:100AC0009A430B1D1A60027911440A6803681A439D
:100AD0000A60184A0832126803689A43154B0833B3
:100AE0001A601A1D126803689A43124B0C331A607D
:100AF0004279102A0ED11A1F126803681A430D4B4F
:100B000008331A601A1D126803681A43094B0C3324
:100B10001A600DE00749427911440A6803681A43D4
:100B20000A6005E0027911440A6803689A430A6082
:100B300070470000003C0140F0B50A460021002348
:100B4000002400BF3DE0012505FA01F3156805EA20
:100B500003049C4234D105684F000326BE40B543D0
:100B6000056015794E00B540066835430560157976
:100B7000012D02D01579022D16D185684F0003266C
:100B8000BE40B543856055794E00B5408668354313
:100B90008560456801268E40B54345604568967975
:100BA0008E40B6B235434560C5684F000326BE404F
:100BB000B543C560D5794E00B540C6683543C560BC
:100BC000491C1029BFD3F0BDF0B5002300244D0708
:100BD000ED0E02FA05F3CE1000F1200555F826506F
:100BE0004E07F70E0F26BE40B543CF1000F120068A
:100BF00046F82750CE1000F1200555F8265045EA5A
:100C00000304CE1000F1200545F82640F0BD018315
:100C1000704700BFFEE700BFFEE7704770B50021D8
:100C200000230F22C4781CB3174C246804F4E0643A
:100C3000C4F5E064C4F30721C1F10404E3B20A413E
:100C400044789C40E1B28478144021430C07210E83
:100C50000E4C05786155047804F01F050124AC4062
:100C600005786D11AD0005F1E025C5F8004109E0FA
:100C7000047804F01F050124AC40054D0678761178
:100C800045F8264070BD00000CED00E000E400E0F7
:100C900080E100E002490143024A11607047000010
:100CA0000000FA050CED00E07047000029B1064A8B
:100CB00012680243044B1A6004E0034A126882433C
:100CC000014B1A60704700003038024029B1064AD3
:100CD00012680243044B1A6004E0034A126882431C
:100CE000014B1A607047000044380240F0B5002103
:100CF00000220024022500260223324F3F6807F01D
:100D00000C0121B1042905D0082937D105E02E4F67
:100D1000076036E02D4F076033E02A4F3F1F3F68E2
:100D2000C7F38056274F3F1F3F6807F03F036EB160
:100D3000264FB7FBF3F7DFF88CC0ACF1040CDCF8FE
:100D400000C0CCF3881C07FB0CF40CE01E4FB7FB73
:100D5000F3F7DFF870C0ACF1040CDCF800C0CCF3A2
:100D6000881C07FB0CF4174F3F1F3F68C7F3014770
:100D70007F1C7D00B4FBF5F7076002E0124F0760AF
:100D800000BF00BF0F4F3F6807F0F0010909104F87
:100D90007A5C0768D74047600A4F3F6807F4E05124
:100DA000890A0B4F7A5C4768D7408760054F3F68D8
:100DB00007F46041490B064F7A5C4768D740C7602B
:100DC000F0BD0000083802400024F40000127A0050
:100DD0006A0000207047000030B500228B071C0F0E
:100DE0000F2303FA04F20B4B8C1053F82430934377
:100DF000084C8D1044F8253023468C1053F82430CD
:100E00008C07240F00FA04F42343024C8D1044F89D
:100E1000253030BD083801400CB50020019000900D
:100E20003448006840F480303249086000BF3148DF
:100E3000006800F4003000900198401C0190009878
:100E400018B90198B0F5A04FF1D12A48006800F414
:100E5000003010B10120009001E0002000900098C7
:100E6000012846D123484030006840F08050214995
:100E7000403108602048006840F440401E49086046
:100E80001C48083000681B490831086008460068A3
:100E900040F4004008600846006840F4A050086034
:100EA0001648091F0860081F006840F08070091F7D
:100EB000086000BF0F48006800F000700028F9D0FB
:100EC00040F205700E4908600A480830006820F0BA
:100ED00003000849083108600846006840F0020035
:100EE000086000BF03480830006800F00C000828C4
:100EF000F8D10CBD00380240007000400854400793
:100F0000003C024010B500F091F810BD10B5154836
:100F1000006840F47000134908601348006840F00E
:100F200001001149086000200F49083108600E488F
:100F300000680E4908400C4908600D48091D08600A
:100F4000081F006820F48020091F0860002006495F
:100F50000C310860FFF760FF4FF0006001498039F5
:100F6000086010BD88ED00E000380240FFFFF6FE8B
:100F70001030002410B50121084800F046F801287F
:100F800006D10748006880F001000649C1F8A802B0
:100F90000121024800F036F810BD00000044014075
:100FA000A88242420080424210B50121880700F029
:100FB0002CF8012805D105480068C0430449C1F850
:100FC000B4020121880700F01DF810BDB4024242AE
:100FD0000000424210B50121074800F016F8012830
:100FE00005D106480068C0430549C1F8B80201218F
:100FF000014800F007F810BD000C0040B802424262
:1010000000004242CA430282704730B502460020C7
:1010100000230024158A05EA0103958905EA0104E5
:1010200013B10CB1012000E0002030BD044800687D
:1010300020B103480068401E014908607047000065
:101040007C00002010B540F22551184800F04DF802
:1010500050B31748007838BB144800F0FFF8154922
:101060000870084600781449144A127888541348C6
:101070000078401C114908700846007802280CDBF3
:1010800008460078801E0C49085C0D2805D10B48E5
:101090000078401E085C0A2803D008480078FF2822
:1010A00002D101200249087010BD0000001001406B
:1010B0006900002084000020D80000206800002083
:1010C00021B1828942F40052828104E082894DF686
:1010D000FF731A40828170471AB1838A0B4383825F
:1010E00002E0838A8B438382704770B502460024F6
:1010F00000230025002040F66A16B14200D100BF4F
:10110000C1F3421501F01F03012606FA03F3012D76
:1011100002D19689334006E0022D02D1168A33406F
:1011200001E0968A33400C12012606FA04F4168870
:10113000344013B10CB1012000E0002070BDF0B5C7
:101140000346002400260025002040F66A17B94215
:1011500000D100BF1846C1F3421401F01F06012759
:1011600007FA06F5012C01D10C3004E0022C01D164
:10117000103000E014301AB107682F43076002E016
:101180000768AF430760F0BD2DE9FF4705460E46EF
:101190000024A14600BFA046B08900B100BF2C8A40
:1011A00024F44054F08804432C82AC8941F20C6052
:1011B0008443B08831890843718908430443AC8172
:1011C000AC8A24F44074B0890443AC826846FFF7CB
:1011D0008DFD2048854202D01F48854202D1DDF8AE
:1011E0000C9001E0DDF80890A88900F4004040B1BF
:1011F00009EBC90000EB091031684900B0FBF1F7B9
:1012000007E009EBC90000EB091031688900B0FB69
:10121000F1F76420B7FBF0F004012009642101FB21
:101220001078A88900F4004040B1322000EBC800DB
:10123000B0FBF1F000F00700044308E0322000EBBF
:1012400008106421B0FBF1F000F00F0004432C8182
:10125000BDE8FF8700100140001401400146888866
:10126000C0F30800704700BFFEE700BF70470000F2
:1012700070B51548FFF73AFD1348406842F2107206
:10128000B0FBF2F1481EB0F1807F00D31BE0481E96
:101290004FF0E022506150170F22002807DA1307A1
:1012A0001D0E0A4B00F00F04241F1D5503E0130709
:1012B0001C0E074B1C5400BF00204FF0E022906131
:1012C0000720106100BF70BDD801002018ED00E0BC
:1012D00000E400E001B581B000201CE000214FF0E7
:1012E000E0221161284951610021916101211161C0
:1012F00000BF4FF0E02109690091009901F0010160
:1013000021B1009901F480310029F2D000214FF081
:10131000E0221161401C4FF42F720199B1FBF2F1F0
:101320008142DBD811460198B0FBF1F201FB1200BB
:1013300048B300204FF0E02108614FF42F7101986D
:10134000B0FBF1F201FB120040F6412148430121BC
:10135000C1EBC0004FF0E02148610020886101200E
:10136000086100BF4FF0E02000690090009800F095
:10137000010020B1009800F480300028F2D0002055
:101380004FF0E02108610CBDDF4DE00001B581B0F8
:1013900000204FF0E02108610198C0EBC00000EB95
:1013A0004000401E4861002088610120086100BFA4
:1013B0004FF0E02000690090009800F0010020B19B
:1013C000009800F480300028F2D000204FF0E02197
:1013D00008610CBD1CB5002000900190684600F02B
:1013E00087F8E8B99DF8020000280ADD9DF80200A0
:1013F000322806DA9DF803209DF8021009A0FEF7B6
:101400003DFF9DF8000000280ADD9DF800006428DB
:1014100006DA9DF801209DF8001006A0FEF72EFFC9
:101420001CBD000074656D703D25642E256420A1EF
:10143000E60D0A0068756D643D25642E256420253F
:10144000250D0A001CB501214020FFF72FFC4FF4A9
:101450000070009000208DF8040003208DF8050036
:1014600000208DF8070069460148FFF765FB1CBDA9
:10147000001802401CB501214020FFF717FC4FF473
:101480000070009001208DF8040000208DF8060007
:1014900003208DF8050001208DF8070069460248F9
:1014A000FFF74AFB1CBD00000018024070B5002584
:1014B000002400BF16E000BF0C4800680028FBD0E5
:1014C0002820FFF763FF0948006850B1C4F1070105
:1014D000012088402843C5B200BF044800680028A6
:1014E000FBD1641C082CE6D3284670BD240243427D
:1014F00070B504460025002600BF00F01DF8012845
:10150000FBD0002503E0FFF7D1FF60556D1C052DD2
:10151000F9D36420FFF73AFF207861780844A17876
:101520000844E1780844C6B22079B04201D00120D5
:1015300070BD0020FCE7000010B50024FFF79AFF03
:101540000020184908601420FFF7C4FE0120164946
:10155000C1F8A4021E20FFF719FFFFF773FF00BFB9
:1015600008E010488038006800B906E0641C0120DB
:10157000FFF70CFFB4F57A7FF3D300BFB4F57A7FA1
:1015800001D3012010BD00BF064880380068002844
:10159000FAD000BF0348803800680028FAD100BFA5
:1015A000F0E70000A40243420000434230B591B08E
:1015B00004460D4601218805FFF778FB02A8FFF7D6
:1015C000E1F900BF1948FFF756F90028FAD1029057
:1015D0000394049580200590642006904FF40070D9
:1015E0000790400008908000099080000A90002039
:1015F0000B900C900D900E900F90109002A90B483C
:10160000FFF794F938208DF8040001208DF80700C9
:101610008DF805008DF8060001A8FFF7FFFA0122FA
:1016200010210248FFF764F911B030BD1064024088
:1016300030B591B004460D4601218805FFF736FB11
:1016400002A8FFF79FF900BF1C48FFF714F9002814
:10165000FAD14FF000600290039504944020059069
:1016600064200690002007904FF4806008900020CE
:1016700009900A900B900C900D900E900F90109086
:1016800002A90E48FFF752F9012280210C48FFF70A
:1016900023FD46208DF8040001208DF807008DF809
:1016A00005008DF8060001A8FFF7B8FA0122102105
:1016B0000248FFF71DF911B030BD0000B8640240C8
:1016C0000010014030B591B004460D460121880557
:1016D000FFF7ECFA02A8FFF755F900BF1C48FFF727
:1016E000CAF80028FAD14FF00060029003940495E4
:1016F0004020059064200690002007904FF4806001
:101700000890002009900A900B900C900D900E907C
:101710000F90109002A90E48FFF708F9012240210E
:101720000C48FFF7D9FC44208DF8040001208DF807
:1017300007008DF805008DF8060001A8FFF76EFA86
:10174000012210210248FFF7D3F811B030BD00008C
:10175000886402400010014000BF054A128802F070
:101760004002002AF9D0C2B2014B9A8070470000B3
:101770000010014010B500241E48006850B11E48FA
:10178000006838B11C48001D006818B11A480830BC
:10179000006868BB2820FFF79DFD1648006808B95F
:1017A00001240FE01448006808B902240AE0124836
:1017B000001D006808B9032404E00F4808300068E1
:1017C00000B9042400BF0B4800680028FBD00A4879
:1017D00000680028F7D00848001D00680028F2D0F3
:1017E0000548083000680028EDD02820FFF772FD7A
:1017F000204610BD00024042080242420EB50121BF
:101800008803FFF763FA00210846FFF7E5FA022193
:101810000420FFF7E1FA03210420FFF7DDFA042199
:101820000846FFF7D9FA1D20019001208DF80A0023
:1018300000208DF808000C208DF8090001A8FFF7A2
:1018400031F906208DF8000001208DF803008DF895
:1018500001008DF802006846FFF7E0F908208DF8D6
:1018600000006846FFF7DAF909208DF800006846A5
:10187000FFF7D4F90A208DF800006846FFF7CEF98B
:101880000EBD00001CB501211120FFF70FFA012049
:10189000009000208DF804008DF807006946054887
:1018A000FFF74AF91C20009069460348FFF744F906
:1018B0001CBD000000000240001002401CB50121C8
:1018C0003020FFF7F3F94FF48060009001208DF88D
:1018D00004008DF806008DF807008DF805006946B4
:1018E0001448FFF729F94FF4C040009069461248A8
:1018F000FFF722F94FF48070009000208DF8060069
:1019000069460C48FFF718F94FF400710948FFF7D2
:101910007EF94FF480610748FFF779F94FF40051E1
:101920000548FFF774F94FF480410348FFF76FF95A
:101930001CBD00000014024000100240FFF798FC9C
:101940004FF4A060FFF7A6F9FFF7B8FFFFF79AFF83
:10195000FFF754FF00F07CF80020284908600CE0F5
:1019600026480068401C2649244A126841F8220093
:1019700022480068401C21490860204800680A2865
:10198000EEDB20491E48FFF711FE1FA0FEF776FC94
:1019900000201A4908600FE01A48184A126850F8E7
:1019A00022101BA0FEF76AFC6420FFF793FC13488B
:1019B0000068401C11490860104800680A28EBDBE9
:1019C00015491648FFF734FE15A0FEF757FC6420B2
:1019D000FFF780FCFEF7F8FE10490F48FFF772FE94
:1019E00015A0FEF74BFC07E000F092F8FFF7F2FCC1
:1019F0004FF47A70FFF76EFCF6E70000000000205D
:101A000088000020B000002053746172740D0A0039
:101A100025640D0A000000000410014004000020AD
:101A20006D656D6F727920444D4120746F20757320
:101A30006172740D0A000000757361727420444D68
:101A40004120746F206D656D6F72790D0A00000082
:101A500000B587B001210846FFF728F901211020C1
:101A6000FFF734F907220A212748FFF7ADF80722CC
:101A700009212548FFF7A8F802208DF8040003206B
:101A80008DF8050000208DF8060001208DF8070074
:101A90004002009069461C48FFF74EF801208DF87F
:101AA00006008002009069461748FFF745F84FF49A
:101AB000E13003900020ADF81000ADF81200ADF851
:101AC0001400ADF818000C20ADF8160003A90F485B
:101AD000FFF75AFB25208DF8080001208DF809003A
:101AE0008DF80A008DF80B0002A8FFF797F8012285
:101AF00040F225510548FFF722FB01210348FFF77B
:101B0000DFFA07B000BD00000000024000100140F5
:101B100010B524480078012843D1234800780028D4
:101B20003FD0214921A0FEF7A9FB032221A11E4895
:101B3000FEF74AFCE0B9FEF78FFD1FA0FEF79EFB03
:101B40000020204908600FE01F481E4A126850F824
:101B500022101EA0FEF792FB6420FFF7BBFB194882
:101B60000068401C17490860164800680A28EBDB2B
:101B7000052218A10C48FEF727FC40B9FEF7F2FD3C
:101B80006420FFF7A7FB154915A0FEF777FB4FF47C
:101B900080710548FEF763FC002013490870014975
:101BA000087010BD69000020D800002072656376BF
:101BB0003A257300646D6100646D612069740D0ADB
:101BC0000000000000000020B000002025640D0A85
:101BD00000000000746F6D656D00000004000020BF
:101BE00025730D0A00000000680000204FF04070CF
:101BF000E1EE100A70470000181C000800000020E9
:101C000088000000C4010008A01C00088800002013
:101C1000C0070000E00100080000000055534152D9
:101C2000545F444D415265715F54783A2055534199
:101C3000525420444D41207472616E736D6974205A
:101C400072657175657374200D0A00000000000054
:101C50000000000000000000000000000000000084
:101C60000000000000000000000000000000000074
:101C70000000000000000000000000000000000064
:101C80000000000000000102030401020304060733
:101C90000809000000000000000000000000000033
:040000050800018965
:00000001FF
