:020000040800F2
:10000000500800203D020008C50B0008870B0008BF
:10001000C10B0008DF0600082319000800000000DB
:10002000000000000000000000000000A314000811
:100030001909000800000000610C0008D115000833
:10004000570200085702000857020008570200082C
:1000500057020008570200081D090008570200084F
:100060004D0900087D090008B10900085702000881
:1000700057020008570200085702000857020008FC
:1000800057020008570200085702000857020008EC
:1000900057020008570200085702000857020008DC
:1000A00057020008411600085702000857020008CE
:1000B000751600085702000857020008570200088A
:1000C00057020008570200085702000857020008AC
:1000D00057020008111700085702000857020008CD
:1000E00057020008A90E000857020008570200082E
:1000F000570200085702000857020008570200087C
:100100005702000857020008A1160008570200080D
:10011000570200085702000857020008570200085B
:100120004907000857020008570200085702000854
:10013000570200085702000857020008570200083B
:10014000570200085702000857020008570200082B
:100150008107000857020008B90700085702000885
:10016000570200085702000857020008570200080B
:1001700057020008570200085702000857020008FB
:10018000570200085702000800F002F800F047F894
:100190000AA090E8000C82448344AAF10107DA45E2
:1001A00001D100F03CF8AFF2090EBAE80F0013F0ED
:1001B000010F18BFFB1A43F0010318473C21000050
:1001C0005C210000103A24BF78C878C1FAD85207E1
:1001D00024BF30C830C144BF04680C6070470000C1
:1001E0000023002400250026103A28BF78C1FBD840
:1001F000520728BF30C148BF0B607047642900F028
:10020000A980632900F0BB81732900F0C081002020
:1002100070471FB502F06AF81FBD10B510BD00F0A1
:10022000E9F91146FFF7F5FF01F05CFD00F007FA70
:1002300003B4FFF7F2FF03BC01F075FB09488047E8
:1002400009480047FEE7FEE7FEE7FEE7FEE7FEE7B8
:10025000FEE7FEE7FEE7FEE704480549054A064BD0
:1002600070470000D91500088901000850020020DD
:100270005008002050040020500400207047000067
:100280000FB4044910B503AA029800F085F910BC18
:100290005DF814FB840000202DE9F0410E46044671
:1002A000002020622046E168884730B3252805D029
:1002B000D4E901219047206A401CF2E7E16820461A
:1002C00000278847050018D0A5F14100192802D859
:1002D00020354FF400673246294620462760FFF755
:1002E0008DFF40B1012804D0F61D26F00706083620
:1002F000D8E7361DD6E72846DAE7206ABDE8F08160
:1003000070B50C460546012A05D02878800600D530
:10031000EA69002302E0012305E05B1C934202D25C
:10032000E05C0028F9D1A869E618C01AA861286A1B
:10033000184428622846AFF3008004E0D5E9012183
:1003400014F8010B9047B442F8D32846AFF300806D
:1003500070BD00002DE9F0410646002410687529A3
:10036000314616A510D0AFF30080002802DA4042D3
:1003700013A507E031688A0701D512A502E04907F5
:1003800004D511A5012401E0AFF3008000210A2269
:1003900006F1240709E0B0FBF2FCB0FBF2F302FB2C
:1003A0001C00303078541846491C0028F3D12346ED
:1003B0002A463046BDE8F04100F07EB8000000005B
:1003C0002D0000002B0000002000000040EA010387
:1003D00070B59B072ED14FF00136042A2AD308C8E6
:1003E00010C99D1B9D43121F15EAC61517D0D8B220
:1003F000E1B2401A50EA056110D198B2A1B2401A98
:1004000050EA05410AD123F07F4024F07F41401A91
:1004100050EA052102D1180EA0EB146070BDA34272
:10042000DBD018BA21BA884201D9012070BD4FF043
:10043000FF3070BD0AB9002070BD10F8013B11F803
:10044000014B63B1A3420AD1521E08D010F8013B00
:1004500011F8014B1BB1A34201D1521EEDD1181B63
:1004600070BD4FF0000200B5134694469646203901
:1004700022BFA0E80C50A0E80C50B1F12001BFF45D
:10048000F7AF090728BFA0E80C5048BF0CC05DF8C3
:1004900004EB890028BF40F8042B08BF704748BF11
:1004A00020F8022B11F0804F18BF00F8012B704785
:1004B00070477047704770472DE9F0470D469946E1
:1004C0009246044600F124080168880604D5E069D4
:1004D00021F01001216000E00120A84201DD471B4E
:1004E00000E00027A1697A1902EB0900081AA0614F
:1004F0002078C00602D42046AFF30080002608E032
:10050000D4E901211AF806009047206A401C761CA5
:1005100020624E45F4DB2078C0060AD52046AFF3B2
:10052000008006E0D4E9012130209047206A401C79
:100530002062381EA7F10107F4DC07E0D4E90121AD
:1005400018F805009047206A401C2062281EA5F17B
:100550000105F3DC2046AFF300802078000602D5C9
:100560000220BDE8F0870120FBE710B5436913B115
:10057000AFF3008001E0FFF7C3FE012010BD127849
:1005800000F124010A7000224A700122EDE711688F
:100590004FF0FF32E9E70000074B70B50D467B4492
:1005A00000F011F80446284600F020F810B14FF092
:1005B000FF3070BD204670BDEF14000001694A1C79
:1005C00002610878704700B58FB0CDE90131002194
:1005D000059105497944CDE9031011466846FFF7B6
:1005E0005BFE0FB000BD0000E5FFFFFF007B00F0E9
:1005F00080007047754600F02BF8AE46050069464E
:10060000534620F00700854618B020B5FFF724FEBA
:10061000BDE820404FF000064FF000074FF0000803
:100620004FF0000B21F00701AC46ACE8C009ACE884
:10063000C009ACE8C009ACE8C0098D46704710B5E8
:100640000446AFF300802046BDE81040FFF7F0BD40
:1006500000487047EC01002000B587B000214FF43E
:10066000807000F0E7FB00208DF80F0012208DF85D
:100670000C0002208DF80D0000208DF80E001820CF
:100680008DF818000020059003AA4FF4807100F047
:1006900041FD0121080200F0CDFB0121080300F01B
:1006A000C5FC4FF40030019001208DF80A000020B5
:1006B0008DF808000C208DF8090001A800F0ACF9B5
:1006C00029208DF8000001208DF803008DF801002D
:1006D0008DF80200684600F077FA07B000BD00BF51
:1006E000FEE7000010B542F210740D490D4800F00D
:1006F000B1F801210B4800F0C7F800E0641E09487A
:1007000000F0CDF8012801D0002CF7DC1CB906A0C0
:10071000FFF7B6FD02E008A0FFF7B2FD10BD000034
:100720002080001010640240444D41204449534150
:10073000424C450D0A000000444D4120454E4142C7
:100740004C450D0A0000000010B50749074800F0AD
:10075000B1F8012806D106A0FFF792FD024903482F
:1007600000F078F810BD00002080001010640240F6
:10077000444D415F49545F5443494630200D0A00BF
:1007800010B50749074800F095F8012806D106A0E2
:10079000FFF776FD0249034800F05CF810BD000049
:1007A0000088002088640240444D415F49545F54F2
:1007B00043494635200D0A0010B50749074800F0A7
:1007C00079F8012806D106A0FFF75AFD024903482F
:1007D00000F040F810BD000000800028B86402401E
:1007E000444D415F49545F5443494637200D0A0048
:1007F00010B542F210740D490D4800F02BF801219C
:100800000B4800F041F800E0641E094800F047F88A
:10081000012801D0002CF7DC1CB906A0FFF730FD41
:1008200002E008A0FFF72CFD10BD000000880020AA
:1008300088640240444D412044495341424C450D97
:100840000A000000444D4120454E41424C450D0AEE
:10085000000000000246094B9A4201D2084801E01C
:100860000648103801F000531BB1064B0B40C36023
:1008700002E0044B0B4083607047000010640240AC
:10088000006002407D0F7D0F21B1026842F001023D
:10089000026003E0026822F0010202607047014634
:1008A00000200A6802F001020AB1012000E00020E5
:1008B0007047000070B50246002000240025124E4B
:1008C000B24201D2114B01E00F4B103B104E0E40D3
:1008D00036B11E2606EAD124166806EA040502E0AF
:1008E000566906F0800501F000560EB15C6800E024
:1008F0001C68084E344004EA010616B10DB101200F
:1009000000E0002070BD0000106402400060024062
:100910003C0F3C0F7D0F7D0F7047000010B501F0BC
:10092000FDF8012000F06CF8012809D105480068A5
:1009300080F001000449C1F8A002012000F05AF83B
:1009400010BD0000A08242420080424210B501F07A
:10095000E5F8042000F054F8012809D105480068A2
:1009600080F001000449C1F8A802042000F042F818
:1009700010BD0000A88242420080424210B501F042
:10098000CDF80848006800F0080048B10648006843
:1009900080F001000549C1F8B4020820014908604F
:1009A00010BD0000143C0140B4024242000042422B
:1009B00010B5142000F0ECFF00BF0C4800680028C0
:1009C000FBD0142000F0E4FF102000F019F80128FB
:1009D0000AD10648A830006880F001000449C1F837
:1009E000B802102000F006F810BD000010024242CC
:1009F000000042420149086070470000143C014079
:100A000001460020034A12680A400AB1012000E0B2
:100A100000207047143C0140002123498279002ABC
:100A20003AD00A46126803689A430B461A600A1DB8
:100A3000126803689A430B1D1A60027911440A6810
:100A400003681A430A60184A0832126803689A4316
:100A5000154B08331A601A1D126803689A43124B2B
:100A60000C331A604279102A0ED11A1F12680368DB
:100A70001A430D4B08331A601A1D126803681A4393
:100A8000094B0C331A600DE00749427911440A689A
:100A900003681A430A6005E0027911440A68036892
:100AA0009A430A6070470000003C0140F0B50A46D6
:100AB00000210023002400BF3DE0012505FA01F3D9
:100AC000156805EA03049C4234D105684F000326EB
:100AD000BE40B543056015794E00B5400668354304
:100AE00005601579012D02D01579022D16D1856882
:100AF0004F000326BE40B543856055794E00B54092
:100B0000866835438560456801268E40B54345605B
:100B1000456896798E40B6B235434560C5684F004A
:100B20000326BE40B543C560D5794E00B540C668C2
:100B30003543C560491C1029BFD3F0BDF0B5002373
:100B400000244D07ED0E02FA05F3CE1000F120054A
:100B500055F826504E07F70E0F26BE40B543CF106E
:100B600000F1200646F82750CE1000F1200555F878
:100B7000265045EA0304CE1000F1200545F8264032
:100B8000F0BD0183704700BFFEE700001CB50121E6
:100B9000022000F067F84FF44070009001208DF8BB
:100BA00004008DF806008DF8070003208DF805007D
:100BB00069460248FFF77AFF1CBD000000040240AE
:100BC00000BFFEE77047000070B5002100230F2230
:100BD000C4781CB3174C246804F4E064C4F5E064E2
:100BE000C4F30721C1F10404E3B20A4144789C40F4
:100BF000E1B28478144021430C07210E0E4C057895
:100C00006155047804F01F050124AC4005786D118E
:100C1000AD0005F1E025C5F8004109E0047804F0D5
:100C20001F050124AC40054D0678761145F8264095
:100C300070BD00000CED00E000E400E080E100E0A9
:100C400002490143024A1160704700000000FA05A2
:100C50000CED00E0014908627047000000000E4200
:100C60007047000029B1064A12680243044B1A601B
:100C700004E0034A12688243014B1A607047000087
:100C80003038024029B1064A12680243044B1A6008
:100C900004E0034A12688243014B1A607047000067
:100CA0004038024029B1064A12680243044B1A60D8
:100CB00004E0034A12688243014B1A607047000047
:100CC00044380240F0B5002100220024022500260D
:100CD0000223324F3F6807F00C0121B1042905D0EF
:100CE000082937D105E02E4F076036E02D4F076009
:100CF00033E02A4F3F1F3F68C7F38056274F3F1FFF
:100D00003F6807F03F036EB1264FB7FBF3F7DFF8FC
:100D10008CC0ACF1040CDCF800C0CCF3881C07FBE1
:100D20000CF40CE01E4FB7FBF3F7DFF870C0ACF12A
:100D3000040CDCF800C0CCF3881C07FB0CF4174F44
:100D40003F1F3F68C7F301477F1C7D00B4FBF5F7E9
:100D5000076002E0124F076000BF00BF0F4F3F68FF
:100D600007F0F0010909104F7A5C0768D740476027
:100D70000A4F3F6807F4E051890A0B4F7A5C4768D5
:100D8000D7408760054F3F6807F46041490B064F25
:100D90007A5C4768D740C760F0BD00000838024061
:100DA0000024F40000127A006A00002010B5014609
:100DB0000022002300204A11012A02D10A4C236894
:100DC00008E0022A03D1084C7034236802E0064C84
:100DD0007434236801F01F02012494401C400CB1BC
:100DE000012000E0002010BD0038024001490860E9
:100DF000704700003C0E4742002100F44072B2F5FB
:100E0000407F08D1094A116821F4F811084A0240CC
:100E10001143064A1160054A68321268C0F30B0399
:100E20001A43024B68331A607047000008380240CA
:100E3000FFFCFF0F38B50246002400940023002079
:100E4000CA24184D2C6053242C6041B1154C1C3C15
:100E500024681443134D1C3D2C6001201EE0114CEE
:100E60001C3C246894430F4D1C3D2C6000BF0D4C6E
:100E7000183C246804EA1223009C641C0094009C23
:100E8000B4F5803F01D0002BF1D0064C183C24680B
:100E900004EA12240CB9002000E00120FF24014DD7
:100EA0002C6038BD2428004010B508A0FFF7E8F9F1
:100EB0004FF4805000F02AF84FF40030FFF7A0FD07
:100EC000012802D14004FFF795FD10BD5254432084
:100ED00049540D0A00000000014600BF080900EB5C
:100EE0008000420001F00F001044C0B2704701467C
:100EF000002204E0501CC2B2A1F10A00C1B20A29CA
:100F0000F8DA100741EA106070470000002101097B
:100F10008AB242F08002044B1B6803F0800363EA4C
:100F20000202014B1A6070470C28004008B50022ED
:100F3000009200200021104A126802F04002CAB953
:100F4000421E0D4B1A6000BF0B4A126802F04001AE
:100F5000009A521C0092009AB2F5803F01D00029FD
:100F6000F2D0054A126802F040020AB1012002E004
:100F7000002000E0012008BD0C2800400348006864
:100F800020F0800001490860704700000C280040F4
:100F900070B506460C4600250E4800680E4900EA6A
:100FA0000105280CE070C5F30420607005F03F00D7
:100FB000A070C5F3423020705EB9E078FFF78CFF77
:100FC000E0706078FFF788FF6070A078FFF784FF1B
:100FD000A07070BD042800403FFFFF0070B50646BA
:100FE0000C4600250F4800680F4900EA0105C5F3CB
:100FF00005402070C5F30620607005F07F00A070EA
:1010000005F48000000CE0705EB92078FFF764FF03
:1010100020706078FFF760FF6070A078FFF75CFFDA
:10102000A07070BD002800407F7F7F00CA22174B50
:101030001A6053221A6091B1144A1C3A126820F0C7
:1010400004031A43114B1C3B1A60104A1C321268ED
:1010500000F004031A430D4B1C331A6011E00B4AD5
:101060001C3A126820F004039A43084B1C3B1A6098
:10107000064A1C32126800F004039A43034B1C33E7
:101080001A60FF22014B1A607047000024280040BC
:1010900030B504460025CA20154908605320086071
:1010A000FFF744FF00B91DE011481C38006820F02C
:1010B00040000F491C390860084600682168084351
:1010C0000B491C3908600A491439A06808600846B1
:1010D0000068A18840EA0140054914390860FFF71B
:1010E0004DFF0125FF2002490860284630BD000061
:1010F0002428004008B501460020009004480090D4
:10110000009800EB810000900098006808BD000086
:10111000502800402DE9F04105460E4614460027B0
:1011200065B93648006800F0400000B102E00020D8
:10113000E07000BFA06800B919E018E02F4800680F
:1011400000F0400020B12078FFF7C6FE074602E01D
:101150000020E07000BFA06820B9207BFFF7BCFE34
:10116000074604E0207BFFF7B7FE074600BF95B1B6
:1011700020780004617840EA0120A1780843E178F2
:1011800040EA0140217B40EA0160A16808436168B0
:1011900040EA01071BE02078FFF7A9FE4FEA00486C
:1011A0006078FFF7A4FE48EA0028A078FFF79FFECA
:1011B00048EA0008E07848EA0048207BFFF797FEFD
:1011C00048EA0060A1680843616840EA0107CA2054
:1011D0000A491C31086053200860B6F5807F03D1AE
:1011E00006481430076002E0044818300760FF200A
:1011F00002491C310860BDE8F08100000828004069
:101200002DE9F04105460C46002600274DB96078CF
:1012100000F01000102804D1607820F010000A308F
:10122000607005B908E06078FFF756FE0646A078C2
:10123000FFF752FE064600BF55B1E0780004617822
:1012400040EA0120A1780843217840EA413611E0C4
:10125000E078FFF74CFE4FEA00486078FFF747FE62
:1012600048EA0028A078FFF742FE48EA0008207804
:1012700048EA4036CA201249086053200860FFF748
:1012800055FE08B9002714E00E4830400C492039BB
:101290000860FFF773FE0A481C38006800F0200061
:1012A00030B900F079F808B9002702E0012700E022
:1012B0000127FF20024908603846BDE8F0810000A0
:1012C000242800403FFFFF002DE9F04105460C4671
:1012D000002600274DB92E48006800F0400000B1FC
:1012E00002E00020E07000BF0DE02948006800F037
:1012F000400020B12078FFF7EFFD064602E0002015
:10130000E07000BF00BF55B120780004617840EA6A
:101310000120A1780843E17840EA014611E02078F5
:10132000FFF7E5FD4FEA00486078FFF7E0FD48EA87
:101330000028A078FFF7DBFD48EA0008E07848EADB
:101340000046CA2012491C31086053200860FFF78C
:10135000EDFD08B9002713E00E4830400C4908396C
:101360000860FFF70BFE0A48006800F0200030B963
:1013700000F012F808B9002702E0012700E0012779
:10138000FF2003491C3108603846BDE8F0810000A9
:10139000082800407F7F7F0008B5002200920020CF
:1013A0000021CA22134B1A6053221A60114A183ABC
:1013B000126822F0A0020F4B183B1A6000BF0D4AC2
:1013C000183A126802F02001009A521C0092009A0A
:1013D000B2F5003F01D00029F1D0064A183A126850
:1013E00002F020020AB1012000E00020FF22014BA0
:1013F0001A6008BD2428004008B500220092044A63
:101400000092009A02EB80020092009A116008BDDF
:101410005028004000B585B001210807FFF732FCD5
:101420000120FFF717FC0020FFF764FE162801D10A
:1014300005B000BD00BF4120FFF7B8FC0028FAD07E
:101440004FF48070FFF7D8FC0120FFF7CFFC00209D
:1014500002907F200390FF20049002A8FFF718FE5F
:1014600011208DF8040000208DF805008DF806008D
:1014700001A9FFF729FF07208DF8000018208DF83B
:10148000020011208DF8010013208DF80300694639
:101490000020FFF7B5FE16210020FFF7ADFF00BFCB
:1014A000C6E7704730B500228B071C0F0F2303FAE5
:1014B00004F20B4B8C1053F824309343084C8D10DE
:1014C00044F8253023468C1053F824308C07240F21
:1014D00000FA04F42343024C8D1044F8253030BD4B
:1014E000083801400CB50020019000903448006895
:1014F00040F480303249086000BF3148006800F491
:10150000003000900198401C0190009818B9019893
:10151000B0F5A04FF1D12A48006800F4003010B1B6
:101520000120009001E0002000900098012846D1A1
:1015300023484030006840F0805021494031086025
:101540002048006840F440401E4908601C480830AC
:1015500000681B49083108600846006840F40040F4
:1015600008600846006840F4A05008601648091F4B
:101570000860081F006840F08070091F086000BF05
:101580000F48006800F000700028F9D040F20570A4
:101590000E4908600A480830006820F00300084936
:1015A000083108600846006840F00200086000BF8B
:1015B00003480830006800F00C000828F8D10CBD82
:1015C000003802400070004008544007003C0240D0
:1015D00010B500F091F810BD10B51548006840F442
:1015E0007000134908601348006840F00100114979
:1015F000086000200F49083108600E4800680E4955
:1016000008400C4908600D48091D0860081F006863
:1016100020F48020091F0860002006490C31086072
:10162000FFF760FF4FF0006001498039086010BD8E
:1016300088ED00E000380240FFFFF6FE1030002485
:1016400010B50121084800F046F8012806D10748E6
:10165000006880F001000649C1F8A8020121024893
:1016600000F036F810BD000000440140A88242425C
:101670000080424210B50121880700F02CF80128B3
:1016800005D105480068C0430449C1F8B4020121EE
:10169000880700F01DF810BDB4024242000042422B
:1016A00010B50121074800F016F8012805D10648B9
:1016B0000068C0430549C1F8B8020121014800F0A3
:1016C00007F810BD000C0040B80242420000424240
:1016D000CA430282704730B502460020002300242E
:1016E000158A05EA0103958905EA010413B10CB1D5
:1016F000012000E0002030BD0448006820B103480C
:101700000068401E01490860704700007C0000200E
:1017100010B540F22551184800F044F850B317486E
:10172000007838BB144800F0F7F8154908700846EF
:1017300000781449144A1278885413480078401CE1
:10174000114908700846007802280CDB084600782A
:10175000801E0C49085C0D2805D10B480078401EFE
:10176000085C0A2803D008480078FF2802D101202D
:101770000249087010BD00000010014069000020FF
:1017800088000020DC0000206800002021B1828950
:1017900042F40052828104E082894DF6FF731A40C0
:1017A0008281704770B50246002400230025002086
:1017B00040F66A16B14200D100BFC1F3421501F0F4
:1017C0001F03012606FA03F3012D02D19689334047
:1017D00006E0022D02D1168A334001E0968A33409A
:1017E0000C12012606FA04F41688344013B10CB129
:1017F000012000E0002070BDF0B503460024002663
:101800000025002040F66A17B94200D100BF1846F3
:10181000C1F3421401F01F06012707FA06F5012C57
:1018200001D10C3004E0022C01D1103000E0143062
:101830001AB107682F43076002E00768AF430760EB
:10184000F0BD00002DE9FF4705460E460024A146E5
:1018500000BFA046B08900B100BF2C8A24F44054D8
:10186000F08804432C82AC8941F20C608443B08838
:1018700031890843718908430443AC81AC8A24F45C
:101880004074B0890443AC826846FFF71BFA2048D5
:10189000854202D01F48854202D1DDF80C9001E05C
:1018A000DDF80890A88900F4004040B109EBC900B8
:1018B00000EB091031684900B0FBF1F707E009EBD4
:1018C000C90000EB091031688900B0FBF1F7642012
:1018D000B7FBF0F004012009642101FB1078A8890E
:1018E00000F4004040B1322000EBC800B0FBF1F042
:1018F00000F00700044308E0322000EB08106421E8
:10190000B0FBF1F000F00F0004432C81BDE8FF872D
:10191000001001400014014001468888C0F308000F
:10192000704700BFFEE700BF7047000070B5154864
:10193000FFF7C8F91348406842F21072B0FBF2F1A9
:10194000481EB0F1807F00D31BE0481E4FF0E0221C
:10195000506150170F22002807DA13071D0E0A4B9B
:1019600000F00F04241F1D5503E013071C0E074B46
:101970001C5400BF00204FF0E0229061072010614E
:1019800000BF70BDDC01002018ED00E000E400E0C5
:1019900001B581B000201CE000214FF0E022116170
:1019A00028495161002191610121116100BF4FF06F
:1019B000E02109690091009901F0010121B100992C
:1019C00001F480310029F2D000214FF0E0221161B2
:1019D000401C4FF42F720199B1FBF2F18142DBD828
:1019E00011460198B0FBF1F201FB120048B3002050
:1019F0004FF0E02108614FF42F710198B0FBF1F234
:101A000001FB120040F6412148430121C1EBC00017
:101A10004FF0E0214861002088610120086100BF8B
:101A20004FF0E02000690090009800F0010020B124
:101A3000009800F480300028F2D000204FF0E02120
:101A400008610CBDDF4DE00001B581B000204FF012
:101A5000E02108610198C0EBC00000EB4000401E8F
:101A60004861002088610120086100BF4FF0E0203C
:101A700000690090009800F0010020B1009800F487
:101A800080300028F2D000204FF0E02108610CBD2A
:101A900000BF054A128802F04002002AF9D0C2B203
:101AA000014B9A80704700000010014070B5044659
:101AB00000F0F2F9A02000F093F900F0E1FB2046DD
:101AC00000F08EF900F0DCFB00F0E6F9A12000F058
:101AD00087F900F0D5FB002000F024F9054600F05E
:101AE00015FA284670BD70B505460C4600F0D4F9CD
:101AF000A02000F075F900F0C3FB284600F070F953
:101B000000F0BEFB204600F06BF900F0B9FB00F0DE
:101B1000FDF90A20FFF73CFF70BD000010B500245E
:101B20001E48006850B11E48006838B11C48001DAE
:101B3000006818B11A480830006868BB2820FFF711
:101B400027FF1648006808B901240FE01448006810
:101B500008B902240AE01248001D006808B90324ED
:101B600004E00F480830006800B9042400BF0B48A7
:101B700000680028FBD00A4800680028F7D0084811
:101B8000001D00680028F2D00548083000680028D1
:101B9000EDD02820FFF7FCFE204610BD0002404299
:101BA000080242420EB501218803FFF77BF80021AD
:101BB0000846FFF777FC02210420FFF773FC03219E
:101BC0000420FFF76FFC04210846FFF76BFC1D2083
:101BD000019001208DF80A0000208DF808000C20EB
:101BE0008DF8090001A8FEF717FF06208DF8000008
:101BF00001208DF803008DF801008DF80200684681
:101C0000FEF7E2FF08208DF800006846FEF7DCFFD3
:101C100009208DF800006846FEF7D6FF0A208DF8EF
:101C200000006846FEF7D0FF0EBD00001CB5012184
:101C30001120FFF717F80120009000208DF8040014
:101C40008DF8070069460548FEF730FF1C2000901C
:101C500069460348FEF72AFF1CBD00000000024051
:101C6000001002401CB501213020FEF7FBFF4FF4AD
:101C70008060009001208DF804008DF806008DF83A
:101C800007008DF8050069461448FEF70FFF4FF472
:101C9000C040009069461248FEF708FF4FF480707C
:101CA000009000208DF8060069460C48FEF7FEFE05
:101CB0004FF400710948FEF764FF4FF48061074854
:101CC000FEF75FFF4FF400510548FEF75AFF4FF44F
:101CD00080410348FEF755FF1CBD00000014024080
:101CE00000100240FFF722FE4FF4A060FEF7A8FFAD
:101CF000FFF7B8FFFFF79AFFFFF754FF00F03AF93C
:101D0000FEF744FFFFF786FBFEF7A6FC03A0FEF7F5
:101D1000B7FA01E000F08EF9FCE70000537461723D
:101D2000740D0A0070B505460024082616480068A0
:101D300020F440201449086018E00020134908608E
:101D40000420FFF781FE01201149C1F8A002022002
:101D5000FFF77AFE6006040E0C487C380068012804
:101D600001D1601CC4B20220FFF76EFE301EA6F146
:101D70000101CEB2E1D1012D02D100F00BF801E05A
:101D800000F064F8204670BD00040240A08240428A
:101D90000080404210B50F48006820F440200D49F3
:101DA00008600846006840F48020086000200A4966
:101DB00008600420FFF748FE00200849C1F8A4028B
:101DC0000420FFF741FE0120034908600420FFF7CB
:101DD0003BFE10BD00040240A08240420080404211
:101DE00070B5044608251748006820F440201549BE
:101DF00008600846006840F4802008601CE000206D
:101E0000114908600420FFF71FFE0120B0EBD41F2A
:101E100003D10D49091D086003E000200A49091D8E
:101E200008600420FFF710FE012007490860042025
:101E3000FFF70AFE6006040E281EA5F10101CDB2CF
:101E4000DDD170BD00040240A082404210B50F48B1
:101E5000006820F440200D4908600846006840F4FE
:101E60008020086000200A4908600420FFF7ECFD8C
:101E700001200849C1F8A4020420FFF7E5FD012074
:101E8000034908600420FFF7DFFD10BD0004024095
:101E9000A08240420080404210B51948006820F4FA
:101EA0004020174908600846006840F48020086018
:101EB0000020144908600420FFF7C6FD01201249E4
:101EC000C1F8A4020420FFF7BFFD01200D490860FE
:101ED0000420FFF7B9FD00200B49C1F8A40204203B
:101EE000FFF7B2FD0020074908600420FFF7ACFDB2
:101EF00001200549C1F8A4020420FFF7A5FD10BD8B
:101F000000040240A08240420080404210B51648C2
:101F1000006820F44020144908600846006840F436
:101F2000802008600020114908600420FFF78CFD24
:101F300000200F49C1F8A4020420FFF785FD01200D
:101F40000A4908600420FFF77FFD01200849C1F815
:101F5000A4020420FFF778FD002004490860042053
:101F6000FFF772FD10BD000000040240A082404255
:101F70000080404200B587B001210846FEF772FE9E
:101F800001211020FEF78EFE07220A212748FEF7C6
:101F9000D5FD072209212548FEF7D0FD02208DF846
:101FA000040003208DF8050000208DF806000120B4
:101FB0008DF807004002009069461C48FEF776FD48
:101FC00001208DF806008002009069461748FEF750
:101FD0006DFD4FF4E13003900020ADF81000ADF836
:101FE0001200ADF81400ADF818000C20ADF8160082
:101FF00003A90F48FFF726FC25208DF808000120D3
:102000008DF809008DF80A008DF80B0002A8FEF784
:10201000DBFD012240F225510548FFF7EDFB0121D0
:102020000348FFF7B3FB07B000BD0000000002400B
:102030000010014038B562480078012875D1614828
:102040000078002871D05F495FA0FEF719F90322DC
:1020500060A15C48FEF7BAF9E0B9FEF743FB5EA069
:10206000FEF70EF900205F4908600FE05E485D4A08
:10207000126850F822105DA0FEF702F96420FFF705
:1020800087FC58480068401C56490860554800685D
:102090000A28EBDB052257A14A48FEF797F940B919
:1020A000FEF7A6FB6420FFF773FC544954A0FEF72B
:1020B000E7F8062254A14348FEF788F940BB54A034
:1020C000FEF7DEF800204749086016E0454A12682E
:1020D000921D3C4B995C434A1078FFF704FD414840
:1020E0000068801D3749085C4D493E4A1268885493
:1020F0003C480068401C3B4908603A480068042896
:10210000E4DB59210420FFF7EEFC46A0FEF7B8F807
:10211000032248A12B48FEF759F9E8B946A0FEF77B
:10212000AFF800202F4908600EE047E02D490878FD
:10213000FFF7BCFC0446214641A0FEF7A1F8294860
:102140000068401C27490860264800680428EDDB29
:1021500032A0FEF795F800BF05223AA11948FEF714
:1021600035F968B969460020FEF738FF9DF802305E
:102170009DF801209DF8001034A0FEF781F800BF03
:10218000052237A10F48FEF721F968B969460020FA
:10219000FEF7FEFE9DF802309DF801209DF8031029
:1021A00031A0FEF76DF800BF4FF480710548FEF7CF
:1021B00058F90020314908700149087038BD000005
:1021C00069000020DC000020726563763A2020253B
:1021D00073000000646D6100646D612069740D0A14
:1021E0000000000000000020B400002025640D0A5B
:1021F00000000000746F6D656D0000000400002099
:1022000025730D0A0000000070777365743A0000B2
:102210007365742070617373776F72640D0A0000C8
:10222000800000207077736574206F7665720D0AE8
:102230000000000070773F00707720697320000075
:102240002563000074696D653F0000002564206807
:10225000202564206D2025642073200D0A000000D5
:10226000646174653F0000003230256420592025E8
:1022700064204D2025642044200D0A0068000020C1
:1022800010B500240020164908600420FFF7DCFB8D
:1022900001201449C1F8A4020420FFF7D5FB12481D
:1022A000006820F440201049086001200C490860B3
:1022B0000420FFF7C9FB07E0601C0446FA2803DD91
:1022C000FFF724FE012010BD05487C380068002877
:1022D000F2D1034908600420FFF7B6FB0020F2E7C3
:1022E000A082404200804042000402404FF0407013
:1022F000E1EE100A704700001823000800000020DB
:102300008C000000C4010008A42300088C000020F9
:10231000C4070000E00100080000000055534152CE
:10232000545F444D415265715F54783A2055534192
:10233000525420444D41207472616E736D69742053
:1023400072657175657374200D0A0000000000004D
:10235000000000000000000000000000000000007D
:10236000000000000000000000000000000000006D
:10237000000000000000000000000000000000005D
:10238000000000000000010203040102030406072C
:102390000809000000000000010204030000000022
:0423A0000000000039
:040000050800018965
:00000001FF
