:020000040800F2
:10000000180400209D010008A5010008A7010008B0
:10001000A9010008AB010008AD01000800000000C4
:10002000000000000000000000000000AF01000818
:10003000B101000800000000B3010008B50100088C
:10004000B7010008B7010008B7010008B7010008B0
:10005000B7010008B7010008B7010008B7010008A0
:10006000B7010008B7010008B7010008B701000890
:10007000B7010008B7010008B7010008B701000880
:10008000B7010008B7010008B7010008B701000870
:10009000B7010008B7010008B7010008B701000860
:1000A000B7010008B7010008B7010008B701000850
:1000B000B7010008B7010008B7010008B701000840
:1000C000B7010008B7010008B7010008B701000830
:1000D000B701000835080008B7010008B70100089B
:1000E000B7010008B7010008B7010008B701000810
:1000F000B7010008B7010008B7010008B701000800
:10010000B7010008B7010008B7010008B7010008EF
:10011000B7010008B7010008B7010008B7010008DF
:10012000B7010008B7010008B7010008B7010008CF
:10013000B7010008B7010008B7010008B7010008BF
:10014000B7010008B7010008B7010008B7010008AF
:10015000B7010008B7010008B7010008B70100089F
:10016000B7010008B7010008B7010008B70100088F
:10017000B7010008B7010008B7010008B70100087F
:10018000B7010008B7010008DFF80CD000F02EF826
:1001900000480047D10D0008180400200648804799
:1001A00006480047FEE7FEE7FEE7FEE7FEE7FEE75C
:1001B000FEE7FEE7FEE7FEE7CD070008890100083D
:1001C00030B50B46014600202022012409E021FA27
:1001D00002F59D4205D303FA02F5491B04FA02F524
:1001E0002844151EA2F10102F1DC30BD064C074D7A
:1001F00006E0E06840F0010394E8070098471034F7
:10020000AC42F6D3FFF7C4FF2C0F00084C0F0008D8
:1002100021B1826842F00102826003E0826822F02C
:1002200001028260704700000021084A1168084AF4
:100230001140D0E900231A4383681A43C3681A4364
:100240001143044AC2F8041370470000042301401C
:10025000E030FCFF002001400146C86C80B27047CE
:100260000246002013680B400BB1012000E0002083
:100270007047000030B50246002000235068104C43
:1002800020400D790C6844EA0524204350609068B2
:100290000C4C2040D1E903542C438D682C434D79FC
:1002A00044EA450420439060D06A20F470000C7D3D
:1002B000641EE4B2234340EA0350D06230BD000024
:1002C000FFFEFFFCFDF7FFC0F0B504460D46002021
:1002D0000021092D11DDE068A5F10A0606EB4607AD
:1002E000072606FA07F18843A5F10A0606EB46063B
:1002F00003FA06F10843E0600CE0206905EB4507CE
:10030000072606FA07F1884305EB450603FA06F1CE
:1003100008432061072A0FDA606B561E06EB86073A
:100320001F2606FA07F18843561E06EB860605FAD5
:1003300006F10843606322E00D2A0FDA206BD61F16
:1003400006EB86071F2606FA07F18843D61F06EB41
:10035000860605FA06F10843206310E0E06AA2F180
:100360000D0606EB86071F2606FA07F18843A2F161
:100370000D0606EB860605FA06F10843E062F0BDBD
:10038000816841F0804181607047000039B1084ABE
:100390001268012383401A43054B1A6006E0044AA1
:1003A0001268012383409A43014B1A607047000092
:1003B0000074004008B501460020009005480090F8
:1003C0002C2000EB9100009A1044009000980068E7
:1003D00080B208BD0074004030B5002200230A4CF2
:1003E000226840F6FE748440A243D1E900452C43C4
:1003F0008D682C43CD6844EA050303FA00F42243D8
:10040000014C226030BD00000074004008B500229D
:100410000092054A009200F10802009B1A440092E3
:10042000009A116008BD000000740040F0B50A4653
:1004300000210023002400BF3DE0012505FA01F35F
:10044000156805EA03049C4234D105684F00032671
:10045000BE40B543056015794E00B540066835438A
:1004600005601579012D02D01579022D16D1856808
:100470004F000326BE40B543856055794E00B54018
:10048000866835438560456801268E40B5434560E2
:10049000456896798E40B6B235434560C5684F00D1
:1004A0000326BE40B543C560D5794E00B540C66849
:1004B0003543C560491C1029BFD3F0BDF0B50023FA
:1004C00000244D07ED0E02FA05F3CE1000F12005D1
:1004D00055F826504E07F70E0F26BE40B543CF10F5
:1004E00000F1200646F82750CE1000F1200555F8FF
:1004F000265045EA0304CE1000F1200545F82640B9
:10050000F0BD4183704701837047000070B5002142
:1005100000230F22C4781CB3174C246804F4E06451
:10052000C4F5E064C4F30721C1F10404E3B20A4155
:1005300044789C40E1B28478144021430C07210E9A
:100540000E4C05786155047804F01F050124AC4079
:1005500005786D11AD0005F1E025C5F8004109E011
:10056000047804F01F050124AC40054D067876118F
:1005700045F8264070BD00000CED00E000E400E00E
:1005800080E100E002490143024A11607047000027
:100590000000FA050CED00E029B1064A126802439A
:1005A000044B1A6004E0034A12688243014B1A604C
:1005B000704700003038024029B1064A12680243F1
:1005C000044B1A6004E0034A12688243014B1A602C
:1005D000704700004038024029B1064A12680243C1
:1005E000044B1A6004E0034A12688243014B1A600C
:1005F0007047000044380240F0B50021002200247A
:10060000022500260223324F3F6807F00C0121B17A
:10061000042905D0082937D105E02E4F076036E0C0
:100620002D4F076033E02A4F3F1F3F68C7F38056C6
:10063000274F3F1F3F6807F03F036EB1264FB7FBC0
:10064000F3F7DFF88CC0ACF1040CDCF800C0CCF39D
:10065000881C07FB0CF40CE01E4FB7FBF3F7DFF828
:1006600070C0ACF1040CDCF800C0CCF3881C07FBB4
:100670000CF4174F3F1F3F68C7F301477F1C7D00F5
:10068000B4FBF5F7076002E0124F076000BF00BF40
:100690000F4F3F6807F0F0010909104F7A5C0768B7
:1006A000D74047600A4F3F6807F4E051890A0B4F73
:1006B0007A5C4768D7408760054F3F6807F4604120
:1006C000490B064F7A5C4768D740C760F0BD000011
:1006D000083802400024F40000127A0000000020D4
:1006E0000CB50020019000903448006840F4803040
:1006F0003249086000BF3148006800F400300090C3
:100700000198401C0190009818B90198B0F5A04FCD
:10071000F1D12A48006800F4003010B101200090A7
:1007200001E0002000900098012846D12348403085
:10073000006840F08050214940310860204800683E
:1007400040F440401E4908601C48083000681B49BE
:10075000083108600846006840F400400860084618
:10076000006840F4A05008601648091F0860081F80
:10077000006840F08070091F086000BF0F480068E3
:1007800000F000700028F9D040F205700E490860B2
:100790000A480830006820F0030008490831086062
:1007A0000846006840F00200086000BF03480830B7
:1007B000006800F00C000828F8D10CBD0038024099
:1007C0000070004008544007003C024010B5154836
:1007D000006840F47000134908601348006840F056
:1007E00001001149086000200F49083108600E48D7
:1007F00000680E4908400C4908600D48091D086052
:10080000081F006820F48020091F086000200649A6
:100810000C310860FFF764FF4FF000600149803938
:10082000086010BD88ED00E000380240FFFFF6FED2
:100830001030002410B540F225510A4800F085F828
:1008400001280ED1074800F039F9C4B22146054805
:1008500000F039F900BF8021024800F069F8002853
:10086000F9D110BD0010014021B1828942F400523B
:10087000828104E082894DF6FF731A4082817047BD
:1008800010B588B0044601210846FFF785FE012116
:100890001020FFF7A1FE02208DF8080003208DF83C
:1008A000090000208DF80A0001208DF80B004FF49C
:1008B000C060019001A91C48FFF7B8FD072209217B
:1008C0001948FFF7FBFD07220A211748FFF7F6FD3D
:1008D00004940020ADF81400ADF81600ADF818002F
:1008E000ADF81C000C20ADF81A0004A90F4800F068
:1008F0007BF825208DF80C0000208DF80D008DF878
:100900000E0001208DF80F0003A8FFF7FFFD012165
:100910000648FFF7A9FF012240F22551034800F0E5
:100920003EF808B010BD0000000002400010014079
:1009300002460020B1F5007F00D100BF13880B40B4
:100940000BB1012000E00020704770B50246002482
:1009500000230025002040F66A16B14200D100BFF6
:10096000C1F3421501F01F03012606FA03F3012D1E
:1009700002D19689334006E0022D02D1168A334017
:1009800001E0968A33400C12012606FA04F4168818
:10099000344013B10CB1012000E0002070BDF0B56F
:1009A0000346002400260025002040F66A17B942BD
:1009B00000D100BF1846C1F3421401F01F06012701
:1009C00007FA06F5012C01D10C3004E0022C01D10C
:1009D000103000E014301AB107682F43076002E0BE
:1009E0000768AF430760F0BD2DE9FF4705460E4697
:1009F0000024A14600BFA046B08900B100BF2C8AE8
:100A000024F44054F08804432C82AC8941F20C60F9
:100A10008443B08831890843718908430443AC8119
:100A2000AC8A24F44074B0890443AC826846FFF772
:100A3000E3FD2048854202D01F48854202D1DDF8FF
:100A40000C9001E0DDF80890A88900F4004040B166
:100A500009EBC90000EB091031684900B0FBF1F760
:100A600007E009EBC90000EB091031688900B0FB11
:100A7000F1F76420B7FBF0F004012009642101FBC9
:100A80001078A88900F4004040B1322000EBC80083
:100A9000B0FBF1F000F00700044308E0322000EB67
:100AA00008106421B0FBF1F000F00F0004432C812A
:100AB000BDE8FF870010014000140140014688880E
:100AC000C0F308007047C1F308028280704700003D
:100AD0000FB4054B10B503A9044A029800F018F8AA
:100AE00010BC5DF814FB0000AD0D000810000020E4
:100AF00002E008C8121F08C1002AFAD170477047E7
:100B0000002001E001C1121F002AFBD17047000044
:100B10002DE9FF4F89B09B460446002506E02528B5
:100B20000BD05A460B999047641C6D1C2078002806
:100B3000F5D10DB02846BDE8F08F0027B846012258
:100B4000474900E0074314F8013F203B02FA03F055
:100B50000842F7D120782E2819D114F8010F47F058
:100B600004072A280ED06FF02F022078A0F1300160
:100B700009290CD808EB880102EB410100EB0108C0
:100B8000641CF2E70A98641C50F8048B0A902078E1
:100B90000028CED0642808D0692806D075281ED039
:100BA0005A460B9990476D1C58E00A994FF00A0974
:100BB00001C90A91002802DA40422D2102E03905DC
:100BC00004D52B218DF82010012103E0F90704D072
:100BD0002021F7E78A4608AE0DE00021FAE70A99DE
:100BE0004FF00A0901C90A91F7E74946FFF7E8FA09
:100BF000303106F8011D0028F7D1ADEB060000F1F9
:100C00002009780701D44FF00108C84502DDA8EBA0
:100C1000090000E000208046002706E008A85A46A8
:100C2000C05D0B9990476D1C7F1C5745F6DB04E0B7
:100C300030205A460B9990476D1CB8F10001A8F17D
:100C40000108F5DC05E016F8010B5A460B999047B0
:100C50006D1CB9F10001A9F10109F4DC641C65E720
:100C60000928010000B58DB001210846FFF794FC6A
:100C700001210802FFF7B0FC0820019003208DF845
:100C8000080000208DF80B0001A91448FFF7CEFBE7
:100C90000020039004900590069003A8FFF7C4FA83
:100CA000002007908DF8200001208DF82100002001
:100CB00009900A900B9001208DF8300007A9084890
:100CC000FFF7D8FA0023012203210548FFF7FCFAB9
:100CD00001210348FFF79CFA0DB000BD000002405F
:100CE0000020014000B587B001210846FFF754FC01
:100CF00001214807FFF760FC1020019003208DF8C8
:100D0000080000208DF80B0001A90848FFF78EFBB2
:100D1000002003900490069003A9FFF75DFB0121DA
:100D20000020FFF733FB07B000BD000000000240C9
:100D300010B54FF4FA7390FBF3F290FBF3F403FB5E
:100D4000140114E000234FF0E0242361A361164B4B
:100D500063610123236100BF4FF0E0231B6903F4AB
:100D60008033002BF8D000234FF0E0242361131EC2
:100D7000A2F10102E6D1A9B14FF0E0242361A36101
:100D800045F208234B4363610123236100BF4FF009
:100D9000E0231B6903F48033002BF8D000234FF0CD
:100DA000E024236110BD0000A037A00070B5044608
:100DB0000D46A1B20548FFF786FE00BF802103481B
:100DC000FFF7B6FD0028F9D0204670BD00100140A5
:100DD0004FF4A060FFF7D6FB4FF4E130FFF750FD72
:100DE000FFF740FFFFF77EFF3F48006840F020001C
:100DF0003D4908603D48006840F480203B49086058
:100E0000081D006840F40070091D0860081D006896
:100E100040F48800091D0860081D006840F4802027
:100E2000091D08605EE07C210020FFF7EFFA6326D1
:100E30000020FFF7BFFA074631462DA0FFF748FE16
:100E400039462FA0FFF744FE3048FFF799FA00BF5C
:100E500002212E48FFF704FA0028F9D02B48FFF7AB
:100E6000FBF9044621462AA0FFF732FE40F6E44093
:100E70006043050B294629A0FFF72AFEB5F57A7FC6
:100E800018D31A481430006820F400701749143140
:100E900008604FF47A70FFF74BFF14481430006875
:100EA00040F400701149143108604FF47A70FFF774
:100EB0003FFF0FE04FF400710C48FFF724FB642064
:100EC000FFF736FF4FF400710848FFF71AFB642064
:100ED000FFF72EFF4FF4FA70FFF72AFF4FF4FA7076
:100EE000FFF726FF9FE70000303802400014024061
:100EF0006461635F76203D2025640D0A00000000D8
:100F00006461633D25640D0A00000000002001407B
:100F10006164633D25640D0A000000006164635F45
:100F2000763D25646D760D0A000000004C0F000828
:100F30000000002014000000F00A0008600F000804
:100F40001400002004040000000B00080000000052
:100F5000010203040102030406070809000000005F
:040000050800018965
:00000001FF
