:020000040800F2
:1000000068060020290200085B0500085305000867
:1000100057050008E3020008D10B000800000000AB
:100020000000000000000000000000004D06000875
:10003000E702000800000000E90500087D0700084D
:10004000430200084302000843020008430200087C
:100050004302000843020008E902000843020008C6
:1000600019030008490300087D0300084302000843
:10007000430200084302000843020008430200084C
:10008000430200084302000843020008430200083C
:10009000430200084302000843020008430200082C
:1000A00043020008ED08000843020008430200086C
:1000B0002109000843020008430200084302000827
:1000C00043020008430200084302000843020008FC
:1000D00043020008430200084302000843020008EC
:1000E00043020008430200084302000843020008DC
:1000F00043020008430200084302000843020008CC
:100100004302000843020008A9090008430200084E
:1001100043020008430200084302000843020008AB
:10012000430200084302000843020008430200089B
:10013000430200084302000843020008430200088B
:10014000430200084302000843020008430200087B
:10015000430200084302000843020008430200086B
:10016000430200084302000843020008430200085B
:10017000430200084302000843020008430200084B
:10018000430200084302000800F002F800F03CF8C7
:100190000AA090E8000C82448344AAF10107DA45E2
:1001A00001D100F031F8AFF2090EBAE80F0013F0F8
:1001B000010F18BFFB1A43F001031847500D000050
:1001C000700D0000103A24BF78C878C1FAD85207E1
:1001D00024BF30C830C144BF04680C6070470000C1
:1001E0000023002400250026103A28BF78C1FBD840
:1001F000520728BF30C148BF0B6070471FB500F0E1
:100200007FFE1FBD10B510BD00F031F81146FFF79D
:10021000F5FF00F01FFE00F04FF803B4FFF7F2FF08
:1002200003BC00F057F80000094880470948004720
:10023000FEE7FEE7FEE7FEE7FEE7FEE7FEE7FEE796
:10024000FEE7FEE704480549054A064B70470000F3
:100250008507000889010008680000206806002062
:10026000680200206802002070477047704775469A
:1002700000F02CF8AE4605006946534620F0070012
:10028000854618B020B5FFF7DDFFBDE820404FF0F0
:1002900000064FF000074FF000084FF0000B21F070
:1002A0000701AC46ACE8C009ACE8C009ACE8C0093D
:1002B000ACE8C0098D46704710B50446AFF3008026
:1002C0002046BDE81040FFF7A8BF00000048704777
:1002D0000800002001491820ABBEFEE726000200FE
:1002E000704700BFFEE7704710B500F0CFFC01205B
:1002F00000F06CF8012809D10548006880F0010081
:100300000449C1F8A002012000F05AF810BD000015
:10031000A08242420080424210B500F0B7FC0420A7
:1003200000F054F8012809D10548006880F0010068
:100330000449C1F8A802042000F042F810BD0000F2
:10034000A88242420080424210B500F09FFC08485B
:10035000006800F0080048B10648006880F001001D
:100360000549C1F8B40208200149086010BD000029
:10037000143C0140B40242420000424210B5142035
:1003800000F028FC00BF0C4800680028FBD01420B7
:1003900000F020FC102000F019F801280AD10648CE
:1003A000A830006880F001000449C1F8B8021020AC
:1003B00000F006F810BD0000100242420000424268
:1003C0000149086070470000143C014001460020CC
:1003D000034A12680A400AB1012000E00020704779
:1003E000143C0140002123498279002A3AD00A4670
:1003F000126803689A430B461A600A1D1268036864
:100400009A430B1D1A60027911440A6803681A4363
:100410000A60184A0832126803689A43154B083379
:100420001A601A1D126803689A43124B0C331A6043
:100430004279102A0ED11A1F126803681A430D4B15
:1004400008331A601A1D126803681A43094B0C33EB
:100450001A600DE00749427911440A6803681A439B
:100460000A6005E0027911440A6803689A430A6049
:1004700070470000003C0140F0B50A46002100230F
:10048000002400BF3DE0012505FA01F3156805EAE7
:1004900003049C4234D105684F000326BE40B54397
:1004A000056015794E00B54006683543056015793D
:1004B000012D02D01579022D16D185684F00032633
:1004C000BE40B543856055794E00B54086683543DA
:1004D0008560456801268E40B5434560456896793C
:1004E0008E40B6B235434560C5684F000326BE4016
:1004F000B543C560D5794E00B540C6683543C56083
:10050000491C1029BFD3F0BDF0B5002300244D07CE
:10051000ED0E02FA05F3CE1000F1200555F8265035
:100520004E07F70E0F26BE40B543CF1000F1200650
:1005300046F82750CE1000F1200555F8265045EA20
:100540000304CE1000F1200545F82640F0BD0183DC
:10055000704700BFFEE700BFFEE7704770B500219F
:1005600000230F22C4781CB3174C246804F4E06401
:10057000C4F5E064C4F30721C1F10404E3B20A4105
:1005800044789C40E1B28478144021430C07210E4A
:100590000E4C05786155047804F01F050124AC4029
:1005A00005786D11AD0005F1E025C5F8004109E0C1
:1005B000047804F01F050124AC40054D067876113F
:1005C00045F8264070BD00000CED00E000E400E0BE
:1005D00080E100E002490143024A116070470000D7
:1005E0000000FA050CED00E07047000029B1064A52
:1005F00012680243044B1A6004E0034A1268824303
:10060000014B1A60704700003038024029B1064A99
:1006100012680243044B1A6004E0034A12688243E2
:10062000014B1A60704700004038024029B1064A69
:1006300012680243044B1A6004E0034A12688243C2
:10064000014B1A60704700004438024070470000B8
:1006500030B500228B071C0F0F2303FA04F20B4B5B
:100660008C1053F824309343084C8D1044F82530F7
:1006700023468C1053F824308C07240F00FA04F41E
:100680002343024C8D1044F8253030BD083801401A
:100690000CB50020019000903448006840F4803090
:1006A0003249086000BF3148006800F40030009013
:1006B0000198401C0190009818B90198B0F5A04F1E
:1006C000F1D12A48006800F4003010B101200090F8
:1006D00001E0002000900098012846D123484030D6
:1006E000006840F08050214940310860204800688F
:1006F00040F440401E4908601C48083000681B490F
:10070000083108600846006840F400400860084668
:10071000006840F4A05008601648091F0860081FD0
:10072000006840F08070091F086000BF0F48006833
:1007300000F000700028F9D040F205700E49086002
:100740000A480830006820F00300084908310860B2
:100750000846006840F00200086000BF0348083007
:10076000006800F00C000828F8D10CBD00380240E9
:100770000070004008544007003C024010B500F0F3
:100780001BFA10BD10B51548006840F470001349FD
:1007900008601348006840F001001149086000201B
:1007A0000F49083108600E4800680E4908400C499E
:1007B00008600D48091D0860081F006820F48020AB
:1007C000091F0860002006490C310860FFF760FF30
:1007D0004FF0006001498039086010BD88ED00E0ED
:1007E00000380240FFFFF6FE103000247FB50546BA
:1007F0000C4601214804FFF719FF0295ADF80440AB
:100800000020ADF80600ADF80C0001A90D4800F07D
:1008100091F9012211460B4800F038F901210948ED
:1008200000F017F919208DF8000001208DF8010063
:1008300003208DF8020001208DF803006846FFF7C1
:100840008DFE7FBD0044014030B58BB004460D469F
:1008500001210802FFF7DAFE01212020FFF7C6FE82
:10086000092211461F48FFF74FFE4FF40070099010
:1008700002208DF8280003208DF8290000208DF833
:100880002A0001208DF82B0009A91648FFF7F4FD76
:100890000020ADF81A00ADF818500794ADF820000C
:1008A00006A9114800F046F96020ADF804000120C7
:1008B000ADF806000020ADF8100041F2883003903A
:1008C00001A9094800F0ECF80821074800F026F9D2
:1008D0000121054800F0AEF80121034800F0B9F805
:1008E0000BB030BD001402400020004010B50121C3
:1008F000084800F0BAF8012806D10748006880F0DF
:1009000001000649C1F8A8020121024800F09EF842
:1009100010BD000000440140A882424200804242D3
:1009200010B50121880700F0A0F8012805D105487D
:100930000068C0430449C1F8B4020121880700F0EF
:1009400085F810BDB4024242000042427FB5054620
:100950000C4601210846FFF759FE0295ADF8044008
:100960000020ADF80600ADF80C0001A94FF0804062
:1009700000F0E0F801221146900700F087F801210D
:10098000880700F066F81C208DF8000001208DF823
:10099000010003208DF8020001208DF80300684655
:1009A000FFF7DCFD7FBD000010B50121074800F016
:1009B0005CF8012805D106480068C0430549C1F824
:1009C000B8020121014800F041F810BD000C0040C0
:1009D000B8024242000042427FB505460C46012162
:1009E0000820FFF713FE0295ADF804400020ADF893
:1009F0000600ADF80C0001A90D4800F09BF801229B
:100A000011460B4800F042F80121094800F021F896
:100A100032208DF8000001208DF8010003208DF8B0
:100A2000020001208DF803006846FFF797FD7FBDA7
:100A3000000C004021B1028842F08002028004E0F4
:100A400002884FF67F731A4002807047CA430282C1
:100A5000704721B1028842F00102028004E002885E
:100A60004FF6FE731A400280704730B502460020F0
:100A700000230024158A05EA0103958905EA01048B
:100A800013B10CB1012000E0002030BD1AB1838900
:100A90000B43838102E083898B438381704700008D
:100AA00070B5002400220023058C4FF6FE763540F9
:100AB0000584028C8388048B4FF68F752C40B51EFD
:100AC0002C400D882C43751E2A408D892A434D8861
:100AD0002A43104DA84202D00F4DA84213D14FF621
:100AE000F7752A40CD892A434FF6FB752A408D8839
:100AF0002A434FF6FF652B404FF6FF552B400D8ADA
:100B00002B434D8A2B43838004838D684563028485
:100B100070BD000000000140000401400A460021B1
:100B2000018B4FF6F77319401143018370474163FE
:100B30007047000000220288184B98420ED0184BD4
:100B400098420BD0B0F1804F08D0164B984205D098
:100B5000154B984202D0154B984204D14FF68F7333
:100B60001A404B881A43124B984207D0114B9842B7
:100B700004D04FF6FF431A400B891A4302804B689A
:100B8000C3620B880385054B984202D0044B984200
:100B900001D18B7A038601238382704700000140D4
:100BA000000401400004004000080040000C004028
:100BB00000100040001400400448006820B10348C1
:100BC0000068401E014908607047000004000020D2
:100BD00000BFFEE701B581B000201CE000214FF00E
:100BE000E0221161284951610021916101211161C7
:100BF00000BF4FF0E02109690091009901F0010167
:100C000021B1009901F480310029F2D000214FF088
:100C1000E0221161401C4FF42F720199B1FBF2F1F7
:100C20008142DBD811460198B0FBF1F201FB1200C2
:100C300048B300204FF0E02108614FF42F71019874
:100C4000B0FBF1F201FB120040F6412148430121C3
:100C5000C1EBC0004FF0E021486100208861012015
:100C6000086100BF4FF0E02000690090009800F09C
:100C7000010020B1009800F480300028F2D000205C
:100C80004FF0E02108610CBDDF4DE00010B50024FD
:100C90001E48006850B11E48006838B11C48001D4D
:100CA000006818B11A480830006868BB2820FFF7B0
:100CB00091FF1648006808B901240FE01448006845
:100CC00008B902240AE01248001D006808B903248C
:100CD00004E00F480830006800B9042400BF0B4846
:100CE00000680028FBD00A4800680028F7D00848B0
:100CF000001D00680028F2D0054808300068002870
:100D0000EDD02820FFF766FF204610BD00024042CC
:100D1000080242420EB501218803FFF787FC00213B
:100D20000846FFF795FC02210420FFF791FC032100
:100D30000420FFF78DFC04210846FFF789FC1D20E5
:100D4000019001208DF80A0000208DF808000C2089
:100D50008DF8090001A8FFF745FB06208DF800007B
:100D600001208DF803008DF801008DF8020068461F
:100D7000FFF7F4FB08208DF800006846FFF7EEFB54
:100D800009208DF800006846FFF7E8FB0A208DF87F
:100D900000006846FFF7E2FB0EBD00001CB5012114
:100DA0001120FFF723FC0120009000208DF80400A3
:100DB0008DF8070069460548FFF75EFB1C20009090
:100DC00069460348FFF758FB1CBD000000000240C5
:100DD000001002401CB501213020FFF707FC4FF442
:100DE0008060009001208DF804008DF806008DF8D9
:100DF00007008DF8050069461448FFF73DFB4FF4E6
:100E0000C040009069461248FFF736FB4FF48070EF
:100E1000009000208DF8060069460C48FFF72CFB77
:100E20004FF400710948FFF792FB4FF480610748C7
:100E3000FFF78DFB4FF400510548FFF788FB4FF497
:100E400080410348FFF783FB1CBD000000140240F3
:100E5000001002404FF4A060FFF7BCFBFFF7BAFFA1
:100E6000FFF79CFFFFF756FF42F2CF0140F2CF7031
:100E7000FFF76CFD42F2CF0142F20F70FFF7ACFDBD
:100E800044F29F114CF24F30FFF7B0FC42F2CF0119
:100E90006420FFF7D9FC32211748FFF748FE29E00C
:100EA0000020164908600CE0144801681248FFF75A
:100EB0003EFE3220FFF78EFE104800680A300F49D0
:100EC00008600E4800686428EEDB64200B49086067
:100ED0000CE00A4801680848FFF729FE3220FFF7B6
:100EE00079FE064800680A3804490860034800682B
:100EF0000028EEDCD4E700000020004000000020C5
:100F00004FF04070E1EE100A704700002C0F00080F
:100F10000000002008000000C4010008340F000891
:100F20000800002060060000E0010008000000004A
:040F300000000000BD
:040000050800018965
:00000001FF
