:020000040800F2
:100000009007002055020008CD1900087F1900084C
:10001000C9190008671600080B200008000000003E
:10002000000000000000000000000000891B000824
:100030006B160008000000005D1A0008B91C0008DB
:100040006F0200086F0200086F0200086F020008CC
:100050006F0200086F0200086D1600086F020008AA
:100060009D160008CD160008011700086F02000851
:100070006F0200086F0200086F0200086F0200089C
:100080006F0200086F0200086F0200086F0200088C
:100090006F0200086F0200086F0200086F0200087C
:1000A0006F020008291D00086F0200086F02000897
:1000B0005D1D00086F0200086F0200086F02000853
:1000C0006F0200086F0200086F0200086F0200084C
:1000D0006F020008F91D00086F0200086F02000897
:1000E0006F0200086F0200086F0200086F0200082C
:1000F0006F0200086F0200086F0200086F0200081C
:100100006F0200086F020008891D00086F020008D6
:100110006F0200086F0200086F0200086F020008FB
:100120006F0200086F0200086F0200086F020008EB
:100130006F0200086F0200086F0200086F020008DB
:100140006F0200086F0200086F0200086F020008CB
:100150006F0200086F0200086F0200086F020008BB
:100160006F0200086F0200086F0200086F020008AB
:100170006F0200086F0200086F0200086F0200089B
:100180006F0200086F02000800F002F800F052F859
:100190000AA090E8000C82448344AAF10107DA45E2
:1001A00001D100F047F8AFF2090EBAE80F0013F0E2
:1001B000010F18BFFB1A43F001031847102D000070
:1001C000302D0000103A24BF78C878C1FAD8520701
:1001D00024BF30C830C144BF04680C6070470000C1
:1001E0000023002400250026103A28BF78C1FBD840
:1001F000520728BF30C148BF0B607047662902F024
:100200001886642900F0B280752900F0AF80732948
:1002100000F08883002070471FB502F005FE00F053
:10022000BFFB04000020002102F0DCF9E0601FBDEC
:1002300010B510BD00F0D0FC1146FFF7EDFF02F045
:100240009FF800F0EEFC03B4FFF7F2FF03BC01F0EF
:10025000F6FE00000948804709480047FEE7FEE730
:10026000FEE7FEE7FEE7FEE7FEE7FEE7FEE7FEE766
:1002700004480549054A064B70470000C11C0008A8
:1002800089010008900100209007002090030020C1
:1002900090030020704700000FB4044910B503AA72
:1002A000029800F043FB10BC5DF814FB180000201E
:1002B0002DE9F0410E460446002020622046E16808
:1002C000884730B3252805D0D4E901219047206A1A
:1002D000401CF2E7E168204600278847050018D057
:1002E000A5F14100192802D820354FF400673246A5
:1002F000294620462760FFF781FF40B1012804D03E
:10030000F61D26F007060836D8E7361DD6E728463C
:10031000DAE7206ABDE8F08170B50C460546012A8F
:1003200005D02878800600D5EA69002302E0012381
:1003300005E05B1C934202D2E05C0028F9D1A86979
:10034000E618C01AA861286A184428622846AFF344
:10035000008004E0D5E9012114F8010B9047B44274
:10036000F8D32846AFF3008070BD00002DE9F041BE
:100370000646002410687529314616A510D0AFF343
:100380000080002802DA404213A507E031688A079E
:1003900001D512A502E0490704D511A5012401E009
:1003A000AFF3008000210A2206F1240709E0B0FB28
:1003B000F2FCB0FBF2F302FB1C003030785418461C
:1003C000491C0028F3D123462A463046BDE8F041B7
:1003D00000F02EB8000000002D0000002B000000EF
:1003E000200000004FF000020429C0F0128010F03D
:1003F000030C00F0AF82CCF1040CBCF1020F18BF6B
:1004000000F8012BA8BF20F8022BA1EB0C0100F093
:10041000A1BA5FEAC17C24BF00F8012B00F8012BD0
:1004200048BF00F8012B704770477047704770470E
:100430002DE9F0470D4699469246044600F12408FE
:100440000168880604D5E06921F01001216000E010
:100450000120A84201DD471B00E00027A1697A19AD
:1004600002EB0900081AA0612078C00602D42046D9
:10047000AFF30080002608E0D4E901211AF8060055
:100480009047206A401C761C20624E45F4DB2078A1
:10049000C0060AD52046AFF3008006E0D4E901216A
:1004A00030209047206A401C2062381EA7F10107C7
:1004B000F4DC07E0D4E9012118F805009047206A30
:1004C000401C2062281EA5F10105F3DC2046AFF395
:1004D00000802078000602D50220BDE8F0870120C8
:1004E000FBE770472DE9FF4F0C461E464FF0FF37E4
:1004F0008BB0D2E90001DDF860800A908A46C1F332
:100500000A5505B93D46002108464FF00000BAF1F2
:10051000000F00F4400005DA00EB80004FF44001CA
:1005200001EA50004FEA9059B9F1010F00DDB946D8
:100530000A9850EA4A000ED044F61050A5F2FF3552
:1005400045432F14B8F1000F1ED07542291E1EDD41
:10055000C9F100021CE0B8F1010F4FF0000001D01A
:10056000302103E0F24305E02154401CB042FBDBA4
:1005700030460022002121540B99C1F80880C1E9BE
:1005800000200FB0BDE8F08FBD1B6D1CDEE74A46B2
:1005900000DA694206A800F0A5FA06AB93E8070066
:1005A00003AB83E8070050460A9900F083FB8DE80F
:1005B0000700A0F500501F3800900398002D0ADDB9
:1005C00042F21F014A460844002303A903906846EB
:1005D00000F0ECFD09E0A0F500504A461F3800236A
:1005E00003A90390684600F0F6FD8DE807000004BB
:1005F000000C03D04FF0FF30410800E01046B8F186
:10060000000F03D00022009215461EE0751E05D48F
:1006100000F0CAF9303262556D1EF9D5B346012299
:10062000084302D000227F1C04E02078302801D14A
:1006300000227F1E002A099784D01DE0112D07DAC1
:1006400000F0B2F9303262556D1C50EA0102F5D16A
:10065000084302D00098C8B10EE00021681E05E0F2
:10066000235C625C63542254401E491C8142F7DBC8
:10067000AB46A81B401E0990002004F80B000B9805
:10068000099AC0F80880C0E9002B7AE711264FF0DC
:10069000000857E72DE9F04F88460446D21D22F0A6
:1006A000070191B0D1E90001CDE90A0101F0AFFCE9
:1006B00002460B98C00F01D02D2007E0206881076B
:1006C00001D52B2002E0202101EAC000032A099075
:1006D00001D0072A05DB03464146204600F0C2F957
:1006E0000BE12078800601D5E06900E00620B8F132
:1006F000650F814606D0B8F1660F18D0B8F1670FC4
:1007000070D131E00020B9F1110F009001DB11230D
:1007100001E009F101030AAA01A90CA8FFF7E2FE12
:10072000DDE90C70002609F10105834647E0012050
:100730004B4600904FF000470AAA01A90CA8FFF70A
:10074000D1FEDDE90DB00C995D46002610B909F126
:1007500001000D18B9EB050003D4C0F1FF3609F113
:100760000105A5EB09002BE0B9F1010F01DA4FF00B
:1007700001090020B9F1110F0090484601DD112355
:1007800000E003460AAA01A90CA8FFF7ABFEDDE9C9
:100790000C704D4600268346207800070AD4AB45EE
:1007A00000DA5D4601A8012D04DD411911F8011C94
:1007B000302907D04F4502DA17F1040F04DA01207F
:1007C00082460FE06D1EEEE7002F02DCED1B3E447B
:1007D00003E0781CA84200DD7D1CB81B00F1010A73
:1007E0004FF000472078000703D4AA4501DB4FF003
:1007F000FF3A0021B7F1004F0DF143088DF8431087
:1008000024D002202B23002F01DA7F422D230A213E
:10081000021EA0F1010000DC5FB197FBF1FC97FB29
:10082000F1F201FB1C7C17460CF1300C08F801CDED
:10083000EEE7A8F1010003702188090501D54521E3
:1008400000E06521A0F1010800F8011C09980FA93A
:10085000A1EB0807FF1D00B10120411901EBEA706F
:10086000A1693844081A401EA0612078C00602D44D
:100870002046AFF30080099828B1D4E901219047C0
:10088000206A401C20622078C00622D52046AFF3A3
:1008900000801EE0002E04DBB34502DD01A8805D70
:1008A00000E03020D4E901219047206A401C2062FA
:1008B000761CAAF101005FEA000A0AD100F070F884
:1008C000C0680168405CD4E901219047206A401C5F
:1008D0002062281EA5F10105DCDC07E0D4E9012136
:1008E00018F8010B9047206A401C2062381EA7F1BF
:1008F0000107F3DC2046AFF30080032011B041E68E
:1009000010B5436913B1AFF3008001E0FFF704FDB8
:10091000012010BD127800F124010A7000224A70F3
:100920000122EDE711684FF0FF32E9E7074B70B5A0
:100930000D467B4400F083F80446284600F044F955
:1009400010B14FF0FF3070BD204670BD2B18000075
:100950004FF0000200B5134694469646203922BF58
:10096000A0E80C50A0E80C50B1F12001BFF4F7AFA3
:10097000090728BFA0E80C5048BF0CC05DF804EB85
:10098000890028BF40F8042B08BF704748BF20F8F3
:10099000022B11F0804F18BF00F8012B70470000A8
:1009A000004870475001002030B5B0F10A024FEA0C
:1009B000900E71F100034EEA817EB0EB0E0061EB08
:1009C00091014FEA101E4EEA017E10EB0E0041EB42
:1009D00011114FEA102E4EEA016E10EB0E0041EBA2
:1009E00011214FEA104E4EEA014E10EB0E0041EB82
:1009F0001141401841F100014FEAD00040EA417036
:100A00004FEAD10110EB80054FEA810444EA90746B
:100A100044EB01046D1944EB0404521BA3414FF055
:100A2000000348BF0A3200D530BD401C41F100012F
:100A300030BD000001694A1C02610878704700B5AA
:100A40008FB0CDE901310021059105497944CDE907
:100A5000031011466846FFF72BFC0FB000BD0000E5
:100A6000E5FFFFFF2DE9F0411F460446032601681C
:100A7000072A01F4006004DB08B116A505E016A5FD
:100A800003E008B115A500E015A521F010002060D5
:100A9000A069C01EA0610FB1401EA0612046AFF347
:100AA00000804FB1D4E9012138469047206A401CAC
:100AB0002062C01C206206E0206AFAE7D4E9012126
:100AC00015F8010B9047761EF8D22046AFF3008050
:100AD000BDE8F0814E414E006E616E00494E460009
:100AE000696E66002DE9F047814616468AB03548A2
:100AF00078440DC88DE80D0032487844801C03AC62
:100B00000DC884E80D0041F69B300844372190FB66
:100B1000F1F290FBF1F5A5F1800501FB12041B3CFD
:100B200002D56442012000E00020DFF898A0804652
:100B30000027FA44AAF1BE0A0EE0E0070AD03246C6
:100B4000684607EB470101230AEB810100F043FBF4
:100B50008DE8070064107F1C002CEED1194F7F44F4
:100B6000AE3F19E0E80715D007EB04100DF1180AA5
:100B700090E80E008AE80E00C068F04201D1981992
:100B800008903246012306A903A800F024FB03AB1A
:100B900083E807006D10641C002DE3D14FF00103C2
:100BA00032466946B8F1000F03A802D000F0FEFA01
:100BB00001E000F010FBC9E90001C9F808200AB003
:100BC000BDE8F087C0230000007B00F08000704784
:100BD00000487047300100207546FFF7F9FFAE4628
:100BE00005006946534620F00700854618B020B539
:100BF000FFF73EFBBDE820404FF000064FF0000736
:100C00004FF000084FF0000B21F00701AC46ACE8B4
:100C1000C009ACE8C009ACE8C009ACE8C0098D4621
:100C2000704710B50446AFF300802046BDE8104081
:100C3000FFF709BB4FF0013C50F8042B51F8043B7F
:100C40009A4221D1A2EB0C03934313EACC1317D1A0
:100C500050F8042B51F8043B9A4215D1A2EB0C0337
:100C6000934313EACC130BD150F8042B51F8043BF7
:100C70009A4209D1A2EB0C03934313EACC13DBD0C5
:100C80004FF00000704700BFD01A01BAB1FA81F1ED
:100C900001F0180122FA01F0CB40C1F12001DBB2D2
:100CA000C0B2C01A2CFA01F3D11A914311EAC31150
:100CB000E6D170475FEA400C08BF91F0000F4FEAA1
:100CC0008C234FEAC12243EA51514FEA1C5018BF0E
:100CD00000F5F0404FEA300018BF41F000415FEAF4
:100CE0006C5C00F02980BCF1FF3F08BF40F0804001
:100CF0007047130C06BF12044FF0100C4FF0000C9D
:100D0000130E04BF12020CF1080C130F04BF1201E2
:100D10000CF1040C930F04BF92000CF1020CD30FE2
:100D200004BF52000CF1010C11464FF00002A0F17B
:100D30001F00A0EB0C00704711F0004F08BF704778
:100D400031F000413FF4D5AF0B0C06BF09044FF062
:100D5000100C4FF0000C0B0E04BF09020CF1080C34
:100D60000B0F04BF09010CF1040C8B0F04BF8900A9
:100D70000CF1020CCB0F04BF49000CF1010CCCF1BB
:100D80002003A0EB0C0022FA03F302FA0CF241EA72
:100D9000030100F10100704720F07F4C80EA03005E
:100DA00023F07F47ACEB070303F57C5300F00040D2
:100DB00003F1FF032DE980494FEA154B09B44FEACF
:100DC000144325EA0B4E24EA03480FF2042606EBEF
:100DD000132749083E785FEA320203FB0667C7F52E
:100DE000000707FB06F64FEA54374FEAD64606F1EE
:100DF000020607FB066CCCF1005C4FEA1C472CEAAC
:100E0000074C07FB06F40CFB06F504EB15464FEA0E
:100E1000961634BF00204FF000404FEAD13706FB52
:100E200007FC4FEA1C4C0CFB0BF7D21B03FB0CF727
:100E300061EB07010CFB0EF7B0EB074072EB1742BA
:100E40000CFB08F734BFA2EB0742B2EB074261EBA1
:100E500017414FEA0C444FEA910706FB07FC4FEAA3
:100E60001C4C0CFB0BF7B0EBC74072EB573203FB8B
:100E70000CF734BFA2EBC742B2EBC74261EB57316C
:100E80000CFB0EF7B0EBC70072EB57720CFB08F7C8
:100E900034BFA2EBC702B2EBC70261EB5771039FED
:100EA0004FEA816141EA921104EBCC044FEAD13759
:100EB0004FEA826206FB07FC42EA90124FEA80602A
:100EC0004FEA1C4C0CFB0BF7D21B03FB0CF761EB3E
:100ED00007010CFB0EF7B0EB074072EB17420CFB5F
:100EE00008F734BFA2EB0742B2EB074261EB1741B0
:100EF0004FEA8C554FEA910704EB9C2406FB07FC54
:100F00004FEA1C4C0CFB0BF7B0EBC74072EB5732AF
:100F100003FB0CF734BFA2EBC742B2EBC74261EB55
:100F200057310CFB0EF7B0EBC70072EB57720CFB9E
:100F300008F734BFA2EBC702B2EBC70261EB5771EF
:100F400015EB4C254FEA816141EA92114FEA82622A
:100F50004FEAD13742EA901206FB07FC44F1000445
:100F60004FEA80604FEA1C4C0CFB0BF7D21B03FBD3
:100F70000CF761EB07010CFB0EF7B0EB074072EBCF
:100F800017420CFB08F734BFA2EB0742B2EB074253
:100F900061EB174115EB1C154FEA813141EA924193
:100FA0004FEA823242EA90424FEA80304FEA0C76B2
:100FB00044F1000448EA03434EEA0B484FF0000EA8
:100FC000B2EB080C71EB030724BF624639464EEBC7
:100FD0000E0E4FF0000B0018524149414BEB0B0B2A
:100FE000B2EB080C71EB03077BF1000B24BF6246E8
:100FF00039464EEB0E0E4FF0000B0018524149419E
:101000004BEB0B0BB2EB080C71EB03077BF1000B06
:1010100024BF624639464EEB0E0E51EA020718BF56
:1010200046F0010616EB0E7655F1000254F1000170
:1010300003D5BDE88901BDE80088BDE88901BDE8A8
:101040000048B619524141EB0101A3F10103704779
:1010500080807F7E7D7C7B7A7978777676757473F5
:10106000727171706F6E6E6D6C6C6B6A6A696868B4
:10107000676666656464636362616160605F5F5E4A
:101080005E5D5D5C5C5B5B5A5A59595858575756C0
:101090005655555554545353525252515150505025
:1010A0004F4F4F4E4E4D4D4D4C4C4C4B4B4B4A4A77
:1010B0004A494949484848474747474646464545BB
:1010C00045444444444343434342424242414141F4
:1010D000002B9C4630D477002BD01CB54FEA370745
:1010E00003B44FF010004FF01001BAF1000F06D01A
:1010F000BCF1000FDCBF40F0080040F008014FF0E9
:1011000000000FBCBDE810400BF1010BBBF1010F5B
:1011100008BF5FEA170722BF12F1010211F10101B6
:101120004FF0004143F1000300F0004043EA0000AB
:101130007047F9D35708D0E746EA064613F1400F47
:101140004FEA16461FDD13F1200FDFBF16430A4694
:10115000002120335B42BED0C3F1200746EA064699
:1011600002FA07F74FEA164646EA0706C3F12007D8
:1011700022FA03F201FA07F721FA03F14FF0000314
:1011800042EA0702A7E746EA020646EA06464FEAAF
:10119000164646EA0106BCBF46EA0646360C4FF044
:1011A00000034FF000024FF0000194E72DE9804C5E
:1011B0009A46934670B491E8380007C831EA400C6B
:1011C00048BF34EA430C03D5FFF7E6FDFFF780FF85
:1011D000F0BCBDE8008C2DE9804C9A46934670B473
:1011E00091E8380007C810F0804F08BF13F0804F17
:1011F00003D100F005F8FFF76BFFF0BCBDE8008CF1
:1012000020F07F4780EA030023F07F4C07EB0C03BC
:10121000A3F57C5300F00040A3F1FE0392F0000F11
:1012200000F0B38095F0000F00F077802DE90149C0
:101230004FEA11404FEA144621EA004800FB06FC41
:1012400024EA064708FB06F607FB08F800FB07F749
:1012500018EB06484CEB164C4FEA124B18EB0748BC
:101260004FEA15464CEB174022EA0B4E0BFB06FCEF
:1012700025EA06470EFB06F607FB0EFE0BFB07F7FB
:101280001EEB064E4CEB164C4FF000061EEB074EC5
:101290004CEB174B18EB0B0840F1000018EB0E0B52
:1012A00058EB000840F100008F1A4FF000013CBFDE
:1012B000C943661B14BFB5EB040C00213CBFC943F6
:1012C000F61B4FEA17444EEA8E0E27EA04454FEA12
:1012D0001C4704FB07622CEA074C05FB07F70CFBD5
:1012E00005F604FB0CFC16EB074642EB174216EB27
:1012F0000C4642EB1C421BEB060658EB0202414136
:1013000046EA9E0601D5BDE80189B619524141EB76
:101310000101A3F10103BDE801894FEA14454FEA39
:10132000114724EA054621EA074C05FB07F406FBB2
:1013300007F70CFB06F105FB0CFC11EB074144EB36
:1013400017444FEA124711EB0C4144EB1C4422EACC
:10135000074C05FB07F206FB07F70CFB06F605FB3F
:101360000CFC16EB074642EB174216EB0C4642EB21
:101370001C456A1854F1000148BF7047B619524124
:1013800041EB0101A3F10103704795F0000F37D045
:101390004FEA11424FEA144721EA024624EA074C79
:1013A00002FB07F106FB07F70CFB06F402FB0CFC43
:1013B00014EB074441EB17414FEA154714EB0C447B
:1013C00041EB1C4125EA074C02FB07F506FB07F73A
:1013D0000CFB06F602FB0CFC16EB074645EB17452B
:1013E00016EB0C4645EB1C42121951F1000148BFA7
:1013F0007047B619524141EB0101A3F10103704757
:101400004FEA14454FEA114724EA054621EA074C02
:1014100005FB07F106FB07F70CFB06F24FF0000691
:1014200005FB0CFC12EB074241EB174112EB0C429F
:1014300051EB1C4148BF7047921841EB0101A3F1E9
:101440000103704710B5084800F008F900BF0221F9
:10145000054800F073F80128F9D1034800F06AF854
:101460000446204610BD00000021014000B58DB0AB
:101470000121084600F0F4FA0121480200F000FBC7
:101480002020019003208DF8080000208DF80B002B
:1014900001A9144800F006FA00200390049005907A
:1014A000069003A800F02EF8002007908DF8200089
:1014B00001208DF82100002009900A900B90012056
:1014C0008DF8300007A9084800F042F800230122F7
:1014D0000521054800F066F80121034800F006F8F0
:1014E0000DB000BD000002400021014021B1826822
:1014F00042F00102826003E0826822F00102826011
:10150000704700000021084A1168084A1140D0E9DC
:1015100000231A4383681A43C3681A431143044AD9
:10152000C2F804137047000004230140E030FCFFC0
:10153000002001400146C86C80B27047024600207E
:1015400013680B400BB1012000E000207047000041
:1015500030B50246002000235068104C20400D7921
:101560000C6844EA05242043506090680C4C2040ED
:10157000D1E903542C438D682C434D7944EA45044A
:1015800020439060D06A20F470000C7D641EE4B2A9
:10159000234340EA0350D06230BD0000FFFEFFFC51
:1015A000FDF7FFC0F0B504460D4600200021092DCF
:1015B00011DDE068A5F10A0606EB4607072606FAE4
:1015C00007F18843A5F10A0606EB460603FA06F181
:1015D0000843E0600CE0206905EB4507072606FAA2
:1015E00007F1884305EB450603FA06F1084320613D
:1015F000072A0FDA606B561E06EB86071F2606FACF
:1016000007F18843561E06EB860605FA06F10843E5
:10161000606322E00D2A0FDA206BD61F06EB8607E7
:101620001F2606FA07F18843D61F06EB860605FA41
:1016300006F10843206310E0E06AA2F10D0606EB14
:1016400086071F2606FA07F18843A2F10D0606EB6E
:10165000860605FA06F10843E062F0BD816841F0B4
:1016600080418160704700BFFEE7704710B500F011
:10167000A3FD012000F06CF8012809D1054800689D
:1016800080F001000449C1F8A002012000F05AF8DE
:1016900010BD0000A08242420080424210B500F01E
:1016A0008BFD042000F054F8012809D1054800689A
:1016B00080F001000449C1F8A802042000F042F8BB
:1016C00010BD0000A88242420080424210B500F0E6
:1016D00073FD0848006800F0080048B1064800683B
:1016E00080F001000549C1F8B402082001490860F2
:1016F00010BD0000143C0140B402424200004242CE
:1017000010B5142000F0D0FC00BF0C480068002881
:10171000FBD0142000F0C8FC102000F019F80128BC
:101720000AD10648A830006880F001000449C1F8D9
:10173000B802102000F006F810BD0000100242426E
:10174000000042420149086070470000143C01401B
:1017500001460020034A12680A400AB1012000E055
:1017600000207047143C0140002123498279002A5F
:101770003AD00A46126803689A430B461A600A1D5B
:10178000126803689A430B1D1A60027911440A68B3
:1017900003681A430A60184A0832126803689A43B9
:1017A000154B08331A601A1D126803689A43124BCE
:1017B0000C331A604279102A0ED11A1F126803687E
:1017C0001A430D4B08331A601A1D126803681A4336
:1017D000094B0C331A600DE00749427911440A683D
:1017E00003681A430A6005E0027911440A68036835
:1017F0009A430A6070470000003C014010B5084859
:10180000FFF72CFF00BF02210548FFF797FE0128D4
:10181000F9D10348FFF78EFE0446204610BD0000B4
:101820000022014000B58DB00121202000F018F900
:101830000121880200F024F98020019003208DF816
:10184000080000208DF80B0001A9144800F02AF8C8
:101850000020039004900590069003A8FFF752FE25
:10186000002007908DF8200001208DF82100002035
:1018700009900A900B9001208DF8300007A90848C4
:10188000FFF766FE0023012205210548FFF78AFEC7
:1018900001210348FFF72AFE0DB000BD00140240ED
:1018A00000220140F0B50A4600210023002400BFB9
:1018B0003DE0012505FA01F3156805EA03049C42A1
:1018C00034D105684F000326BE40B5430560157945
:1018D0004E00B5400668354305601579012D02D0EC
:1018E0001579022D16D185684F000326BE40B543F9
:1018F000856055794E00B5408668354385604568FA
:1019000001268E40B5434560456896798E40B6B253
:1019100035434560C5684F000326BE40B543C560EA
:10192000D5794E00B540C6683543C560491C1029BD
:10193000BFD3F0BDF0B5002300244D07ED0E02FA31
:1019400005F3CE1000F1200555F826504E07F70E8E
:101950000F26BE40B543CF1000F1200646F82750B1
:10196000CE1000F1200555F8265045EA0304CE10AC
:1019700000F1200545F82640F0BD0183704700BF07
:10198000FEE700004CF6CC400149086070470000BB
:10199000003000404AF6AA20014908607047000064
:1019A00000300040014948607047000000300040AE
:1019B000014988607047000000300040014908601C
:1019C000704700000030004000BFFEE77047000095
:1019D00070B5002100230F22C4781CB3174C246873
:1019E00004F4E064C4F5E064C4F30721C1F1040425
:1019F000E3B20A4144789C40E1B284781440214328
:101A00000C07210E0E4C05786155047804F01F0573
:101A10000124AC4005786D11AD0005F1E025C5F855
:101A2000004109E0047804F01F050124AC40054D95
:101A30000678761145F8264070BD00000CED00E0F8
:101A400000E400E080E100E002490143024A116045
:101A5000704700000000FA050CED00E07047000040
:101A600029B1064A12680243044B1A6004E0034A93
:101A700012688243014B1A60704700003038024000
:101A800029B1064A12680243044B1A6004E0034A73
:101A900012688243014B1A607047000044380240CC
:101AA000F0B5002100220024022500260223324F37
:101AB0003F6807F00C0121B1042905D0082937D16E
:101AC00005E02E4F076036E02D4F076033E02A4FC8
:101AD0003F1F3F68C7F38056274F3F1F3F6807F0FF
:101AE0003F036EB1264FB7FBF3F7DFF88CC0ACF1C4
:101AF000040CDCF800C0CCF3881C07FB0CF40CE0F1
:101B00001E4FB7FBF3F7DFF870C0ACF1040CDCF844
:101B100000C0CCF3881C07FB0CF4174F3F1F3F6835
:101B2000C7F301477F1C7D00B4FBF5F7076002E0B7
:101B3000124F076000BF00BF0F4F3F6807F0F00172
:101B40000909104F7A5C0768D74047600A4F3F6821
:101B500007F4E051890A0B4F7A5C4768D7408760E9
:101B6000054F3F6807F46041490B064F7A5C4768B0
:101B7000D740C760F0BD0000083802400024F400E0
:101B800000127A00020000207047000030B50022E9
:101B90008B071C0F0F2303FA04F20B4B8C1053F826
:101BA00024309343084C8D1044F8253023468C1084
:101BB00053F824308C07240F00FA04F42343024C1A
:101BC0008D1044F8253030BD083801400CB5002098
:101BD000019000903448006840F480303249086039
:101BE00000BF3148006800F4003000900198401CAC
:101BF0000190009818B90198B0F5A04FF1D12A488A
:101C0000006800F4003010B10120009001E00020D5
:101C100000900098012846D123484030006840F0E9
:101C200080502149403108602048006840F440401D
:101C30001E4908601C48083000681B4908310860CC
:101C40000846006840F4004008600846006840F418
:101C5000A05008601648091F0860081F006840F07F
:101C60008070091F086000BF0F48006800F0007016
:101C70000028F9D040F205700E4908600A48083083
:101C8000006820F003000849083108600846006831
:101C900040F00200086000BF03480830006800F010
:101CA0000C000828F8D10CBD00380240007000403C
:101CB00008544007003C024010B500F091F810BDF8
:101CC00010B51548006840F47000134908601348C7
:101CD000006840F001001149086000200F490831F8
:101CE00008600E4800680E4908400C4908600D481D
:101CF000091D0860081F006820F48020091F086083
:101D0000002006490C310860FFF760FF4FF00060CB
:101D100001498039086010BD88ED00E000380240BC
:101D2000FFFFF6FE1030002410B50121084800F036
:101D300046F8012806D10748006880F001000649EE
:101D4000C1F8A8020121024800F036F810BD0000D9
:101D500000440140A88242420080424210B5012165
:101D6000880700F02CF8012805D105480068C04319
:101D70000449C1F8B4020121880700F01DF810BD24
:101D8000B40242420000424210B50121074800F06F
:101D900016F8012805D106480068C0430549C1F876
:101DA000B8020121014800F007F810BD000C004006
:101DB000B802424200004242CA430282704730B534
:101DC0000246002000230024158A05EA01039589B4
:101DD00005EA010413B10CB1012000E0002030BD80
:101DE0000448006820B103480068401E01490860AB
:101DF000704700001400002010B540F2255118482B
:101E000000F044F850B31748007838BB144800F08D
:101E1000F7F815490870084600781449144A1278F2
:101E2000885413480078401C11490870084600780F
:101E300002280CDB08460078801E0C49085C0D283F
:101E400005D10B480078401E085C0A2803D00848DA
:101E50000078FF2802D101200249087010BD00005F
:101E600000100140010000201C0000202000002084
:101E70000000002021B1828942F40052828104E0F6
:101E800082894DF6FF731A408281704770B5024611
:101E9000002400230025002040F66A16B14200D13C
:101EA00000BFC1F3421501F01F03012606FA03F338
:101EB000012D02D19689334006E0022D02D1168A07
:101EC000334001E0968A33400C12012606FA04F4EE
:101ED0001688344013B10CB1012000E0002070BD21
:101EE000F0B50346002400260025002040F66A17BE
:101EF000B94200D100BF1846C1F3421401F01F06D9
:101F0000012707FA06F5012C01D10C3004E0022C60
:101F100001D1103000E014301AB107682F43076078
:101F200002E00768AF430760F0BD00002DE9FF47FE
:101F300005460E460024A14600BFA046B08900B168
:101F400000BF2C8A24F44054F08804432C82AC89CE
:101F500041F20C608443B088318908437189084399
:101F60000443AC81AC8A24F44074B0890443AC824D
:101F70006846FFF795FD2048854202D01F488542FC
:101F800002D1DDF80C9001E0DDF80890A88900F49A
:101F9000004040B109EBC90000EB0910316849006D
:101FA000B0FBF1F707E009EBC90000EB091031685D
:101FB0008900B0FBF1F76420B7FBF0F004012009C1
:101FC000642101FB1078A88900F4004040B1322060
:101FD00000EBC800B0FBF1F000F00700044308E09C
:101FE000322000EB08106421B0FBF1F000F00F008C
:101FF00004432C81BDE8FF8700100140001401401C
:1020000001468888C0F30800704700BFFEE703B4AC
:1020100001984100009850EAC12018BF04204A0DE1
:1020200018BF40F0010040F2FF72B2EB515F08BFF1
:1020300040F00200012808BF052002B0704700BF31
:102040007047000070B51548FFF72AFD1348406837
:1020500042F21072B0FBF2F1481EB0F1807F00D363
:102060001BE0481E4FF0E022506150170F2200285D
:1020700007DA13071D0E0A4B00F00F04241F1D552D
:1020800003E013071C0E074B1C5400BF00204FF049
:10209000E02290610720106100BF70BD2001002088
:1020A00018ED00E000E400E001B581B000201CE084
:1020B00000214FF0E0221161284951610021916116
:1020C0000121116100BF4FF0E021096900910099E1
:1020D00001F0010121B1009901F480310029F2D011
:1020E00000214FF0E0221161401C4FF42F72019942
:1020F000B1FBF2F18142DBD811460198B0FBF1F25D
:1021000001FB120048B300204FF0E02108614FF4BA
:102110002F710198B0FBF1F201FB120040F6412152
:1021200048430121C1EBC0004FF0E021486100208D
:1021300088610120086100BF4FF0E0200069009035
:10214000009800F0010020B1009800F480300028D1
:10215000F2D000204FF0E02108610CBDDF4DE0001F
:1021600000BF054A128802F04002002AF9D0C2B22C
:10217000014B9A80704700000010014000BF0548E5
:10218000006800F001000028F9D00248001D006836
:10219000704700000408065010B545F25550FFF78F
:1021A0000DFC0320FFF7FEFB40F6FF70FFF700FC7D
:1021B000FFF7E8FB10BD000010B500241E480068C2
:1021C00050B11E48006838B11C48001D006818B1A5
:1021D0001A480830006868BB2820FFF765FF1648DA
:1021E000006808B901240FE01448006808B9022407
:1021F0000AE01248001D006808B9032404E00F48F3
:102200000830006800B9042400BF0B4800680028AB
:10221000FBD00A4800680028F7D00848001D006875
:102220000028F2D00548083000680028EDD02820AA
:10223000FFF73AFF204610BD00024042080242422A
:102240000EB501218803FFF71BFC00210846FFF7AC
:102250009DFC02210420FFF799FC03210420FFF7D5
:1022600095FC04210846FFF791FC1D2001900120F8
:102270008DF80A0000208DF808000C208DF8090068
:1022800001A8FFF771FA06208DF8000001208DF8F3
:1022900003008DF801008DF802006846FFF798FBF7
:1022A00008208DF800006846FFF792FB09208DF8A2
:1022B00000006846FFF78CFB0A208DF80000684696
:1022C000FFF786FB0EBD00001CB501211120FFF7B2
:1022D000C7FB0120009000208DF804008DF8070056
:1022E00069460548FFF7DEFA1C200090694603485E
:1022F000FFF7D8FA1CBD00000000024000100240A9
:102300001CB501213020FFF7ABFB4FF4806000903B
:1023100001208DF804008DF806008DF807008DF877
:10232000050069461448FFF7BDFA4FF4C04000901D
:1023300069461248FFF7B6FA4FF48070009000200B
:102340008DF8060069460C48FFF7ACFA4FF40071AF
:102350000948FFF712FB4FF480610748FFF70DFBB8
:102360004FF400510548FFF708FB4FF48041034844
:10237000FFF703FB1CBD00000014024000100240E8
:102380002DED068BFFF75EFE4FF4A060FFF75CFBC0
:10239000FFF7B6FFFFF798FFFFF752FF00F08EF848
:1023A000FFF7FAFE00F09CF8FFF73CFAFFF75EF843
:1023B00029A0FDF771FF4EE000F0F2F8FFF71EFADA
:1023C0000546284600F024FB41EC1A0B9FED240B38
:1023D00053EC102B00F0C4F941EC190B9FED220BCC
:1023E00053EC102B00F02AFC41EC180B53EC182B8B
:1023F00029461FA0FDF750FFFFF724F805462846A1
:1024000000F006FB41EC1A0B9FED1F0B53EC102B59
:1024100000F016FB41EC190B9FED1D0B53EC102B3C
:1024200000F09EF941EC180B53EC182B29461AA02A
:10243000FDF732FFFFF7A2FE6421B0FBF1F201FBD2
:10244000120421461AA0FDF727FFFFF7A3FA4FF465
:10245000FA60FFF729FEAFE753746172740D0A004A
:10246000000000000000384000000000000059405B
:1024700046373A256420202020564F4C3A202566C6
:102480002025250D0A0000006666666666660A401D
:10249000000000000000B04041353A2564202020B3
:1024A00020564F4C3A20256620560D0A00000000A9
:1024B000726E673A25750D0A000000000648006834
:1024C00040F04000044908600448006840F00400FF
:1024D0000249086070470000343802400008065086
:1024E00000B587B001210846FFF7BAFA0121102094
:1024F000FFF7C6FA07220A212748FFF71BFA07222F
:1025000009212548FFF716FA02208DF80400032060
:102510008DF8050000208DF8060001208DF80700D9
:102520004002009069461C48FFF7BCF901208DF875
:1025300006008002009069461748FFF7B3F94FF490
:10254000E13003900020ADF81000ADF81200ADF8B6
:102550001400ADF818000C20ADF8160003A90F48C0
:10256000FFF7E4FC25208DF8080001208DF8090014
:102570008DF80A008DF80B0002A8FFF729FA012256
:1025800040F225510548FFF7ABFC01210348FFF756
:1025900071FC07B000BD00000000024000100140C7
:1025A00010B50B480078012810D10A48007868B1AE
:1025B000084909A0FDF770FE4FF480710548FDF74A
:1025C00011FF0020064908700149087010BD000085
:1025D0000100002020000020726563763A25730018
:1025E0000000002010B500290AD00878002807D084
:1025F00005487844FEF71EFB002801D0002010BDDE
:102600000248784410BD0000FA080000F2080000FB
:1026100010B591EA030F48BF83F0004300F1228315
:10262000841A71EB030C05D2121943EB0C03001B47
:1026300061EB0C01DFF824E14FEA1154A4EB135CC9
:102640001EEA430F18BF9EEA445F73D023EA0E03CD
:10265000DCF1200E21EA045143F4801332D322FA34
:102660000CFE10EB0E0023FA0CFE41EB0E01CCF138
:10267000200E03FA0EFE10EB0E0051F10001B1F531
:10268000801FCCF1200E32D201EB045112FA0EF26F
:10269000BDE8104058BF7047401C38BF5FEA420297
:1026A00018BF7047002814BF20F0010041F100015D
:1026B0004FEA410313F5001F38BF7047A1F1C04135
:1026C00000F0B6BA012A43EB0302ACF1200CDCF1B6
:1026D0001F0E32BF4FF0000E23FA0CF310EB030075
:1026E00041EB0451B4EB115FD0D0A1EB045101F5E3
:1026F000801149085FEA300001EB04510ED350F11C
:10270000000038BF12FA0EFE08D1BDE81040C9E73C
:10271000401C38BF5FEA4202CAD1C3E7BDE810409F
:102720004FEA410313F5001F38BF7047A1F1C041C4
:1027300000F07EBA9EEA445F08D011EA5E0FBDE861
:10274000104004BF01F0004100207047BDE8104078
:1027500070B500F01FFA00BF64FBBE3E0000E0FF52
:102760002DE9C04130B4DFF8A0C23CEA111418BF13
:102770003CEA131400F0EC8081EA03051CEA111412
:1027800044EAD57418BF1CEA131500F0C780A4EB07
:1027900005044FF0004545EAC12145EAC32341EA5B
:1027A000505143EA525304F17F74994204F50034C6
:1027B0004FEAC0204FEAC22208BF904200F09C803E
:1027C0004FEA13650FF24016765D4FEA134506FB9C
:1027D00005F7C7F1807706FB07F74FEAD737A7FB66
:1027E00003687642C8F58038A7FB06CE38BFA8F14B
:1027F000010807FB08E64FF0000EA6FB028CE6FB83
:1028000003CEDCF1000CCEF1004E38BFAEF1010E6C
:10281000A6FB0C584FF000074FF00005E6FB0E87B3
:10282000A1FB08C6A0FB07CE16EB0E0645F100057E
:10283000E1FB076515F1E04E7EBFA4F580345FEA49
:1028400046066D4116F1800745F100054FEA17274E
:102850004FEA066647EA0567A6F1DE46B6F1805FF5
:102860004FEA15251FD9384624F0010C05EBC47139
:10287000BCF1FE6F01EB0C1102D8F0BCBDE8008189
:1028800024425CBF01F5801E9EEAC47F02D4F0BCE6
:10289000BDE80081244238D4F0BCA1F1C041BDE8BC
:1028A000004100F0C5B94FEAD22242EA43524FEA52
:1028B000D323A7FB02864FEAD02040EA415007FB12
:1028C00003661EEA0E0F4FEAD12105FB026658BFD0
:1028D000A6EB0056B6EB00564FEA520E4EEAC37E08
:1028E00018EB0E0E56EB530EBDD518EB02085E41E9
:1028F0007F1C55F10005B6E74FF480154FF0000737
:102900004FF000064FF00008ADE7F0BC4FF00000BC
:1029100001F1C04101F00041BDE8008111EA0C1F46
:102920000CEA131500D00CE013EA0C1F00F0258010
:102930004FF00000F0BC81EA030101F00041BDE866
:102940000081F0BCBDE8004181EA030100F070B9EC
:10295000F0BCBDE8004170B500F01CF9097EFC3EFA
:1029600000F007B881EA03014FF0000001F00041D8
:10297000704781EA030100F05BB9F0BCBDE800419B
:102980004FF0000021497047FFFDFBF9F7F5F4F225
:10299000F0EEEDEBE9E8E6E4E3E1E0DEDDDBDAD8FA
:1029A000D7D5D4D3D1D0CFCDCCCBCAC8C7C6C5C458
:1029B000C2C1C0BFBEBDBCBBBAB9B8B7B6B5B4B36F
:1029C000B2B1B0AFAEADACABAAA9A8A8A7A6A5A45A
:1029D000A3A3A2A1A09F9F9E9D9C9C9B9A9999981E
:1029E0009797969595949393929191908F8F8E8EC1
:1029F0008D8C8C8B8B8A898988888787868585844E
:102A000084838382828181800000FF070000F87F39
:102A100010F0004248BF4042B0FA80F310FA03F1D0
:102A20000AD0C3F11D0303F580634FEA415002EB66
:102A3000035202EBD12170474FF0000070470000B5
:102A4000DFF848C170B51CEA111E1EBF1CEA131541
:102A50009EEA0C0F95EA0C0F00F06F8081EA0304E8
:102A600023EA4C134EEAD47E21EA4C1141F4801142
:102A700043F48013AE44A1FB024CA0FB0365AEF10E
:102A80007F7E361955EB0C05A1FB034C4CF100037E
:102A9000A0FB021C16EB0C06654153F10003094232
:102AA00018BF46F0010613F4007F0BD14FEA033143
:102AB0004FEA0530340341EA155140EA16506FF0F1
:102AC00003020AE04FEAC3214FEAC520F40241EABB
:102AD000555140EA56506FF0020202EB2E4201EBD4
:102AE000025585EACE710AD05FEA440C18BF24F083
:102AF000004450F1000041F1000120EAD47040F29E
:102B0000FE7C624500D270BDA84214BF4FF08044E5
:102B10004FF04044002E08BF0024BEF1806FA8BFD4
:102B2000A1F1C041BDE8704080F282804FF000000A
:102B300001F1C04101F0004170479EEA0C0F0CEA20
:102B4000131518BF95EA0C0F06D04FF0000081EA6C
:102B5000030E0EF0004170BD00F01CF88900013E2C
:102B600000F007B800F009B84FEA430C5FEA5C5C7C
:102B700008D081EA030100F05BB84FEA410C5FEA3C
:102B80005C5CF6D14FF00000014970470000FF0780
:102B90000000F87F0EF1020E2EF0030E5EF8046BBB
:102BA000364205D4012A43EB030515F5001F12D860
:102BB000012841EB010C1CF5001F0CD80ED14FEA87
:102BC000D17C15F5001F0CEB4C0C0CF1020C08BF6E
:102BD0004CEBD37C04E04FF0080C01E04FEAD37CCF
:102BE0000CEB4C0526FA05F606F00706B6F1040CC8
:102BF00006D20EEB860CBDE870404CF0010C60472D
:102C0000DFE80CF0090B02024FF000414FF000002A
:102C1000A1F5002170BD19461046012851EB0104B1
:102C200018BFD4F5001484BF002001F0004170BD2E
:102C30000808A0F500114FEA3101704791EA030F2F
:102C400010B581F000413FF5EBAC83F0004300F09C
:102C500009B8000010B591EA030F48BF83F00043A4
:102C60003FF5DEAC841A71EB030C07D212198CF01D
:102C7000004C43EB0C03001B61EB0C01DFF8A4E1FB
:102C80004FEA1154A4EB135C1EEA430F18BF9EEAEF
:102C9000445F00F0B08023EA6E03524221EA0451FF
:102CA000C3EB6E0338BF5B1EDCF1200E25D322FA86
:102CB0000CFE10EB0E0043FA0CFE41EB0E01CCF1C2
:102CC000200E03FA0EFE10EB0E0051F10001CCF1C4
:102CD000200E29D412FA0EF201EB0451BDE8104087
:102CE00058BF7047401C1CBFB2F1004F704700280E
:102CF0000CBF491C20F00100704712EB020E43EBA1
:102D0000030218BF4FF0010E4EEA4202ACF1200C54
:102D1000DCF11E0E54D943FA0CFE10EB0E0051F1FB
:102D2000FF31CCF11E0ED5D50EF1010E12FA0EFEBA
:102D3000404141EB010101EB445C5FEA5C5C10D96E
:102D400010EBDE7001EB045138BFBEF1004FBDE85F
:102D5000104018BF704700280CBF491C20F001002C
:102D6000704730D24FEAD42C11F5001124F40064DE
:102D70001BD0B1FA81F20B3AA41AA41ED2F120039F
:102D8000914030FA03F31943904001EBCC71002CD1
:102D900001EB0451BDE81040A8BF704701F1C041EC
:102DA0004FF0000001F000417047B0FA80F310FAD4
:102DB00003F100D110BDE41A173C4805C90AE4E745
:102DC00001EB045110BD491001EB0451BDE8104066
:102DD0004FEA300002E04FF0000170474A0008BFA0
:102DE0000042F8D0B2F5001F28BF704701F0004143
:102DF0004FF0000070479EEA445F07D011EA5E0F73
:102E0000BDE8104004BF002100207047BDE810401D
:102E100070B5FFF7BFFE00BF40DFF63E83F0004114
:102E2000104670470000E0FF4FF04070E1EE100ADE
:102E30007047FDF72FBC000002400000000000A01A
:102E40000000000005400000000000C80000000075
:102E50000C4000000000409C0000000019400000F1
:102E60000020BCBE0000000034400000BFC91B8E23
:102E700000000004B5400000504BCFD06607E2CF01
:102E8000010000006C4100003E8251AADFEEA73431
:102E900001000000D9420000DCB5A0E23A301F97E3
:102EA000FFFFFFFFB4450000FD25A0C8E9A3C14F07
:102EB000FFFFFFFFFF3F0000000000800000000058
:102EC000FF3F00000000008000000000082F000805
:102ED0000000002020000000C4010008282F000886
:102EE0002000002070070000E00100081C00000026
:102EF00043000000F8FFFFFF0C0000000E00000080
:102F00000F0000002E000000000000000000010281
:102F10000304010203040607080900000000000082
:082F20000000000000000000A9
:040000050800018965
:00000001FF
